{
	"contracts/voting.sol": {
		"Voting": {
			"abi": [
				{
					"inputs": [],
					"stateMutability": "nonpayable",
					"type": "constructor"
				},
				{
					"anonymous": false,
					"inputs": [
						{
							"indexed": true,
							"internalType": "address",
							"name": "account",
							"type": "address"
						}
					],
					"name": "InstructorAdded",
					"type": "event"
				},
				{
					"anonymous": false,
					"inputs": [
						{
							"indexed": true,
							"internalType": "address",
							"name": "account",
							"type": "address"
						}
					],
					"name": "InstructorRemoved",
					"type": "event"
				},
				{
					"anonymous": false,
					"inputs": [
						{
							"indexed": true,
							"internalType": "address",
							"name": "previousOwner",
							"type": "address"
						},
						{
							"indexed": true,
							"internalType": "address",
							"name": "newOwner",
							"type": "address"
						}
					],
					"name": "OwnershipTransferred",
					"type": "event"
				},
				{
					"anonymous": false,
					"inputs": [
						{
							"indexed": true,
							"internalType": "uint256",
							"name": "pollId",
							"type": "uint256"
						}
					],
					"name": "PollClosed",
					"type": "event"
				},
				{
					"anonymous": false,
					"inputs": [
						{
							"indexed": true,
							"internalType": "uint256",
							"name": "pollId",
							"type": "uint256"
						},
						{
							"indexed": false,
							"internalType": "string",
							"name": "question",
							"type": "string"
						},
						{
							"indexed": false,
							"internalType": "string[]",
							"name": "options",
							"type": "string[]"
						}
					],
					"name": "PollCreated",
					"type": "event"
				},
				{
					"anonymous": false,
					"inputs": [
						{
							"indexed": true,
							"internalType": "uint256",
							"name": "pollId",
							"type": "uint256"
						},
						{
							"indexed": true,
							"internalType": "address",
							"name": "voter",
							"type": "address"
						},
						{
							"indexed": false,
							"internalType": "uint256",
							"name": "optionIndex",
							"type": "uint256"
						}
					],
					"name": "VoteCast",
					"type": "event"
				},
				{
					"inputs": [
						{
							"internalType": "address",
							"name": "account",
							"type": "address"
						}
					],
					"name": "addInstructor",
					"outputs": [],
					"stateMutability": "nonpayable",
					"type": "function"
				},
				{
					"inputs": [
						{
							"internalType": "uint256",
							"name": "pollId",
							"type": "uint256"
						}
					],
					"name": "closePoll",
					"outputs": [],
					"stateMutability": "nonpayable",
					"type": "function"
				},
				{
					"inputs": [
						{
							"internalType": "string",
							"name": "question",
							"type": "string"
						},
						{
							"internalType": "string[]",
							"name": "options",
							"type": "string[]"
						}
					],
					"name": "createPoll",
					"outputs": [
						{
							"internalType": "uint256",
							"name": "pollId",
							"type": "uint256"
						}
					],
					"stateMutability": "nonpayable",
					"type": "function"
				},
				{
					"inputs": [
						{
							"internalType": "uint256",
							"name": "pollId",
							"type": "uint256"
						}
					],
					"name": "getOptionCount",
					"outputs": [
						{
							"internalType": "uint256",
							"name": "",
							"type": "uint256"
						}
					],
					"stateMutability": "view",
					"type": "function"
				},
				{
					"inputs": [
						{
							"internalType": "uint256",
							"name": "pollId",
							"type": "uint256"
						}
					],
					"name": "getPoll",
					"outputs": [
						{
							"internalType": "string",
							"name": "question",
							"type": "string"
						},
						{
							"internalType": "string[]",
							"name": "options",
							"type": "string[]"
						},
						{
							"internalType": "uint256[]",
							"name": "votes",
							"type": "uint256[]"
						},
						{
							"internalType": "bool",
							"name": "isOpen",
							"type": "bool"
						}
					],
					"stateMutability": "view",
					"type": "function"
				},
				{
					"inputs": [],
					"name": "getPollCount",
					"outputs": [
						{
							"internalType": "uint256",
							"name": "",
							"type": "uint256"
						}
					],
					"stateMutability": "view",
					"type": "function"
				},
				{
					"inputs": [
						{
							"internalType": "uint256",
							"name": "pollId",
							"type": "uint256"
						},
						{
							"internalType": "address",
							"name": "voter",
							"type": "address"
						}
					],
					"name": "hasVoted",
					"outputs": [
						{
							"internalType": "bool",
							"name": "",
							"type": "bool"
						}
					],
					"stateMutability": "view",
					"type": "function"
				},
				{
					"inputs": [
						{
							"internalType": "address",
							"name": "",
							"type": "address"
						}
					],
					"name": "isInstructor",
					"outputs": [
						{
							"internalType": "bool",
							"name": "",
							"type": "bool"
						}
					],
					"stateMutability": "view",
					"type": "function"
				},
				{
					"inputs": [],
					"name": "owner",
					"outputs": [
						{
							"internalType": "address",
							"name": "",
							"type": "address"
						}
					],
					"stateMutability": "view",
					"type": "function"
				},
				{
					"inputs": [
						{
							"internalType": "address",
							"name": "account",
							"type": "address"
						}
					],
					"name": "removeInstructor",
					"outputs": [],
					"stateMutability": "nonpayable",
					"type": "function"
				},
				{
					"inputs": [
						{
							"internalType": "address",
							"name": "newOwner",
							"type": "address"
						}
					],
					"name": "transferOwnership",
					"outputs": [],
					"stateMutability": "nonpayable",
					"type": "function"
				},
				{
					"inputs": [
						{
							"internalType": "uint256",
							"name": "pollId",
							"type": "uint256"
						},
						{
							"internalType": "uint256",
							"name": "optionIndex",
							"type": "uint256"
						}
					],
					"name": "vote",
					"outputs": [],
					"stateMutability": "nonpayable",
					"type": "function"
				}
			],
			"devdoc": {
				"kind": "dev",
				"methods": {},
				"title": "Simple On-Chain Voting (Classroom Demo, multi-instructor)",
				"version": 1
			},
			"evm": {
				"assembly": "    /* \"contracts/voting.sol\":127:5077  contract Voting {... */\n  mstore(0x40, 0x80)\n    /* \"contracts/voting.sol\":459:698  constructor() {... */\n  callvalue\n  dup1\n  iszero\n  tag_1\n  jumpi\n  revert(0x00, 0x00)\ntag_1:\n  pop\n    /* \"contracts/voting.sol\":491:501  msg.sender */\n  caller\n    /* \"contracts/voting.sol\":483:488  owner */\n  0x00\n  0x00\n    /* \"contracts/voting.sol\":483:501  owner = msg.sender */\n  0x0100\n  exp\n  dup2\n  sload\n  dup2\n  0xffffffffffffffffffffffffffffffffffffffff\n  mul\n  not\n  and\n  swap1\n  dup4\n  0xffffffffffffffffffffffffffffffffffffffff\n  and\n  mul\n  or\n  swap1\n  sstore\n  pop\n    /* \"contracts/voting.sol\":549:559  msg.sender */\n  caller\n    /* \"contracts/voting.sol\":516:560  OwnershipTransferred(address(0), msg.sender) */\n  0xffffffffffffffffffffffffffffffffffffffff\n  and\n    /* \"contracts/voting.sol\":545:546  0 */\n  0x00\n    /* \"contracts/voting.sol\":516:560  OwnershipTransferred(address(0), msg.sender) */\n  0xffffffffffffffffffffffffffffffffffffffff\n  and\n  0x8be0079c531659141344cd1fd0a4f28419497f9722a3daafe3b4186f6b6457e0\n  mload(0x40)\n  mload(0x40)\n  dup1\n  swap2\n  sub\n  swap1\n  log3\n    /* \"contracts/voting.sol\":645:649  true */\n  0x01\n    /* \"contracts/voting.sol\":618:630  isInstructor */\n  dup1\n    /* \"contracts/voting.sol\":618:642  isInstructor[msg.sender] */\n  0x00\n    /* \"contracts/voting.sol\":631:641  msg.sender */\n  caller\n    /* \"contracts/voting.sol\":618:642  isInstructor[msg.sender] */\n  0xffffffffffffffffffffffffffffffffffffffff\n  and\n  0xffffffffffffffffffffffffffffffffffffffff\n  and\n  dup2\n  mstore\n  0x20\n  add\n  swap1\n  dup2\n  mstore\n  0x20\n  add\n  0x00\n  keccak256\n  0x00\n    /* \"contracts/voting.sol\":618:649  isInstructor[msg.sender] = true */\n  0x0100\n  exp\n  dup2\n  sload\n  dup2\n  0xff\n  mul\n  not\n  and\n  swap1\n  dup4\n  iszero\n  iszero\n  mul\n  or\n  swap1\n  sstore\n  pop\n    /* \"contracts/voting.sol\":680:690  msg.sender */\n  caller\n    /* \"contracts/voting.sol\":664:691  InstructorAdded(msg.sender) */\n  0xffffffffffffffffffffffffffffffffffffffff\n  and\n  0x0fd42d8e27c57b559503004be9fa8b7afc701e92663745556b34e1bc24c86e06\n  mload(0x40)\n  mload(0x40)\n  dup1\n  swap2\n  sub\n  swap1\n  log2\n    /* \"contracts/voting.sol\":127:5077  contract Voting {... */\n  dataSize(sub_0)\n  dup1\n  dataOffset(sub_0)\n  0x00\n  codecopy\n  0x00\n  return\nstop\n\nsub_0: assembly {\n        /* \"contracts/voting.sol\":127:5077  contract Voting {... */\n      mstore(0x40, 0x80)\n      callvalue\n      dup1\n      iszero\n      tag_1\n      jumpi\n      revert(0x00, 0x00)\n    tag_1:\n      pop\n      jumpi(tag_2, lt(calldatasize, 0x04))\n      shr(0xe0, calldataload(0x00))\n      dup1\n      0x9c566f2a\n      gt\n      tag_15\n      jumpi\n      dup1\n      0x9c566f2a\n      eq\n      tag_9\n      jumpi\n      dup1\n      0xa3afcea2\n      eq\n      tag_10\n      jumpi\n      dup1\n      0xb384abef\n      eq\n      tag_11\n      jumpi\n      dup1\n      0xb9399e13\n      eq\n      tag_12\n      jumpi\n      dup1\n      0xe1adaf58\n      eq\n      tag_13\n      jumpi\n      dup1\n      0xf2fde38b\n      eq\n      tag_14\n      jumpi\n      jump(tag_2)\n    tag_15:\n      dup1\n      0x11a52746\n      eq\n      tag_3\n      jumpi\n      dup1\n      0x1a8cbcaa\n      eq\n      tag_4\n      jumpi\n      dup1\n      0x43859632\n      eq\n      tag_5\n      jumpi\n      dup1\n      0x7e3d71c3\n      eq\n      tag_6\n      jumpi\n      dup1\n      0x8da5cb5b\n      eq\n      tag_7\n      jumpi\n      dup1\n      0x9534e637\n      eq\n      tag_8\n      jumpi\n    tag_2:\n      revert(0x00, 0x00)\n        /* \"contracts/voting.sol\":4031:4124  function getPollCount() external view returns (uint256) {... */\n    tag_3:\n      tag_16\n      tag_17\n      jump\t// in\n    tag_16:\n      mload(0x40)\n      tag_18\n      swap2\n      swap1\n      tag_19\n      jump\t// in\n    tag_18:\n      mload(0x40)\n      dup1\n      swap2\n      sub\n      swap1\n      return\n        /* \"contracts/voting.sol\":4130:4699  function getPoll(uint256 pollId)... */\n    tag_4:\n      tag_20\n      0x04\n      dup1\n      calldatasize\n      sub\n      dup2\n      add\n      swap1\n      tag_21\n      swap2\n      swap1\n      tag_22\n      jump\t// in\n    tag_21:\n      tag_23\n      jump\t// in\n    tag_20:\n      mload(0x40)\n      tag_24\n      swap5\n      swap4\n      swap3\n      swap2\n      swap1\n      tag_25\n      jump\t// in\n    tag_24:\n      mload(0x40)\n      dup1\n      swap2\n      sub\n      swap1\n      return\n        /* \"contracts/voting.sol\":4891:5075  function hasVoted(uint256 pollId, address voter) external view returns (bool) {... */\n    tag_5:\n      tag_26\n      0x04\n      dup1\n      calldatasize\n      sub\n      dup2\n      add\n      swap1\n      tag_27\n      swap2\n      swap1\n      tag_28\n      jump\t// in\n    tag_27:\n      tag_29\n      jump\t// in\n    tag_26:\n      mload(0x40)\n      tag_30\n      swap2\n      swap1\n      tag_31\n      jump\t// in\n    tag_30:\n      mload(0x40)\n      dup1\n      swap2\n      sub\n      swap1\n      return\n        /* \"contracts/voting.sol\":2359:3077  function createPoll(string calldata question, string[] calldata options)... */\n    tag_6:\n      tag_32\n      0x04\n      dup1\n      calldatasize\n      sub\n      dup2\n      add\n      swap1\n      tag_33\n      swap2\n      swap1\n      tag_34\n      jump\t// in\n    tag_33:\n      tag_35\n      jump\t// in\n    tag_32:\n      mload(0x40)\n      tag_36\n      swap2\n      swap1\n      tag_19\n      jump\t// in\n    tag_36:\n      mload(0x40)\n      dup1\n      swap2\n      sub\n      swap1\n      return\n        /* \"contracts/voting.sol\":247:267  address public owner */\n    tag_7:\n      tag_37\n      tag_38\n      jump\t// in\n    tag_37:\n      mload(0x40)\n      tag_39\n      swap2\n      swap1\n      tag_40\n      jump\t// in\n    tag_39:\n      mload(0x40)\n      dup1\n      swap2\n      sub\n      swap1\n      return\n        /* \"contracts/voting.sol\":3083:3349  function closePoll(uint256 pollId) external onlyInstructor {... */\n    tag_8:\n      tag_41\n      0x04\n      dup1\n      calldatasize\n      sub\n      dup2\n      add\n      swap1\n      tag_42\n      swap2\n      swap1\n      tag_22\n      jump\t// in\n    tag_42:\n      tag_43\n      jump\t// in\n    tag_41:\n      stop\n        /* \"contracts/voting.sol\":1542:1749  function removeInstructor(address account) external onlyOwner {... */\n    tag_9:\n      tag_44\n      0x04\n      dup1\n      calldatasize\n      sub\n      dup2\n      add\n      swap1\n      tag_45\n      swap2\n      swap1\n      tag_46\n      jump\t// in\n    tag_45:\n      tag_47\n      jump\t// in\n    tag_44:\n      stop\n        /* \"contracts/voting.sol\":1006:1050  mapping(address => bool) public isInstructor */\n    tag_10:\n      tag_48\n      0x04\n      dup1\n      calldatasize\n      sub\n      dup2\n      add\n      swap1\n      tag_49\n      swap2\n      swap1\n      tag_46\n      jump\t// in\n    tag_49:\n      tag_50\n      jump\t// in\n    tag_48:\n      mload(0x40)\n      tag_51\n      swap2\n      swap1\n      tag_31\n      jump\t// in\n    tag_51:\n      mload(0x40)\n      dup1\n      swap2\n      sub\n      swap1\n      return\n        /* \"contracts/voting.sol\":3464:3917  function vote(uint256 pollId, uint256 optionIndex) external {... */\n    tag_11:\n      tag_52\n      0x04\n      dup1\n      calldatasize\n      sub\n      dup2\n      add\n      swap1\n      tag_53\n      swap2\n      swap1\n      tag_54\n      jump\t// in\n    tag_53:\n      tag_55\n      jump\t// in\n    tag_52:\n      stop\n        /* \"contracts/voting.sol\":1274:1536  function addInstructor(address account) external onlyOwner {... */\n    tag_12:\n      tag_56\n      0x04\n      dup1\n      calldatasize\n      sub\n      dup2\n      add\n      swap1\n      tag_57\n      swap2\n      swap1\n      tag_46\n      jump\t// in\n    tag_57:\n      tag_58\n      jump\t// in\n    tag_56:\n      stop\n        /* \"contracts/voting.sol\":4705:4885  function getOptionCount(uint256 pollId) external view returns (uint256) {... */\n    tag_13:\n      tag_59\n      0x04\n      dup1\n      calldatasize\n      sub\n      dup2\n      add\n      swap1\n      tag_60\n      swap2\n      swap1\n      tag_22\n      jump\t// in\n    tag_60:\n      tag_61\n      jump\t// in\n    tag_59:\n      mload(0x40)\n      tag_62\n      swap2\n      swap1\n      tag_19\n      jump\t// in\n    tag_62:\n      mload(0x40)\n      dup1\n      swap2\n      sub\n      swap1\n      return\n        /* \"contracts/voting.sol\":704:910  function transferOwnership(address newOwner) external onlyOwner {... */\n    tag_14:\n      tag_63\n      0x04\n      dup1\n      calldatasize\n      sub\n      dup2\n      add\n      swap1\n      tag_64\n      swap2\n      swap1\n      tag_46\n      jump\t// in\n    tag_64:\n      tag_65\n      jump\t// in\n    tag_63:\n      stop\n        /* \"contracts/voting.sol\":4031:4124  function getPollCount() external view returns (uint256) {... */\n    tag_17:\n        /* \"contracts/voting.sol\":4078:4085  uint256 */\n      0x00\n        /* \"contracts/voting.sol\":4104:4110  _polls */\n      0x02\n        /* \"contracts/voting.sol\":4104:4117  _polls.length */\n      dup1\n      sload\n      swap1\n      pop\n        /* \"contracts/voting.sol\":4097:4117  return _polls.length */\n      swap1\n      pop\n        /* \"contracts/voting.sol\":4031:4124  function getPollCount() external view returns (uint256) {... */\n      swap1\n      jump\t// out\n        /* \"contracts/voting.sol\":4130:4699  function getPoll(uint256 pollId)... */\n    tag_23:\n        /* \"contracts/voting.sol\":4210:4232  string memory question */\n      0x60\n        /* \"contracts/voting.sol\":4234:4257  string[] memory options */\n      dup1\n        /* \"contracts/voting.sol\":4259:4281  uint256[] memory votes */\n      0x60\n        /* \"contracts/voting.sol\":4283:4294  bool isOpen */\n      0x00\n        /* \"contracts/voting.sol\":4327:4333  _polls */\n      0x02\n        /* \"contracts/voting.sol\":4327:4340  _polls.length */\n      dup1\n      sload\n      swap1\n      pop\n        /* \"contracts/voting.sol\":4318:4324  pollId */\n      dup6\n        /* \"contracts/voting.sol\":4318:4340  pollId < _polls.length */\n      lt\n        /* \"contracts/voting.sol\":4310:4355  require(pollId < _polls.length, \"Bad pollId\") */\n      tag_68\n      jumpi\n      mload(0x40)\n      0x08c379a000000000000000000000000000000000000000000000000000000000\n      dup2\n      mstore\n      0x04\n      add\n      tag_69\n      swap1\n      tag_70\n      jump\t// in\n    tag_69:\n      mload(0x40)\n      dup1\n      swap2\n      sub\n      swap1\n      revert\n    tag_68:\n        /* \"contracts/voting.sol\":4365:4379  Poll storage p */\n      0x00\n        /* \"contracts/voting.sol\":4382:4388  _polls */\n      0x02\n        /* \"contracts/voting.sol\":4389:4395  pollId */\n      dup7\n        /* \"contracts/voting.sol\":4382:4396  _polls[pollId] */\n      dup2\n      sload\n      dup2\n      lt\n      tag_71\n      jumpi\n      tag_72\n      tag_73\n      jump\t// in\n    tag_72:\n    tag_71:\n      swap1\n      0x00\n      mstore\n      keccak256(0x00, 0x20)\n      swap1\n      0x05\n      mul\n      add\n        /* \"contracts/voting.sol\":4365:4396  Poll storage p = _polls[pollId] */\n      swap1\n      pop\n        /* \"contracts/voting.sol\":4417:4418  p */\n      dup1\n        /* \"contracts/voting.sol\":4417:4427  p.question */\n      0x00\n      add\n        /* \"contracts/voting.sol\":4406:4427  question = p.question */\n      dup1\n      sload\n      tag_75\n      swap1\n      tag_76\n      jump\t// in\n    tag_75:\n      dup1\n      0x1f\n      add\n      0x20\n      dup1\n      swap2\n      div\n      mul\n      0x20\n      add\n      mload(0x40)\n      swap1\n      dup2\n      add\n      0x40\n      mstore\n      dup1\n      swap3\n      swap2\n      swap1\n      dup2\n      dup2\n      mstore\n      0x20\n      add\n      dup3\n      dup1\n      sload\n      tag_77\n      swap1\n      tag_76\n      jump\t// in\n    tag_77:\n      dup1\n      iszero\n      tag_78\n      jumpi\n      dup1\n      0x1f\n      lt\n      tag_79\n      jumpi\n      0x0100\n      dup1\n      dup4\n      sload\n      div\n      mul\n      dup4\n      mstore\n      swap2\n      0x20\n      add\n      swap2\n      jump(tag_78)\n    tag_79:\n      dup3\n      add\n      swap2\n      swap1\n      0x00\n      mstore\n      keccak256(0x00, 0x20)\n      swap1\n    tag_80:\n      dup2\n      sload\n      dup2\n      mstore\n      swap1\n      0x01\n      add\n      swap1\n      0x20\n      add\n      dup1\n      dup4\n      gt\n      tag_80\n      jumpi\n      dup3\n      swap1\n      sub\n      0x1f\n      and\n      dup3\n      add\n      swap2\n    tag_78:\n      pop\n      pop\n      pop\n      pop\n      pop\n      swap5\n      pop\n        /* \"contracts/voting.sol\":4446:4447  p */\n      dup1\n        /* \"contracts/voting.sol\":4446:4454  p.isOpen */\n      0x03\n      add\n      0x00\n      swap1\n      sload\n      swap1\n      0x0100\n      exp\n      swap1\n      div\n      0xff\n      and\n        /* \"contracts/voting.sol\":4437:4454  isOpen = p.isOpen */\n      swap2\n      pop\n        /* \"contracts/voting.sol\":4465:4474  uint256 n */\n      0x00\n        /* \"contracts/voting.sol\":4477:4478  p */\n      dup2\n        /* \"contracts/voting.sol\":4477:4486  p.options */\n      0x01\n      add\n        /* \"contracts/voting.sol\":4477:4493  p.options.length */\n      dup1\n      sload\n      swap1\n      pop\n        /* \"contracts/voting.sol\":4465:4493  uint256 n = p.options.length */\n      swap1\n      pop\n        /* \"contracts/voting.sol\":4526:4527  n */\n      dup1\n        /* \"contracts/voting.sol\":4513:4528  new string[](n) */\n      0xffffffffffffffff\n      dup2\n      gt\n      iszero\n      tag_81\n      jumpi\n      tag_82\n      tag_83\n      jump\t// in\n    tag_82:\n    tag_81:\n      mload(0x40)\n      swap1\n      dup1\n      dup3\n      mstore\n      dup1\n      0x20\n      mul\n      0x20\n      add\n      dup3\n      add\n      0x40\n      mstore\n      dup1\n      iszero\n      tag_84\n      jumpi\n      dup2\n      0x20\n      add\n    tag_85:\n      0x60\n      dup2\n      mstore\n      0x20\n      add\n      swap1\n      0x01\n      swap1\n      sub\n      swap1\n      dup2\n      tag_85\n      jumpi\n      swap1\n      pop\n    tag_84:\n      pop\n        /* \"contracts/voting.sol\":4503:4528  options = new string[](n) */\n      swap5\n      pop\n        /* \"contracts/voting.sol\":4562:4563  n */\n      dup1\n        /* \"contracts/voting.sol\":4548:4564  new uint256[](n) */\n      0xffffffffffffffff\n      dup2\n      gt\n      iszero\n      tag_86\n      jumpi\n      tag_87\n      tag_83\n      jump\t// in\n    tag_87:\n    tag_86:\n      mload(0x40)\n      swap1\n      dup1\n      dup3\n      mstore\n      dup1\n      0x20\n      mul\n      0x20\n      add\n      dup3\n      add\n      0x40\n      mstore\n      dup1\n      iszero\n      tag_88\n      jumpi\n      dup2\n      0x20\n      add\n      0x20\n      dup3\n      mul\n      dup1\n      calldatasize\n      dup4\n      calldatacopy\n      dup1\n      dup3\n      add\n      swap2\n      pop\n      pop\n      swap1\n      pop\n    tag_88:\n      pop\n        /* \"contracts/voting.sol\":4538:4564  votes   = new uint256[](n) */\n      swap4\n      pop\n        /* \"contracts/voting.sol\":4579:4588  uint256 i */\n      0x00\n        /* \"contracts/voting.sol\":4591:4592  0 */\n      0x00\n        /* \"contracts/voting.sol\":4579:4592  uint256 i = 0 */\n      swap1\n      pop\n        /* \"contracts/voting.sol\":4574:4693  for (uint256 i = 0; i < n; i++) {... */\n    tag_89:\n        /* \"contracts/voting.sol\":4598:4599  n */\n      dup2\n        /* \"contracts/voting.sol\":4594:4595  i */\n      dup2\n        /* \"contracts/voting.sol\":4594:4599  i < n */\n      lt\n        /* \"contracts/voting.sol\":4574:4693  for (uint256 i = 0; i < n; i++) {... */\n      iszero\n      tag_90\n      jumpi\n        /* \"contracts/voting.sol\":4633:4634  p */\n      dup3\n        /* \"contracts/voting.sol\":4633:4642  p.options */\n      0x01\n      add\n        /* \"contracts/voting.sol\":4643:4644  i */\n      dup2\n        /* \"contracts/voting.sol\":4633:4645  p.options[i] */\n      dup2\n      sload\n      dup2\n      lt\n      tag_92\n      jumpi\n      tag_93\n      tag_73\n      jump\t// in\n    tag_93:\n    tag_92:\n      swap1\n      0x00\n      mstore\n      keccak256(0x00, 0x20)\n      add\n        /* \"contracts/voting.sol\":4620:4645  options[i] = p.options[i] */\n      dup1\n      sload\n      tag_95\n      swap1\n      tag_76\n      jump\t// in\n    tag_95:\n      dup1\n      0x1f\n      add\n      0x20\n      dup1\n      swap2\n      div\n      mul\n      0x20\n      add\n      mload(0x40)\n      swap1\n      dup2\n      add\n      0x40\n      mstore\n      dup1\n      swap3\n      swap2\n      swap1\n      dup2\n      dup2\n      mstore\n      0x20\n      add\n      dup3\n      dup1\n      sload\n      tag_96\n      swap1\n      tag_76\n      jump\t// in\n    tag_96:\n      dup1\n      iszero\n      tag_97\n      jumpi\n      dup1\n      0x1f\n      lt\n      tag_98\n      jumpi\n      0x0100\n      dup1\n      dup4\n      sload\n      div\n      mul\n      dup4\n      mstore\n      swap2\n      0x20\n      add\n      swap2\n      jump(tag_97)\n    tag_98:\n      dup3\n      add\n      swap2\n      swap1\n      0x00\n      mstore\n      keccak256(0x00, 0x20)\n      swap1\n    tag_99:\n      dup2\n      sload\n      dup2\n      mstore\n      swap1\n      0x01\n      add\n      swap1\n      0x20\n      add\n      dup1\n      dup4\n      gt\n      tag_99\n      jumpi\n      dup3\n      swap1\n      sub\n      0x1f\n      and\n      dup3\n      add\n      swap2\n    tag_97:\n      pop\n      pop\n      pop\n      pop\n      pop\n        /* \"contracts/voting.sol\":4620:4627  options */\n      dup7\n        /* \"contracts/voting.sol\":4628:4629  i */\n      dup3\n        /* \"contracts/voting.sol\":4620:4630  options[i] */\n      dup2\n      mload\n      dup2\n      lt\n      tag_100\n      jumpi\n      tag_101\n      tag_73\n      jump\t// in\n    tag_101:\n    tag_100:\n      0x20\n      mul\n      0x20\n      add\n      add\n        /* \"contracts/voting.sol\":4620:4645  options[i] = p.options[i] */\n      dup2\n      swap1\n      mstore\n      pop\n        /* \"contracts/voting.sol\":4672:4673  p */\n      dup3\n        /* \"contracts/voting.sol\":4672:4679  p.votes */\n      0x02\n      add\n        /* \"contracts/voting.sol\":4680:4681  i */\n      dup2\n        /* \"contracts/voting.sol\":4672:4682  p.votes[i] */\n      dup2\n      sload\n      dup2\n      lt\n      tag_102\n      jumpi\n      tag_103\n      tag_73\n      jump\t// in\n    tag_103:\n    tag_102:\n      swap1\n      0x00\n      mstore\n      keccak256(0x00, 0x20)\n      add\n      sload\n        /* \"contracts/voting.sol\":4659:4664  votes */\n      dup6\n        /* \"contracts/voting.sol\":4665:4666  i */\n      dup3\n        /* \"contracts/voting.sol\":4659:4667  votes[i] */\n      dup2\n      mload\n      dup2\n      lt\n      tag_105\n      jumpi\n      tag_106\n      tag_73\n      jump\t// in\n    tag_106:\n    tag_105:\n      0x20\n      mul\n      0x20\n      add\n      add\n        /* \"contracts/voting.sol\":4659:4682  votes[i]   = p.votes[i] */\n      dup2\n      dup2\n      mstore\n      pop\n      pop\n        /* \"contracts/voting.sol\":4601:4604  i++ */\n      dup1\n      dup1\n      0x01\n      add\n      swap2\n      pop\n      pop\n        /* \"contracts/voting.sol\":4574:4693  for (uint256 i = 0; i < n; i++) {... */\n      jump(tag_89)\n    tag_90:\n      pop\n        /* \"contracts/voting.sol\":4300:4699  {... */\n      pop\n      pop\n        /* \"contracts/voting.sol\":4130:4699  function getPoll(uint256 pollId)... */\n      swap2\n      swap4\n      pop\n      swap2\n      swap4\n      jump\t// out\n        /* \"contracts/voting.sol\":4891:5075  function hasVoted(uint256 pollId, address voter) external view returns (bool) {... */\n    tag_29:\n        /* \"contracts/voting.sol\":4963:4967  bool */\n      0x00\n        /* \"contracts/voting.sol\":4996:5002  _polls */\n      0x02\n        /* \"contracts/voting.sol\":4996:5009  _polls.length */\n      dup1\n      sload\n      swap1\n      pop\n        /* \"contracts/voting.sol\":4987:4993  pollId */\n      dup4\n        /* \"contracts/voting.sol\":4987:5009  pollId < _polls.length */\n      lt\n        /* \"contracts/voting.sol\":4979:5024  require(pollId < _polls.length, \"Bad pollId\") */\n      tag_108\n      jumpi\n      mload(0x40)\n      0x08c379a000000000000000000000000000000000000000000000000000000000\n      dup2\n      mstore\n      0x04\n      add\n      tag_109\n      swap1\n      tag_70\n      jump\t// in\n    tag_109:\n      mload(0x40)\n      dup1\n      swap2\n      sub\n      swap1\n      revert\n    tag_108:\n        /* \"contracts/voting.sol\":5041:5047  _polls */\n      0x02\n        /* \"contracts/voting.sol\":5048:5054  pollId */\n      dup4\n        /* \"contracts/voting.sol\":5041:5055  _polls[pollId] */\n      dup2\n      sload\n      dup2\n      lt\n      tag_110\n      jumpi\n      tag_111\n      tag_73\n      jump\t// in\n    tag_111:\n    tag_110:\n      swap1\n      0x00\n      mstore\n      keccak256(0x00, 0x20)\n      swap1\n      0x05\n      mul\n      add\n        /* \"contracts/voting.sol\":5041:5061  _polls[pollId].voted */\n      0x04\n      add\n        /* \"contracts/voting.sol\":5041:5068  _polls[pollId].voted[voter] */\n      0x00\n        /* \"contracts/voting.sol\":5062:5067  voter */\n      dup4\n        /* \"contracts/voting.sol\":5041:5068  _polls[pollId].voted[voter] */\n      0xffffffffffffffffffffffffffffffffffffffff\n      and\n      0xffffffffffffffffffffffffffffffffffffffff\n      and\n      dup2\n      mstore\n      0x20\n      add\n      swap1\n      dup2\n      mstore\n      0x20\n      add\n      0x00\n      keccak256\n      0x00\n      swap1\n      sload\n      swap1\n      0x0100\n      exp\n      swap1\n      div\n      0xff\n      and\n        /* \"contracts/voting.sol\":5034:5068  return _polls[pollId].voted[voter] */\n      swap1\n      pop\n        /* \"contracts/voting.sol\":4891:5075  function hasVoted(uint256 pollId, address voter) external view returns (bool) {... */\n      swap3\n      swap2\n      pop\n      pop\n      jump\t// out\n        /* \"contracts/voting.sol\":2359:3077  function createPoll(string calldata question, string[] calldata options)... */\n    tag_35:\n        /* \"contracts/voting.sol\":2489:2503  uint256 pollId */\n      0x00\n        /* \"contracts/voting.sol\":1207:1219  isInstructor */\n      0x01\n        /* \"contracts/voting.sol\":1207:1231  isInstructor[msg.sender] */\n      0x00\n        /* \"contracts/voting.sol\":1220:1230  msg.sender */\n      caller\n        /* \"contracts/voting.sol\":1207:1231  isInstructor[msg.sender] */\n      0xffffffffffffffffffffffffffffffffffffffff\n      and\n      0xffffffffffffffffffffffffffffffffffffffff\n      and\n      dup2\n      mstore\n      0x20\n      add\n      swap1\n      dup2\n      mstore\n      0x20\n      add\n      0x00\n      keccak256\n      0x00\n      swap1\n      sload\n      swap1\n      0x0100\n      exp\n      swap1\n      div\n      0xff\n      and\n        /* \"contracts/voting.sol\":1199:1250  require(isInstructor[msg.sender], \"Not instructor\") */\n      tag_114\n      jumpi\n      mload(0x40)\n      0x08c379a000000000000000000000000000000000000000000000000000000000\n      dup2\n      mstore\n      0x04\n      add\n      tag_115\n      swap1\n      tag_116\n      jump\t// in\n    tag_115:\n      mload(0x40)\n      dup1\n      swap2\n      sub\n      swap1\n      revert\n    tag_114:\n        /* \"contracts/voting.sol\":2552:2553  0 */\n      0x00\n        /* \"contracts/voting.sol\":2533:2541  question */\n      dup6\n      dup6\n        /* \"contracts/voting.sol\":2527:2549  bytes(question).length */\n      swap1\n      pop\n        /* \"contracts/voting.sol\":2527:2553  bytes(question).length > 0 */\n      gt\n        /* \"contracts/voting.sol\":2519:2572  require(bytes(question).length > 0, \"Empty question\") */\n      tag_118\n      jumpi\n      mload(0x40)\n      0x08c379a000000000000000000000000000000000000000000000000000000000\n      dup2\n      mstore\n      0x04\n      add\n      tag_119\n      swap1\n      tag_120\n      jump\t// in\n    tag_119:\n      mload(0x40)\n      dup1\n      swap2\n      sub\n      swap1\n      revert\n    tag_118:\n        /* \"contracts/voting.sol\":2608:2609  2 */\n      0x02\n        /* \"contracts/voting.sol\":2590:2597  options */\n      dup4\n      dup4\n        /* \"contracts/voting.sol\":2590:2604  options.length */\n      swap1\n      pop\n        /* \"contracts/voting.sol\":2590:2609  options.length >= 2 */\n      lt\n      iszero\n        /* \"contracts/voting.sol\":2590:2633  options.length >= 2 && options.length <= 10 */\n      dup1\n      iszero\n      tag_121\n      jumpi\n      pop\n        /* \"contracts/voting.sol\":2631:2633  10 */\n      0x0a\n        /* \"contracts/voting.sol\":2613:2620  options */\n      dup4\n      dup4\n        /* \"contracts/voting.sol\":2613:2627  options.length */\n      swap1\n      pop\n        /* \"contracts/voting.sol\":2613:2633  options.length <= 10 */\n      gt\n      iszero\n        /* \"contracts/voting.sol\":2590:2633  options.length >= 2 && options.length <= 10 */\n    tag_121:\n        /* \"contracts/voting.sol\":2582:2655  require(options.length >= 2 && options.length <= 10, \"Need 2-10 options\") */\n      tag_122\n      jumpi\n      mload(0x40)\n      0x08c379a000000000000000000000000000000000000000000000000000000000\n      dup2\n      mstore\n      0x04\n      add\n      tag_123\n      swap1\n      tag_124\n      jump\t// in\n    tag_123:\n      mload(0x40)\n      dup1\n      swap2\n      sub\n      swap1\n      revert\n    tag_122:\n        /* \"contracts/voting.sol\":2666:2672  _polls */\n      0x02\n        /* \"contracts/voting.sol\":2666:2679  _polls.push() */\n      0x01\n      dup2\n      0x01\n      dup2\n      sload\n      add\n      dup1\n      dup3\n      sstore\n      dup1\n      swap2\n      pop\n      pop\n      sub\n      swap1\n      0x00\n      mstore\n      keccak256(0x00, 0x20)\n      swap1\n      pop\n      pop\n        /* \"contracts/voting.sol\":2714:2715  1 */\n      0x01\n        /* \"contracts/voting.sol\":2698:2704  _polls */\n      0x02\n        /* \"contracts/voting.sol\":2698:2711  _polls.length */\n      dup1\n      sload\n      swap1\n      pop\n        /* \"contracts/voting.sol\":2698:2715  _polls.length - 1 */\n      tag_126\n      swap2\n      swap1\n      tag_127\n      jump\t// in\n    tag_126:\n        /* \"contracts/voting.sol\":2689:2715  pollId = _polls.length - 1 */\n      swap1\n      pop\n        /* \"contracts/voting.sol\":2725:2739  Poll storage p */\n      0x00\n        /* \"contracts/voting.sol\":2742:2748  _polls */\n      0x02\n        /* \"contracts/voting.sol\":2749:2755  pollId */\n      dup3\n        /* \"contracts/voting.sol\":2742:2756  _polls[pollId] */\n      dup2\n      sload\n      dup2\n      lt\n      tag_128\n      jumpi\n      tag_129\n      tag_73\n      jump\t// in\n    tag_129:\n    tag_128:\n      swap1\n      0x00\n      mstore\n      keccak256(0x00, 0x20)\n      swap1\n      0x05\n      mul\n      add\n        /* \"contracts/voting.sol\":2725:2756  Poll storage p = _polls[pollId] */\n      swap1\n      pop\n        /* \"contracts/voting.sol\":2779:2787  question */\n      dup6\n      dup6\n        /* \"contracts/voting.sol\":2766:2767  p */\n      dup3\n        /* \"contracts/voting.sol\":2766:2776  p.question */\n      0x00\n      add\n        /* \"contracts/voting.sol\":2766:2787  p.question = question */\n      swap2\n      dup3\n      tag_131\n      swap3\n      swap2\n      swap1\n      tag_132\n      jump\t// in\n    tag_131:\n      pop\n        /* \"contracts/voting.sol\":2808:2812  true */\n      0x01\n        /* \"contracts/voting.sol\":2797:2798  p */\n      dup2\n        /* \"contracts/voting.sol\":2797:2805  p.isOpen */\n      0x03\n      add\n      0x00\n        /* \"contracts/voting.sol\":2797:2812  p.isOpen = true */\n      0x0100\n      exp\n      dup2\n      sload\n      dup2\n      0xff\n      mul\n      not\n      and\n      swap1\n      dup4\n      iszero\n      iszero\n      mul\n      or\n      swap1\n      sstore\n      pop\n        /* \"contracts/voting.sol\":2828:2837  uint256 i */\n      0x00\n        /* \"contracts/voting.sol\":2840:2841  0 */\n      0x00\n        /* \"contracts/voting.sol\":2828:2841  uint256 i = 0 */\n      swap1\n      pop\n        /* \"contracts/voting.sol\":2823:3015  for (uint256 i = 0; i < options.length; i++) {... */\n    tag_133:\n        /* \"contracts/voting.sol\":2847:2854  options */\n      dup5\n      dup5\n        /* \"contracts/voting.sol\":2847:2861  options.length */\n      swap1\n      pop\n        /* \"contracts/voting.sol\":2843:2844  i */\n      dup2\n        /* \"contracts/voting.sol\":2843:2861  i < options.length */\n      lt\n        /* \"contracts/voting.sol\":2823:3015  for (uint256 i = 0; i < options.length; i++) {... */\n      iszero\n      tag_134\n      jumpi\n        /* \"contracts/voting.sol\":2917:2918  0 */\n      0x00\n        /* \"contracts/voting.sol\":2896:2903  options */\n      dup6\n      dup6\n        /* \"contracts/voting.sol\":2904:2905  i */\n      dup4\n        /* \"contracts/voting.sol\":2896:2906  options[i] */\n      dup2\n      dup2\n      lt\n      tag_136\n      jumpi\n      tag_137\n      tag_73\n      jump\t// in\n    tag_137:\n    tag_136:\n      swap1\n      pop\n      0x20\n      mul\n      dup2\n      add\n      swap1\n      tag_138\n      swap2\n      swap1\n      tag_139\n      jump\t// in\n    tag_138:\n        /* \"contracts/voting.sol\":2890:2914  bytes(options[i]).length */\n      swap1\n      pop\n        /* \"contracts/voting.sol\":2890:2918  bytes(options[i]).length > 0 */\n      gt\n        /* \"contracts/voting.sol\":2882:2935  require(bytes(options[i]).length > 0, \"Empty option\") */\n      tag_140\n      jumpi\n      mload(0x40)\n      0x08c379a000000000000000000000000000000000000000000000000000000000\n      dup2\n      mstore\n      0x04\n      add\n      tag_141\n      swap1\n      tag_142\n      jump\t// in\n    tag_141:\n      mload(0x40)\n      dup1\n      swap2\n      sub\n      swap1\n      revert\n    tag_140:\n        /* \"contracts/voting.sol\":2949:2950  p */\n      dup2\n        /* \"contracts/voting.sol\":2949:2958  p.options */\n      0x01\n      add\n        /* \"contracts/voting.sol\":2964:2971  options */\n      dup6\n      dup6\n        /* \"contracts/voting.sol\":2972:2973  i */\n      dup4\n        /* \"contracts/voting.sol\":2964:2974  options[i] */\n      dup2\n      dup2\n      lt\n      tag_143\n      jumpi\n      tag_144\n      tag_73\n      jump\t// in\n    tag_144:\n    tag_143:\n      swap1\n      pop\n      0x20\n      mul\n      dup2\n      add\n      swap1\n      tag_145\n      swap2\n      swap1\n      tag_139\n      jump\t// in\n    tag_145:\n        /* \"contracts/voting.sol\":2949:2975  p.options.push(options[i]) */\n      swap1\n      swap2\n      dup1\n      0x01\n      dup2\n      sload\n      add\n      dup1\n      dup3\n      sstore\n      dup1\n      swap2\n      pop\n      pop\n      0x01\n      swap1\n      sub\n      swap1\n      0x00\n      mstore\n      keccak256(0x00, 0x20)\n      add\n      0x00\n      swap1\n      swap2\n      swap3\n      swap1\n      swap2\n      swap3\n      swap1\n      swap2\n      swap3\n      swap1\n      swap2\n      swap3\n      pop\n      swap2\n      dup3\n      tag_147\n      swap3\n      swap2\n      swap1\n      tag_132\n      jump\t// in\n    tag_147:\n      pop\n        /* \"contracts/voting.sol\":2989:2990  p */\n      dup2\n        /* \"contracts/voting.sol\":2989:2996  p.votes */\n      0x02\n      add\n        /* \"contracts/voting.sol\":3002:3003  0 */\n      0x00\n        /* \"contracts/voting.sol\":2989:3004  p.votes.push(0) */\n      swap1\n      dup1\n      0x01\n      dup2\n      sload\n      add\n      dup1\n      dup3\n      sstore\n      dup1\n      swap2\n      pop\n      pop\n      0x01\n      swap1\n      sub\n      swap1\n      0x00\n      mstore\n      keccak256(0x00, 0x20)\n      add\n      0x00\n      swap1\n      swap2\n      swap1\n      swap2\n      swap1\n      swap2\n      pop\n      sstore\n        /* \"contracts/voting.sol\":2863:2866  i++ */\n      dup1\n      dup1\n      0x01\n      add\n      swap2\n      pop\n      pop\n        /* \"contracts/voting.sol\":2823:3015  for (uint256 i = 0; i < options.length; i++) {... */\n      jump(tag_133)\n    tag_134:\n      pop\n        /* \"contracts/voting.sol\":3042:3048  pollId */\n      dup2\n        /* \"contracts/voting.sol\":3030:3070  PollCreated(pollId, question, p.options) */\n      0x4be3f505bf50604bde92e6940e2df40c36f90cb362640413d520080ca12eabb2\n        /* \"contracts/voting.sol\":3050:3058  question */\n      dup8\n      dup8\n        /* \"contracts/voting.sol\":3060:3061  p */\n      dup5\n        /* \"contracts/voting.sol\":3060:3069  p.options */\n      0x01\n      add\n        /* \"contracts/voting.sol\":3030:3070  PollCreated(pollId, question, p.options) */\n      mload(0x40)\n      tag_149\n      swap4\n      swap3\n      swap2\n      swap1\n      tag_150\n      jump\t// in\n    tag_149:\n      mload(0x40)\n      dup1\n      swap2\n      sub\n      swap1\n      log2\n        /* \"contracts/voting.sol\":2509:3077  {... */\n      pop\n        /* \"contracts/voting.sol\":2359:3077  function createPoll(string calldata question, string[] calldata options)... */\n      swap5\n      swap4\n      pop\n      pop\n      pop\n      pop\n      jump\t// out\n        /* \"contracts/voting.sol\":247:267  address public owner */\n    tag_38:\n      0x00\n      0x00\n      swap1\n      sload\n      swap1\n      0x0100\n      exp\n      swap1\n      div\n      0xffffffffffffffffffffffffffffffffffffffff\n      and\n      dup2\n      jump\t// out\n        /* \"contracts/voting.sol\":3083:3349  function closePoll(uint256 pollId) external onlyInstructor {... */\n    tag_43:\n        /* \"contracts/voting.sol\":1207:1219  isInstructor */\n      0x01\n        /* \"contracts/voting.sol\":1207:1231  isInstructor[msg.sender] */\n      0x00\n        /* \"contracts/voting.sol\":1220:1230  msg.sender */\n      caller\n        /* \"contracts/voting.sol\":1207:1231  isInstructor[msg.sender] */\n      0xffffffffffffffffffffffffffffffffffffffff\n      and\n      0xffffffffffffffffffffffffffffffffffffffff\n      and\n      dup2\n      mstore\n      0x20\n      add\n      swap1\n      dup2\n      mstore\n      0x20\n      add\n      0x00\n      keccak256\n      0x00\n      swap1\n      sload\n      swap1\n      0x0100\n      exp\n      swap1\n      div\n      0xff\n      and\n        /* \"contracts/voting.sol\":1199:1250  require(isInstructor[msg.sender], \"Not instructor\") */\n      tag_152\n      jumpi\n      mload(0x40)\n      0x08c379a000000000000000000000000000000000000000000000000000000000\n      dup2\n      mstore\n      0x04\n      add\n      tag_153\n      swap1\n      tag_116\n      jump\t// in\n    tag_153:\n      mload(0x40)\n      dup1\n      swap2\n      sub\n      swap1\n      revert\n    tag_152:\n        /* \"contracts/voting.sol\":3169:3175  _polls */\n      0x02\n        /* \"contracts/voting.sol\":3169:3182  _polls.length */\n      dup1\n      sload\n      swap1\n      pop\n        /* \"contracts/voting.sol\":3160:3166  pollId */\n      dup2\n        /* \"contracts/voting.sol\":3160:3182  pollId < _polls.length */\n      lt\n        /* \"contracts/voting.sol\":3152:3197  require(pollId < _polls.length, \"Bad pollId\") */\n      tag_155\n      jumpi\n      mload(0x40)\n      0x08c379a000000000000000000000000000000000000000000000000000000000\n      dup2\n      mstore\n      0x04\n      add\n      tag_156\n      swap1\n      tag_70\n      jump\t// in\n    tag_156:\n      mload(0x40)\n      dup1\n      swap2\n      sub\n      swap1\n      revert\n    tag_155:\n        /* \"contracts/voting.sol\":3207:3221  Poll storage p */\n      0x00\n        /* \"contracts/voting.sol\":3224:3230  _polls */\n      0x02\n        /* \"contracts/voting.sol\":3231:3237  pollId */\n      dup3\n        /* \"contracts/voting.sol\":3224:3238  _polls[pollId] */\n      dup2\n      sload\n      dup2\n      lt\n      tag_157\n      jumpi\n      tag_158\n      tag_73\n      jump\t// in\n    tag_158:\n    tag_157:\n      swap1\n      0x00\n      mstore\n      keccak256(0x00, 0x20)\n      swap1\n      0x05\n      mul\n      add\n        /* \"contracts/voting.sol\":3207:3238  Poll storage p = _polls[pollId] */\n      swap1\n      pop\n        /* \"contracts/voting.sol\":3256:3257  p */\n      dup1\n        /* \"contracts/voting.sol\":3256:3264  p.isOpen */\n      0x03\n      add\n      0x00\n      swap1\n      sload\n      swap1\n      0x0100\n      exp\n      swap1\n      div\n      0xff\n      and\n        /* \"contracts/voting.sol\":3248:3283  require(p.isOpen, \"Already closed\") */\n      tag_160\n      jumpi\n      mload(0x40)\n      0x08c379a000000000000000000000000000000000000000000000000000000000\n      dup2\n      mstore\n      0x04\n      add\n      tag_161\n      swap1\n      tag_162\n      jump\t// in\n    tag_161:\n      mload(0x40)\n      dup1\n      swap2\n      sub\n      swap1\n      revert\n    tag_160:\n        /* \"contracts/voting.sol\":3304:3309  false */\n      0x00\n        /* \"contracts/voting.sol\":3293:3294  p */\n      dup2\n        /* \"contracts/voting.sol\":3293:3301  p.isOpen */\n      0x03\n      add\n      0x00\n        /* \"contracts/voting.sol\":3293:3309  p.isOpen = false */\n      0x0100\n      exp\n      dup2\n      sload\n      dup2\n      0xff\n      mul\n      not\n      and\n      swap1\n      dup4\n      iszero\n      iszero\n      mul\n      or\n      swap1\n      sstore\n      pop\n        /* \"contracts/voting.sol\":3335:3341  pollId */\n      dup2\n        /* \"contracts/voting.sol\":3324:3342  PollClosed(pollId) */\n      0x703c67c157a1afb7d386ce5212ee88bf0a690bca998060e9595ebdfd747100ce\n      mload(0x40)\n      mload(0x40)\n      dup1\n      swap2\n      sub\n      swap1\n      log2\n        /* \"contracts/voting.sol\":3142:3349  {... */\n      pop\n        /* \"contracts/voting.sol\":3083:3349  function closePoll(uint256 pollId) external onlyInstructor {... */\n      pop\n      jump\t// out\n        /* \"contracts/voting.sol\":1542:1749  function removeInstructor(address account) external onlyOwner {... */\n    tag_47:\n        /* \"contracts/voting.sol\":416:421  owner */\n      0x00\n      0x00\n      swap1\n      sload\n      swap1\n      0x0100\n      exp\n      swap1\n      div\n      0xffffffffffffffffffffffffffffffffffffffff\n      and\n        /* \"contracts/voting.sol\":402:421  msg.sender == owner */\n      0xffffffffffffffffffffffffffffffffffffffff\n      and\n        /* \"contracts/voting.sol\":402:412  msg.sender */\n      caller\n        /* \"contracts/voting.sol\":402:421  msg.sender == owner */\n      0xffffffffffffffffffffffffffffffffffffffff\n      and\n      eq\n        /* \"contracts/voting.sol\":394:435  require(msg.sender == owner, \"Not owner\") */\n      tag_164\n      jumpi\n      mload(0x40)\n      0x08c379a000000000000000000000000000000000000000000000000000000000\n      dup2\n      mstore\n      0x04\n      add\n      tag_165\n      swap1\n      tag_166\n      jump\t// in\n    tag_165:\n      mload(0x40)\n      dup1\n      swap2\n      sub\n      swap1\n      revert\n    tag_164:\n        /* \"contracts/voting.sol\":1622:1634  isInstructor */\n      0x01\n        /* \"contracts/voting.sol\":1622:1643  isInstructor[account] */\n      0x00\n        /* \"contracts/voting.sol\":1635:1642  account */\n      dup3\n        /* \"contracts/voting.sol\":1622:1643  isInstructor[account] */\n      0xffffffffffffffffffffffffffffffffffffffff\n      and\n      0xffffffffffffffffffffffffffffffffffffffff\n      and\n      dup2\n      mstore\n      0x20\n      add\n      swap1\n      dup2\n      mstore\n      0x20\n      add\n      0x00\n      keccak256\n      0x00\n      swap1\n      sload\n      swap1\n      0x0100\n      exp\n      swap1\n      div\n      0xff\n      and\n        /* \"contracts/voting.sol\":1614:1662  require(isInstructor[account], \"Not instructor\") */\n      tag_168\n      jumpi\n      mload(0x40)\n      0x08c379a000000000000000000000000000000000000000000000000000000000\n      dup2\n      mstore\n      0x04\n      add\n      tag_169\n      swap1\n      tag_116\n      jump\t// in\n    tag_169:\n      mload(0x40)\n      dup1\n      swap2\n      sub\n      swap1\n      revert\n    tag_168:\n        /* \"contracts/voting.sol\":1696:1701  false */\n      0x00\n        /* \"contracts/voting.sol\":1672:1684  isInstructor */\n      0x01\n        /* \"contracts/voting.sol\":1672:1693  isInstructor[account] */\n      0x00\n        /* \"contracts/voting.sol\":1685:1692  account */\n      dup4\n        /* \"contracts/voting.sol\":1672:1693  isInstructor[account] */\n      0xffffffffffffffffffffffffffffffffffffffff\n      and\n      0xffffffffffffffffffffffffffffffffffffffff\n      and\n      dup2\n      mstore\n      0x20\n      add\n      swap1\n      dup2\n      mstore\n      0x20\n      add\n      0x00\n      keccak256\n      0x00\n        /* \"contracts/voting.sol\":1672:1701  isInstructor[account] = false */\n      0x0100\n      exp\n      dup2\n      sload\n      dup2\n      0xff\n      mul\n      not\n      and\n      swap1\n      dup4\n      iszero\n      iszero\n      mul\n      or\n      swap1\n      sstore\n      pop\n        /* \"contracts/voting.sol\":1734:1741  account */\n      dup1\n        /* \"contracts/voting.sol\":1716:1742  InstructorRemoved(account) */\n      0xffffffffffffffffffffffffffffffffffffffff\n      and\n      0x58b33451e693031c89aac54fdebcb185754a62bc399db605a6a5bb0fac67373f\n      mload(0x40)\n      mload(0x40)\n      dup1\n      swap2\n      sub\n      swap1\n      log2\n        /* \"contracts/voting.sol\":1542:1749  function removeInstructor(address account) external onlyOwner {... */\n      pop\n      jump\t// out\n        /* \"contracts/voting.sol\":1006:1050  mapping(address => bool) public isInstructor */\n    tag_50:\n      mstore(0x20, 0x01)\n      dup1\n      0x00\n      mstore\n      keccak256(0x00, 0x40)\n      0x00\n      swap2\n      pop\n      sload\n      swap1\n      0x0100\n      exp\n      swap1\n      div\n      0xff\n      and\n      dup2\n      jump\t// out\n        /* \"contracts/voting.sol\":3464:3917  function vote(uint256 pollId, uint256 optionIndex) external {... */\n    tag_55:\n        /* \"contracts/voting.sol\":3551:3557  _polls */\n      0x02\n        /* \"contracts/voting.sol\":3551:3564  _polls.length */\n      dup1\n      sload\n      swap1\n      pop\n        /* \"contracts/voting.sol\":3542:3548  pollId */\n      dup3\n        /* \"contracts/voting.sol\":3542:3564  pollId < _polls.length */\n      lt\n        /* \"contracts/voting.sol\":3534:3579  require(pollId < _polls.length, \"Bad pollId\") */\n      tag_171\n      jumpi\n      mload(0x40)\n      0x08c379a000000000000000000000000000000000000000000000000000000000\n      dup2\n      mstore\n      0x04\n      add\n      tag_172\n      swap1\n      tag_70\n      jump\t// in\n    tag_172:\n      mload(0x40)\n      dup1\n      swap2\n      sub\n      swap1\n      revert\n    tag_171:\n        /* \"contracts/voting.sol\":3589:3603  Poll storage p */\n      0x00\n        /* \"contracts/voting.sol\":3606:3612  _polls */\n      0x02\n        /* \"contracts/voting.sol\":3613:3619  pollId */\n      dup4\n        /* \"contracts/voting.sol\":3606:3620  _polls[pollId] */\n      dup2\n      sload\n      dup2\n      lt\n      tag_173\n      jumpi\n      tag_174\n      tag_73\n      jump\t// in\n    tag_174:\n    tag_173:\n      swap1\n      0x00\n      mstore\n      keccak256(0x00, 0x20)\n      swap1\n      0x05\n      mul\n      add\n        /* \"contracts/voting.sol\":3589:3620  Poll storage p = _polls[pollId] */\n      swap1\n      pop\n        /* \"contracts/voting.sol\":3638:3639  p */\n      dup1\n        /* \"contracts/voting.sol\":3638:3646  p.isOpen */\n      0x03\n      add\n      0x00\n      swap1\n      sload\n      swap1\n      0x0100\n      exp\n      swap1\n      div\n      0xff\n      and\n        /* \"contracts/voting.sol\":3630:3662  require(p.isOpen, \"Poll closed\") */\n      tag_176\n      jumpi\n      mload(0x40)\n      0x08c379a000000000000000000000000000000000000000000000000000000000\n      dup2\n      mstore\n      0x04\n      add\n      tag_177\n      swap1\n      tag_178\n      jump\t// in\n    tag_177:\n      mload(0x40)\n      dup1\n      swap2\n      sub\n      swap1\n      revert\n    tag_176:\n        /* \"contracts/voting.sol\":3694:3695  p */\n      dup1\n        /* \"contracts/voting.sol\":3694:3703  p.options */\n      0x01\n      add\n        /* \"contracts/voting.sol\":3694:3710  p.options.length */\n      dup1\n      sload\n      swap1\n      pop\n        /* \"contracts/voting.sol\":3680:3691  optionIndex */\n      dup3\n        /* \"contracts/voting.sol\":3680:3710  optionIndex < p.options.length */\n      lt\n        /* \"contracts/voting.sol\":3672:3725  require(optionIndex < p.options.length, \"Bad option\") */\n      tag_179\n      jumpi\n      mload(0x40)\n      0x08c379a000000000000000000000000000000000000000000000000000000000\n      dup2\n      mstore\n      0x04\n      add\n      tag_180\n      swap1\n      tag_181\n      jump\t// in\n    tag_180:\n      mload(0x40)\n      dup1\n      swap2\n      sub\n      swap1\n      revert\n    tag_179:\n        /* \"contracts/voting.sol\":3744:3745  p */\n      dup1\n        /* \"contracts/voting.sol\":3744:3751  p.voted */\n      0x04\n      add\n        /* \"contracts/voting.sol\":3744:3763  p.voted[msg.sender] */\n      0x00\n        /* \"contracts/voting.sol\":3752:3762  msg.sender */\n      caller\n        /* \"contracts/voting.sol\":3744:3763  p.voted[msg.sender] */\n      0xffffffffffffffffffffffffffffffffffffffff\n      and\n      0xffffffffffffffffffffffffffffffffffffffff\n      and\n      dup2\n      mstore\n      0x20\n      add\n      swap1\n      dup2\n      mstore\n      0x20\n      add\n      0x00\n      keccak256\n      0x00\n      swap1\n      sload\n      swap1\n      0x0100\n      exp\n      swap1\n      div\n      0xff\n      and\n        /* \"contracts/voting.sol\":3743:3763  !p.voted[msg.sender] */\n      iszero\n        /* \"contracts/voting.sol\":3735:3781  require(!p.voted[msg.sender], \"Already voted\") */\n      tag_182\n      jumpi\n      mload(0x40)\n      0x08c379a000000000000000000000000000000000000000000000000000000000\n      dup2\n      mstore\n      0x04\n      add\n      tag_183\n      swap1\n      tag_184\n      jump\t// in\n    tag_183:\n      mload(0x40)\n      dup1\n      swap2\n      sub\n      swap1\n      revert\n    tag_182:\n        /* \"contracts/voting.sol\":3814:3818  true */\n      0x01\n        /* \"contracts/voting.sol\":3792:3793  p */\n      dup2\n        /* \"contracts/voting.sol\":3792:3799  p.voted */\n      0x04\n      add\n        /* \"contracts/voting.sol\":3792:3811  p.voted[msg.sender] */\n      0x00\n        /* \"contracts/voting.sol\":3800:3810  msg.sender */\n      caller\n        /* \"contracts/voting.sol\":3792:3811  p.voted[msg.sender] */\n      0xffffffffffffffffffffffffffffffffffffffff\n      and\n      0xffffffffffffffffffffffffffffffffffffffff\n      and\n      dup2\n      mstore\n      0x20\n      add\n      swap1\n      dup2\n      mstore\n      0x20\n      add\n      0x00\n      keccak256\n      0x00\n        /* \"contracts/voting.sol\":3792:3818  p.voted[msg.sender] = true */\n      0x0100\n      exp\n      dup2\n      sload\n      dup2\n      0xff\n      mul\n      not\n      and\n      swap1\n      dup4\n      iszero\n      iszero\n      mul\n      or\n      swap1\n      sstore\n      pop\n        /* \"contracts/voting.sol\":3852:3853  1 */\n      0x01\n        /* \"contracts/voting.sol\":3828:3829  p */\n      dup2\n        /* \"contracts/voting.sol\":3828:3835  p.votes */\n      0x02\n      add\n        /* \"contracts/voting.sol\":3836:3847  optionIndex */\n      dup4\n        /* \"contracts/voting.sol\":3828:3848  p.votes[optionIndex] */\n      dup2\n      sload\n      dup2\n      lt\n      tag_185\n      jumpi\n      tag_186\n      tag_73\n      jump\t// in\n    tag_186:\n    tag_185:\n      swap1\n      0x00\n      mstore\n      keccak256(0x00, 0x20)\n      add\n      0x00\n        /* \"contracts/voting.sol\":3828:3853  p.votes[optionIndex] += 1 */\n      dup3\n      dup3\n      sload\n      tag_188\n      swap2\n      swap1\n      tag_189\n      jump\t// in\n    tag_188:\n      swap3\n      pop\n      pop\n      dup2\n      swap1\n      sstore\n      pop\n        /* \"contracts/voting.sol\":3886:3896  msg.sender */\n      caller\n        /* \"contracts/voting.sol\":3869:3910  VoteCast(pollId, msg.sender, optionIndex) */\n      0xffffffffffffffffffffffffffffffffffffffff\n      and\n        /* \"contracts/voting.sol\":3878:3884  pollId */\n      dup4\n        /* \"contracts/voting.sol\":3869:3910  VoteCast(pollId, msg.sender, optionIndex) */\n      0x2acce567deca3aabf56327adbb4524bd5318936eaefa69e3a5208ffda0cfec09\n        /* \"contracts/voting.sol\":3898:3909  optionIndex */\n      dup5\n        /* \"contracts/voting.sol\":3869:3910  VoteCast(pollId, msg.sender, optionIndex) */\n      mload(0x40)\n      tag_190\n      swap2\n      swap1\n      tag_19\n      jump\t// in\n    tag_190:\n      mload(0x40)\n      dup1\n      swap2\n      sub\n      swap1\n      log3\n        /* \"contracts/voting.sol\":3524:3917  {... */\n      pop\n        /* \"contracts/voting.sol\":3464:3917  function vote(uint256 pollId, uint256 optionIndex) external {... */\n      pop\n      pop\n      jump\t// out\n        /* \"contracts/voting.sol\":1274:1536  function addInstructor(address account) external onlyOwner {... */\n    tag_58:\n        /* \"contracts/voting.sol\":416:421  owner */\n      0x00\n      0x00\n      swap1\n      sload\n      swap1\n      0x0100\n      exp\n      swap1\n      div\n      0xffffffffffffffffffffffffffffffffffffffff\n      and\n        /* \"contracts/voting.sol\":402:421  msg.sender == owner */\n      0xffffffffffffffffffffffffffffffffffffffff\n      and\n        /* \"contracts/voting.sol\":402:412  msg.sender */\n      caller\n        /* \"contracts/voting.sol\":402:421  msg.sender == owner */\n      0xffffffffffffffffffffffffffffffffffffffff\n      and\n      eq\n        /* \"contracts/voting.sol\":394:435  require(msg.sender == owner, \"Not owner\") */\n      tag_192\n      jumpi\n      mload(0x40)\n      0x08c379a000000000000000000000000000000000000000000000000000000000\n      dup2\n      mstore\n      0x04\n      add\n      tag_193\n      swap1\n      tag_166\n      jump\t// in\n    tag_193:\n      mload(0x40)\n      dup1\n      swap2\n      sub\n      swap1\n      revert\n    tag_192:\n        /* \"contracts/voting.sol\":1370:1371  0 */\n      0x00\n        /* \"contracts/voting.sol\":1351:1372  account != address(0) */\n      0xffffffffffffffffffffffffffffffffffffffff\n      and\n        /* \"contracts/voting.sol\":1351:1358  account */\n      dup2\n        /* \"contracts/voting.sol\":1351:1372  account != address(0) */\n      0xffffffffffffffffffffffffffffffffffffffff\n      and\n      sub\n        /* \"contracts/voting.sol\":1343:1389  require(account != address(0), \"Zero address\") */\n      tag_195\n      jumpi\n      mload(0x40)\n      0x08c379a000000000000000000000000000000000000000000000000000000000\n      dup2\n      mstore\n      0x04\n      add\n      tag_196\n      swap1\n      tag_197\n      jump\t// in\n    tag_196:\n      mload(0x40)\n      dup1\n      swap2\n      sub\n      swap1\n      revert\n    tag_195:\n        /* \"contracts/voting.sol\":1408:1420  isInstructor */\n      0x01\n        /* \"contracts/voting.sol\":1408:1429  isInstructor[account] */\n      0x00\n        /* \"contracts/voting.sol\":1421:1428  account */\n      dup3\n        /* \"contracts/voting.sol\":1408:1429  isInstructor[account] */\n      0xffffffffffffffffffffffffffffffffffffffff\n      and\n      0xffffffffffffffffffffffffffffffffffffffff\n      and\n      dup2\n      mstore\n      0x20\n      add\n      swap1\n      dup2\n      mstore\n      0x20\n      add\n      0x00\n      keccak256\n      0x00\n      swap1\n      sload\n      swap1\n      0x0100\n      exp\n      swap1\n      div\n      0xff\n      and\n        /* \"contracts/voting.sol\":1407:1429  !isInstructor[account] */\n      iszero\n        /* \"contracts/voting.sol\":1399:1452  require(!isInstructor[account], \"Already instructor\") */\n      tag_198\n      jumpi\n      mload(0x40)\n      0x08c379a000000000000000000000000000000000000000000000000000000000\n      dup2\n      mstore\n      0x04\n      add\n      tag_199\n      swap1\n      tag_200\n      jump\t// in\n    tag_199:\n      mload(0x40)\n      dup1\n      swap2\n      sub\n      swap1\n      revert\n    tag_198:\n        /* \"contracts/voting.sol\":1486:1490  true */\n      0x01\n        /* \"contracts/voting.sol\":1462:1474  isInstructor */\n      dup1\n        /* \"contracts/voting.sol\":1462:1483  isInstructor[account] */\n      0x00\n        /* \"contracts/voting.sol\":1475:1482  account */\n      dup4\n        /* \"contracts/voting.sol\":1462:1483  isInstructor[account] */\n      0xffffffffffffffffffffffffffffffffffffffff\n      and\n      0xffffffffffffffffffffffffffffffffffffffff\n      and\n      dup2\n      mstore\n      0x20\n      add\n      swap1\n      dup2\n      mstore\n      0x20\n      add\n      0x00\n      keccak256\n      0x00\n        /* \"contracts/voting.sol\":1462:1490  isInstructor[account] = true */\n      0x0100\n      exp\n      dup2\n      sload\n      dup2\n      0xff\n      mul\n      not\n      and\n      swap1\n      dup4\n      iszero\n      iszero\n      mul\n      or\n      swap1\n      sstore\n      pop\n        /* \"contracts/voting.sol\":1521:1528  account */\n      dup1\n        /* \"contracts/voting.sol\":1505:1529  InstructorAdded(account) */\n      0xffffffffffffffffffffffffffffffffffffffff\n      and\n      0x0fd42d8e27c57b559503004be9fa8b7afc701e92663745556b34e1bc24c86e06\n      mload(0x40)\n      mload(0x40)\n      dup1\n      swap2\n      sub\n      swap1\n      log2\n        /* \"contracts/voting.sol\":1274:1536  function addInstructor(address account) external onlyOwner {... */\n      pop\n      jump\t// out\n        /* \"contracts/voting.sol\":4705:4885  function getOptionCount(uint256 pollId) external view returns (uint256) {... */\n    tag_61:\n        /* \"contracts/voting.sol\":4768:4775  uint256 */\n      0x00\n        /* \"contracts/voting.sol\":4804:4810  _polls */\n      0x02\n        /* \"contracts/voting.sol\":4804:4817  _polls.length */\n      dup1\n      sload\n      swap1\n      pop\n        /* \"contracts/voting.sol\":4795:4801  pollId */\n      dup3\n        /* \"contracts/voting.sol\":4795:4817  pollId < _polls.length */\n      lt\n        /* \"contracts/voting.sol\":4787:4832  require(pollId < _polls.length, \"Bad pollId\") */\n      tag_202\n      jumpi\n      mload(0x40)\n      0x08c379a000000000000000000000000000000000000000000000000000000000\n      dup2\n      mstore\n      0x04\n      add\n      tag_203\n      swap1\n      tag_70\n      jump\t// in\n    tag_203:\n      mload(0x40)\n      dup1\n      swap2\n      sub\n      swap1\n      revert\n    tag_202:\n        /* \"contracts/voting.sol\":4849:4855  _polls */\n      0x02\n        /* \"contracts/voting.sol\":4856:4862  pollId */\n      dup3\n        /* \"contracts/voting.sol\":4849:4863  _polls[pollId] */\n      dup2\n      sload\n      dup2\n      lt\n      tag_204\n      jumpi\n      tag_205\n      tag_73\n      jump\t// in\n    tag_205:\n    tag_204:\n      swap1\n      0x00\n      mstore\n      keccak256(0x00, 0x20)\n      swap1\n      0x05\n      mul\n      add\n        /* \"contracts/voting.sol\":4849:4871  _polls[pollId].options */\n      0x01\n      add\n        /* \"contracts/voting.sol\":4849:4878  _polls[pollId].options.length */\n      dup1\n      sload\n      swap1\n      pop\n        /* \"contracts/voting.sol\":4842:4878  return _polls[pollId].options.length */\n      swap1\n      pop\n        /* \"contracts/voting.sol\":4705:4885  function getOptionCount(uint256 pollId) external view returns (uint256) {... */\n      swap2\n      swap1\n      pop\n      jump\t// out\n        /* \"contracts/voting.sol\":704:910  function transferOwnership(address newOwner) external onlyOwner {... */\n    tag_65:\n        /* \"contracts/voting.sol\":416:421  owner */\n      0x00\n      0x00\n      swap1\n      sload\n      swap1\n      0x0100\n      exp\n      swap1\n      div\n      0xffffffffffffffffffffffffffffffffffffffff\n      and\n        /* \"contracts/voting.sol\":402:421  msg.sender == owner */\n      0xffffffffffffffffffffffffffffffffffffffff\n      and\n        /* \"contracts/voting.sol\":402:412  msg.sender */\n      caller\n        /* \"contracts/voting.sol\":402:421  msg.sender == owner */\n      0xffffffffffffffffffffffffffffffffffffffff\n      and\n      eq\n        /* \"contracts/voting.sol\":394:435  require(msg.sender == owner, \"Not owner\") */\n      tag_208\n      jumpi\n      mload(0x40)\n      0x08c379a000000000000000000000000000000000000000000000000000000000\n      dup2\n      mstore\n      0x04\n      add\n      tag_209\n      swap1\n      tag_166\n      jump\t// in\n    tag_209:\n      mload(0x40)\n      dup1\n      swap2\n      sub\n      swap1\n      revert\n    tag_208:\n        /* \"contracts/voting.sol\":806:807  0 */\n      0x00\n        /* \"contracts/voting.sol\":786:808  newOwner != address(0) */\n      0xffffffffffffffffffffffffffffffffffffffff\n      and\n        /* \"contracts/voting.sol\":786:794  newOwner */\n      dup2\n        /* \"contracts/voting.sol\":786:808  newOwner != address(0) */\n      0xffffffffffffffffffffffffffffffffffffffff\n      and\n      sub\n        /* \"contracts/voting.sol\":778:825  require(newOwner != address(0), \"Zero address\") */\n      tag_211\n      jumpi\n      mload(0x40)\n      0x08c379a000000000000000000000000000000000000000000000000000000000\n      dup2\n      mstore\n      0x04\n      add\n      tag_212\n      swap1\n      tag_197\n      jump\t// in\n    tag_212:\n      mload(0x40)\n      dup1\n      swap2\n      sub\n      swap1\n      revert\n    tag_211:\n        /* \"contracts/voting.sol\":868:876  newOwner */\n      dup1\n        /* \"contracts/voting.sol\":840:877  OwnershipTransferred(owner, newOwner) */\n      0xffffffffffffffffffffffffffffffffffffffff\n      and\n        /* \"contracts/voting.sol\":861:866  owner */\n      0x00\n      0x00\n      swap1\n      sload\n      swap1\n      0x0100\n      exp\n      swap1\n      div\n      0xffffffffffffffffffffffffffffffffffffffff\n      and\n        /* \"contracts/voting.sol\":840:877  OwnershipTransferred(owner, newOwner) */\n      0xffffffffffffffffffffffffffffffffffffffff\n      and\n      0x8be0079c531659141344cd1fd0a4f28419497f9722a3daafe3b4186f6b6457e0\n      mload(0x40)\n      mload(0x40)\n      dup1\n      swap2\n      sub\n      swap1\n      log3\n        /* \"contracts/voting.sol\":895:903  newOwner */\n      dup1\n        /* \"contracts/voting.sol\":887:892  owner */\n      0x00\n      0x00\n        /* \"contracts/voting.sol\":887:903  owner = newOwner */\n      0x0100\n      exp\n      dup2\n      sload\n      dup2\n      0xffffffffffffffffffffffffffffffffffffffff\n      mul\n      not\n      and\n      swap1\n      dup4\n      0xffffffffffffffffffffffffffffffffffffffff\n      and\n      mul\n      or\n      swap1\n      sstore\n      pop\n        /* \"contracts/voting.sol\":704:910  function transferOwnership(address newOwner) external onlyOwner {... */\n      pop\n      jump\t// out\n        /* \"#utility.yul\":7:84   */\n    tag_213:\n        /* \"#utility.yul\":44:51   */\n      0x00\n        /* \"#utility.yul\":73:78   */\n      dup2\n        /* \"#utility.yul\":62:78   */\n      swap1\n      pop\n        /* \"#utility.yul\":7:84   */\n      swap2\n      swap1\n      pop\n      jump\t// out\n        /* \"#utility.yul\":90:208   */\n    tag_214:\n        /* \"#utility.yul\":177:201   */\n      tag_308\n        /* \"#utility.yul\":195:200   */\n      dup2\n        /* \"#utility.yul\":177:201   */\n      tag_213\n      jump\t// in\n    tag_308:\n        /* \"#utility.yul\":172:175   */\n      dup3\n        /* \"#utility.yul\":165:202   */\n      mstore\n        /* \"#utility.yul\":90:208   */\n      pop\n      pop\n      jump\t// out\n        /* \"#utility.yul\":214:436   */\n    tag_19:\n        /* \"#utility.yul\":307:311   */\n      0x00\n        /* \"#utility.yul\":345:347   */\n      0x20\n        /* \"#utility.yul\":334:343   */\n      dup3\n        /* \"#utility.yul\":330:348   */\n      add\n        /* \"#utility.yul\":322:348   */\n      swap1\n      pop\n        /* \"#utility.yul\":358:429   */\n      tag_310\n        /* \"#utility.yul\":426:427   */\n      0x00\n        /* \"#utility.yul\":415:424   */\n      dup4\n        /* \"#utility.yul\":411:428   */\n      add\n        /* \"#utility.yul\":402:408   */\n      dup5\n        /* \"#utility.yul\":358:429   */\n      tag_214\n      jump\t// in\n    tag_310:\n        /* \"#utility.yul\":214:436   */\n      swap3\n      swap2\n      pop\n      pop\n      jump\t// out\n        /* \"#utility.yul\":523:640   */\n    tag_216:\n        /* \"#utility.yul\":632:633   */\n      0x00\n        /* \"#utility.yul\":629:630   */\n      0x00\n        /* \"#utility.yul\":622:634   */\n      revert\n        /* \"#utility.yul\":646:763   */\n    tag_217:\n        /* \"#utility.yul\":755:756   */\n      0x00\n        /* \"#utility.yul\":752:753   */\n      0x00\n        /* \"#utility.yul\":745:757   */\n      revert\n        /* \"#utility.yul\":769:891   */\n    tag_218:\n        /* \"#utility.yul\":842:866   */\n      tag_315\n        /* \"#utility.yul\":860:865   */\n      dup2\n        /* \"#utility.yul\":842:866   */\n      tag_213\n      jump\t// in\n    tag_315:\n        /* \"#utility.yul\":835:840   */\n      dup2\n        /* \"#utility.yul\":832:867   */\n      eq\n        /* \"#utility.yul\":822:885   */\n      tag_316\n      jumpi\n        /* \"#utility.yul\":881:882   */\n      0x00\n        /* \"#utility.yul\":878:879   */\n      0x00\n        /* \"#utility.yul\":871:883   */\n      revert\n        /* \"#utility.yul\":822:885   */\n    tag_316:\n        /* \"#utility.yul\":769:891   */\n      pop\n      jump\t// out\n        /* \"#utility.yul\":897:1036   */\n    tag_219:\n        /* \"#utility.yul\":943:948   */\n      0x00\n        /* \"#utility.yul\":981:987   */\n      dup2\n        /* \"#utility.yul\":968:988   */\n      calldataload\n        /* \"#utility.yul\":959:988   */\n      swap1\n      pop\n        /* \"#utility.yul\":997:1030   */\n      tag_318\n        /* \"#utility.yul\":1024:1029   */\n      dup2\n        /* \"#utility.yul\":997:1030   */\n      tag_218\n      jump\t// in\n    tag_318:\n        /* \"#utility.yul\":897:1036   */\n      swap3\n      swap2\n      pop\n      pop\n      jump\t// out\n        /* \"#utility.yul\":1042:1371   */\n    tag_22:\n        /* \"#utility.yul\":1101:1107   */\n      0x00\n        /* \"#utility.yul\":1150:1152   */\n      0x20\n        /* \"#utility.yul\":1138:1147   */\n      dup3\n        /* \"#utility.yul\":1129:1136   */\n      dup5\n        /* \"#utility.yul\":1125:1148   */\n      sub\n        /* \"#utility.yul\":1121:1153   */\n      slt\n        /* \"#utility.yul\":1118:1237   */\n      iszero\n      tag_320\n      jumpi\n        /* \"#utility.yul\":1156:1235   */\n      tag_321\n      tag_216\n      jump\t// in\n    tag_321:\n        /* \"#utility.yul\":1118:1237   */\n    tag_320:\n        /* \"#utility.yul\":1276:1277   */\n      0x00\n        /* \"#utility.yul\":1301:1354   */\n      tag_322\n        /* \"#utility.yul\":1346:1353   */\n      dup5\n        /* \"#utility.yul\":1337:1343   */\n      dup3\n        /* \"#utility.yul\":1326:1335   */\n      dup6\n        /* \"#utility.yul\":1322:1344   */\n      add\n        /* \"#utility.yul\":1301:1354   */\n      tag_219\n      jump\t// in\n    tag_322:\n        /* \"#utility.yul\":1291:1354   */\n      swap2\n      pop\n        /* \"#utility.yul\":1247:1364   */\n      pop\n        /* \"#utility.yul\":1042:1371   */\n      swap3\n      swap2\n      pop\n      pop\n      jump\t// out\n        /* \"#utility.yul\":1377:1476   */\n    tag_220:\n        /* \"#utility.yul\":1429:1435   */\n      0x00\n        /* \"#utility.yul\":1463:1468   */\n      dup2\n        /* \"#utility.yul\":1457:1469   */\n      mload\n        /* \"#utility.yul\":1447:1469   */\n      swap1\n      pop\n        /* \"#utility.yul\":1377:1476   */\n      swap2\n      swap1\n      pop\n      jump\t// out\n        /* \"#utility.yul\":1482:1651   */\n    tag_221:\n        /* \"#utility.yul\":1566:1577   */\n      0x00\n        /* \"#utility.yul\":1600:1606   */\n      dup3\n        /* \"#utility.yul\":1595:1598   */\n      dup3\n        /* \"#utility.yul\":1588:1607   */\n      mstore\n        /* \"#utility.yul\":1640:1644   */\n      0x20\n        /* \"#utility.yul\":1635:1638   */\n      dup3\n        /* \"#utility.yul\":1631:1645   */\n      add\n        /* \"#utility.yul\":1616:1645   */\n      swap1\n      pop\n        /* \"#utility.yul\":1482:1651   */\n      swap3\n      swap2\n      pop\n      pop\n      jump\t// out\n        /* \"#utility.yul\":1657:1796   */\n    tag_222:\n        /* \"#utility.yul\":1746:1752   */\n      dup3\n        /* \"#utility.yul\":1741:1744   */\n      dup2\n        /* \"#utility.yul\":1736:1739   */\n      dup4\n        /* \"#utility.yul\":1730:1753   */\n      mcopy\n        /* \"#utility.yul\":1787:1788   */\n      0x00\n        /* \"#utility.yul\":1778:1784   */\n      dup4\n        /* \"#utility.yul\":1773:1776   */\n      dup4\n        /* \"#utility.yul\":1769:1785   */\n      add\n        /* \"#utility.yul\":1762:1789   */\n      mstore\n        /* \"#utility.yul\":1657:1796   */\n      pop\n      pop\n      pop\n      jump\t// out\n        /* \"#utility.yul\":1802:1904   */\n    tag_223:\n        /* \"#utility.yul\":1843:1849   */\n      0x00\n        /* \"#utility.yul\":1894:1896   */\n      0x1f\n        /* \"#utility.yul\":1890:1897   */\n      not\n        /* \"#utility.yul\":1885:1887   */\n      0x1f\n        /* \"#utility.yul\":1878:1883   */\n      dup4\n        /* \"#utility.yul\":1874:1888   */\n      add\n        /* \"#utility.yul\":1870:1898   */\n      and\n        /* \"#utility.yul\":1860:1898   */\n      swap1\n      pop\n        /* \"#utility.yul\":1802:1904   */\n      swap2\n      swap1\n      pop\n      jump\t// out\n        /* \"#utility.yul\":1910:2287   */\n    tag_224:\n        /* \"#utility.yul\":1998:2001   */\n      0x00\n        /* \"#utility.yul\":2026:2065   */\n      tag_328\n        /* \"#utility.yul\":2059:2064   */\n      dup3\n        /* \"#utility.yul\":2026:2065   */\n      tag_220\n      jump\t// in\n    tag_328:\n        /* \"#utility.yul\":2081:2152   */\n      tag_329\n        /* \"#utility.yul\":2145:2151   */\n      dup2\n        /* \"#utility.yul\":2140:2143   */\n      dup6\n        /* \"#utility.yul\":2081:2152   */\n      tag_221\n      jump\t// in\n    tag_329:\n        /* \"#utility.yul\":2074:2152   */\n      swap4\n      pop\n        /* \"#utility.yul\":2161:2226   */\n      tag_330\n        /* \"#utility.yul\":2219:2225   */\n      dup2\n        /* \"#utility.yul\":2214:2217   */\n      dup6\n        /* \"#utility.yul\":2207:2211   */\n      0x20\n        /* \"#utility.yul\":2200:2205   */\n      dup7\n        /* \"#utility.yul\":2196:2212   */\n      add\n        /* \"#utility.yul\":2161:2226   */\n      tag_222\n      jump\t// in\n    tag_330:\n        /* \"#utility.yul\":2251:2280   */\n      tag_331\n        /* \"#utility.yul\":2273:2279   */\n      dup2\n        /* \"#utility.yul\":2251:2280   */\n      tag_223\n      jump\t// in\n    tag_331:\n        /* \"#utility.yul\":2246:2249   */\n      dup5\n        /* \"#utility.yul\":2242:2281   */\n      add\n        /* \"#utility.yul\":2235:2281   */\n      swap2\n      pop\n        /* \"#utility.yul\":2002:2287   */\n      pop\n        /* \"#utility.yul\":1910:2287   */\n      swap3\n      swap2\n      pop\n      pop\n      jump\t// out\n        /* \"#utility.yul\":2293:2417   */\n    tag_225:\n        /* \"#utility.yul\":2370:2376   */\n      0x00\n        /* \"#utility.yul\":2404:2409   */\n      dup2\n        /* \"#utility.yul\":2398:2410   */\n      mload\n        /* \"#utility.yul\":2388:2410   */\n      swap1\n      pop\n        /* \"#utility.yul\":2293:2417   */\n      swap2\n      swap1\n      pop\n      jump\t// out\n        /* \"#utility.yul\":2423:2617   */\n    tag_226:\n        /* \"#utility.yul\":2532:2543   */\n      0x00\n        /* \"#utility.yul\":2566:2572   */\n      dup3\n        /* \"#utility.yul\":2561:2564   */\n      dup3\n        /* \"#utility.yul\":2554:2573   */\n      mstore\n        /* \"#utility.yul\":2606:2610   */\n      0x20\n        /* \"#utility.yul\":2601:2604   */\n      dup3\n        /* \"#utility.yul\":2597:2611   */\n      add\n        /* \"#utility.yul\":2582:2611   */\n      swap1\n      pop\n        /* \"#utility.yul\":2423:2617   */\n      swap3\n      swap2\n      pop\n      pop\n      jump\t// out\n        /* \"#utility.yul\":2623:2765   */\n    tag_227:\n        /* \"#utility.yul\":2700:2704   */\n      0x00\n        /* \"#utility.yul\":2723:2726   */\n      dup2\n        /* \"#utility.yul\":2715:2726   */\n      swap1\n      pop\n        /* \"#utility.yul\":2753:2757   */\n      0x20\n        /* \"#utility.yul\":2748:2751   */\n      dup3\n        /* \"#utility.yul\":2744:2758   */\n      add\n        /* \"#utility.yul\":2736:2758   */\n      swap1\n      pop\n        /* \"#utility.yul\":2623:2765   */\n      swap2\n      swap1\n      pop\n      jump\t// out\n        /* \"#utility.yul\":2771:2930   */\n    tag_228:\n        /* \"#utility.yul\":2845:2856   */\n      0x00\n        /* \"#utility.yul\":2879:2885   */\n      dup3\n        /* \"#utility.yul\":2874:2877   */\n      dup3\n        /* \"#utility.yul\":2867:2886   */\n      mstore\n        /* \"#utility.yul\":2919:2923   */\n      0x20\n        /* \"#utility.yul\":2914:2917   */\n      dup3\n        /* \"#utility.yul\":2910:2924   */\n      add\n        /* \"#utility.yul\":2895:2924   */\n      swap1\n      pop\n        /* \"#utility.yul\":2771:2930   */\n      swap3\n      swap2\n      pop\n      pop\n      jump\t// out\n        /* \"#utility.yul\":2936:3293   */\n    tag_229:\n        /* \"#utility.yul\":3014:3017   */\n      0x00\n        /* \"#utility.yul\":3042:3081   */\n      tag_337\n        /* \"#utility.yul\":3075:3080   */\n      dup3\n        /* \"#utility.yul\":3042:3081   */\n      tag_220\n      jump\t// in\n    tag_337:\n        /* \"#utility.yul\":3097:3158   */\n      tag_338\n        /* \"#utility.yul\":3151:3157   */\n      dup2\n        /* \"#utility.yul\":3146:3149   */\n      dup6\n        /* \"#utility.yul\":3097:3158   */\n      tag_228\n      jump\t// in\n    tag_338:\n        /* \"#utility.yul\":3090:3158   */\n      swap4\n      pop\n        /* \"#utility.yul\":3167:3232   */\n      tag_339\n        /* \"#utility.yul\":3225:3231   */\n      dup2\n        /* \"#utility.yul\":3220:3223   */\n      dup6\n        /* \"#utility.yul\":3213:3217   */\n      0x20\n        /* \"#utility.yul\":3206:3211   */\n      dup7\n        /* \"#utility.yul\":3202:3218   */\n      add\n        /* \"#utility.yul\":3167:3232   */\n      tag_222\n      jump\t// in\n    tag_339:\n        /* \"#utility.yul\":3257:3286   */\n      tag_340\n        /* \"#utility.yul\":3279:3285   */\n      dup2\n        /* \"#utility.yul\":3257:3286   */\n      tag_223\n      jump\t// in\n    tag_340:\n        /* \"#utility.yul\":3252:3255   */\n      dup5\n        /* \"#utility.yul\":3248:3287   */\n      add\n        /* \"#utility.yul\":3241:3287   */\n      swap2\n      pop\n        /* \"#utility.yul\":3018:3293   */\n      pop\n        /* \"#utility.yul\":2936:3293   */\n      swap3\n      swap2\n      pop\n      pop\n      jump\t// out\n        /* \"#utility.yul\":3299:3495   */\n    tag_230:\n        /* \"#utility.yul\":3388:3398   */\n      0x00\n        /* \"#utility.yul\":3423:3489   */\n      tag_342\n        /* \"#utility.yul\":3485:3488   */\n      dup4\n        /* \"#utility.yul\":3477:3483   */\n      dup4\n        /* \"#utility.yul\":3423:3489   */\n      tag_229\n      jump\t// in\n    tag_342:\n        /* \"#utility.yul\":3409:3489   */\n      swap1\n      pop\n        /* \"#utility.yul\":3299:3495   */\n      swap3\n      swap2\n      pop\n      pop\n      jump\t// out\n        /* \"#utility.yul\":3501:3624   */\n    tag_231:\n        /* \"#utility.yul\":3581:3585   */\n      0x00\n        /* \"#utility.yul\":3613:3617   */\n      0x20\n        /* \"#utility.yul\":3608:3611   */\n      dup3\n        /* \"#utility.yul\":3604:3618   */\n      add\n        /* \"#utility.yul\":3596:3618   */\n      swap1\n      pop\n        /* \"#utility.yul\":3501:3624   */\n      swap2\n      swap1\n      pop\n      jump\t// out\n        /* \"#utility.yul\":3658:4649   */\n    tag_232:\n        /* \"#utility.yul\":3797:3800   */\n      0x00\n        /* \"#utility.yul\":3826:3890   */\n      tag_345\n        /* \"#utility.yul\":3884:3889   */\n      dup3\n        /* \"#utility.yul\":3826:3890   */\n      tag_225\n      jump\t// in\n    tag_345:\n        /* \"#utility.yul\":3906:4002   */\n      tag_346\n        /* \"#utility.yul\":3995:4001   */\n      dup2\n        /* \"#utility.yul\":3990:3993   */\n      dup6\n        /* \"#utility.yul\":3906:4002   */\n      tag_226\n      jump\t// in\n    tag_346:\n        /* \"#utility.yul\":3899:4002   */\n      swap4\n      pop\n        /* \"#utility.yul\":4028:4031   */\n      dup4\n        /* \"#utility.yul\":4073:4077   */\n      0x20\n        /* \"#utility.yul\":4065:4071   */\n      dup3\n        /* \"#utility.yul\":4061:4078   */\n      mul\n        /* \"#utility.yul\":4056:4059   */\n      dup6\n        /* \"#utility.yul\":4052:4079   */\n      add\n        /* \"#utility.yul\":4103:4169   */\n      tag_347\n        /* \"#utility.yul\":4163:4168   */\n      dup6\n        /* \"#utility.yul\":4103:4169   */\n      tag_227\n      jump\t// in\n    tag_347:\n        /* \"#utility.yul\":4192:4199   */\n      dup1\n        /* \"#utility.yul\":4223:4224   */\n      0x00\n        /* \"#utility.yul\":4208:4604   */\n    tag_348:\n        /* \"#utility.yul\":4233:4239   */\n      dup6\n        /* \"#utility.yul\":4230:4231   */\n      dup2\n        /* \"#utility.yul\":4227:4240   */\n      lt\n        /* \"#utility.yul\":4208:4604   */\n      iszero\n      tag_350\n      jumpi\n        /* \"#utility.yul\":4304:4313   */\n      dup5\n        /* \"#utility.yul\":4298:4302   */\n      dup5\n        /* \"#utility.yul\":4294:4314   */\n      sub\n        /* \"#utility.yul\":4289:4292   */\n      dup10\n        /* \"#utility.yul\":4282:4315   */\n      mstore\n        /* \"#utility.yul\":4355:4361   */\n      dup2\n        /* \"#utility.yul\":4349:4362   */\n      mload\n        /* \"#utility.yul\":4383:4467   */\n      tag_351\n        /* \"#utility.yul\":4462:4466   */\n      dup6\n        /* \"#utility.yul\":4447:4460   */\n      dup3\n        /* \"#utility.yul\":4383:4467   */\n      tag_230\n      jump\t// in\n    tag_351:\n        /* \"#utility.yul\":4375:4467   */\n      swap5\n      pop\n        /* \"#utility.yul\":4490:4560   */\n      tag_352\n        /* \"#utility.yul\":4553:4559   */\n      dup4\n        /* \"#utility.yul\":4490:4560   */\n      tag_231\n      jump\t// in\n    tag_352:\n        /* \"#utility.yul\":4480:4560   */\n      swap3\n      pop\n        /* \"#utility.yul\":4589:4593   */\n      0x20\n        /* \"#utility.yul\":4584:4587   */\n      dup11\n        /* \"#utility.yul\":4580:4594   */\n      add\n        /* \"#utility.yul\":4573:4594   */\n      swap10\n      pop\n        /* \"#utility.yul\":4268:4604   */\n      pop\n        /* \"#utility.yul\":4255:4256   */\n      0x01\n        /* \"#utility.yul\":4252:4253   */\n      dup2\n        /* \"#utility.yul\":4248:4257   */\n      add\n        /* \"#utility.yul\":4243:4257   */\n      swap1\n      pop\n        /* \"#utility.yul\":4208:4604   */\n      jump(tag_348)\n    tag_350:\n        /* \"#utility.yul\":4212:4226   */\n      pop\n        /* \"#utility.yul\":4620:4624   */\n      dup3\n        /* \"#utility.yul\":4613:4624   */\n      swap8\n      pop\n        /* \"#utility.yul\":4640:4643   */\n      dup8\n        /* \"#utility.yul\":4633:4643   */\n      swap6\n      pop\n        /* \"#utility.yul\":3802:4649   */\n      pop\n      pop\n      pop\n      pop\n      pop\n        /* \"#utility.yul\":3658:4649   */\n      swap3\n      swap2\n      pop\n      pop\n      jump\t// out\n        /* \"#utility.yul\":4655:4769   */\n    tag_233:\n        /* \"#utility.yul\":4722:4728   */\n      0x00\n        /* \"#utility.yul\":4756:4761   */\n      dup2\n        /* \"#utility.yul\":4750:4762   */\n      mload\n        /* \"#utility.yul\":4740:4762   */\n      swap1\n      pop\n        /* \"#utility.yul\":4655:4769   */\n      swap2\n      swap1\n      pop\n      jump\t// out\n        /* \"#utility.yul\":4775:4959   */\n    tag_234:\n        /* \"#utility.yul\":4874:4885   */\n      0x00\n        /* \"#utility.yul\":4908:4914   */\n      dup3\n        /* \"#utility.yul\":4903:4906   */\n      dup3\n        /* \"#utility.yul\":4896:4915   */\n      mstore\n        /* \"#utility.yul\":4948:4952   */\n      0x20\n        /* \"#utility.yul\":4943:4946   */\n      dup3\n        /* \"#utility.yul\":4939:4953   */\n      add\n        /* \"#utility.yul\":4924:4953   */\n      swap1\n      pop\n        /* \"#utility.yul\":4775:4959   */\n      swap3\n      swap2\n      pop\n      pop\n      jump\t// out\n        /* \"#utility.yul\":4965:5097   */\n    tag_235:\n        /* \"#utility.yul\":5032:5036   */\n      0x00\n        /* \"#utility.yul\":5055:5058   */\n      dup2\n        /* \"#utility.yul\":5047:5058   */\n      swap1\n      pop\n        /* \"#utility.yul\":5085:5089   */\n      0x20\n        /* \"#utility.yul\":5080:5083   */\n      dup3\n        /* \"#utility.yul\":5076:5090   */\n      add\n        /* \"#utility.yul\":5068:5090   */\n      swap1\n      pop\n        /* \"#utility.yul\":4965:5097   */\n      swap2\n      swap1\n      pop\n      jump\t// out\n        /* \"#utility.yul\":5103:5211   */\n    tag_236:\n        /* \"#utility.yul\":5180:5204   */\n      tag_357\n        /* \"#utility.yul\":5198:5203   */\n      dup2\n        /* \"#utility.yul\":5180:5204   */\n      tag_213\n      jump\t// in\n    tag_357:\n        /* \"#utility.yul\":5175:5178   */\n      dup3\n        /* \"#utility.yul\":5168:5205   */\n      mstore\n        /* \"#utility.yul\":5103:5211   */\n      pop\n      pop\n      jump\t// out\n        /* \"#utility.yul\":5217:5396   */\n    tag_237:\n        /* \"#utility.yul\":5286:5296   */\n      0x00\n        /* \"#utility.yul\":5307:5353   */\n      tag_359\n        /* \"#utility.yul\":5349:5352   */\n      dup4\n        /* \"#utility.yul\":5341:5347   */\n      dup4\n        /* \"#utility.yul\":5307:5353   */\n      tag_236\n      jump\t// in\n    tag_359:\n        /* \"#utility.yul\":5385:5389   */\n      0x20\n        /* \"#utility.yul\":5380:5383   */\n      dup4\n        /* \"#utility.yul\":5376:5390   */\n      add\n        /* \"#utility.yul\":5362:5390   */\n      swap1\n      pop\n        /* \"#utility.yul\":5217:5396   */\n      swap3\n      swap2\n      pop\n      pop\n      jump\t// out\n        /* \"#utility.yul\":5402:5515   */\n    tag_238:\n        /* \"#utility.yul\":5472:5476   */\n      0x00\n        /* \"#utility.yul\":5504:5508   */\n      0x20\n        /* \"#utility.yul\":5499:5502   */\n      dup3\n        /* \"#utility.yul\":5495:5509   */\n      add\n        /* \"#utility.yul\":5487:5509   */\n      swap1\n      pop\n        /* \"#utility.yul\":5402:5515   */\n      swap2\n      swap1\n      pop\n      jump\t// out\n        /* \"#utility.yul\":5551:6283   */\n    tag_239:\n        /* \"#utility.yul\":5670:5673   */\n      0x00\n        /* \"#utility.yul\":5699:5753   */\n      tag_362\n        /* \"#utility.yul\":5747:5752   */\n      dup3\n        /* \"#utility.yul\":5699:5753   */\n      tag_233\n      jump\t// in\n    tag_362:\n        /* \"#utility.yul\":5769:5855   */\n      tag_363\n        /* \"#utility.yul\":5848:5854   */\n      dup2\n        /* \"#utility.yul\":5843:5846   */\n      dup6\n        /* \"#utility.yul\":5769:5855   */\n      tag_234\n      jump\t// in\n    tag_363:\n        /* \"#utility.yul\":5762:5855   */\n      swap4\n      pop\n        /* \"#utility.yul\":5879:5935   */\n      tag_364\n        /* \"#utility.yul\":5929:5934   */\n      dup4\n        /* \"#utility.yul\":5879:5935   */\n      tag_235\n      jump\t// in\n    tag_364:\n        /* \"#utility.yul\":5958:5965   */\n      dup1\n        /* \"#utility.yul\":5989:5990   */\n      0x00\n        /* \"#utility.yul\":5974:6258   */\n    tag_365:\n        /* \"#utility.yul\":5999:6005   */\n      dup4\n        /* \"#utility.yul\":5996:5997   */\n      dup2\n        /* \"#utility.yul\":5993:6006   */\n      lt\n        /* \"#utility.yul\":5974:6258   */\n      iszero\n      tag_367\n      jumpi\n        /* \"#utility.yul\":6075:6081   */\n      dup2\n        /* \"#utility.yul\":6069:6082   */\n      mload\n        /* \"#utility.yul\":6102:6165   */\n      tag_368\n        /* \"#utility.yul\":6161:6164   */\n      dup9\n        /* \"#utility.yul\":6146:6159   */\n      dup3\n        /* \"#utility.yul\":6102:6165   */\n      tag_237\n      jump\t// in\n    tag_368:\n        /* \"#utility.yul\":6095:6165   */\n      swap8\n      pop\n        /* \"#utility.yul\":6188:6248   */\n      tag_369\n        /* \"#utility.yul\":6241:6247   */\n      dup4\n        /* \"#utility.yul\":6188:6248   */\n      tag_238\n      jump\t// in\n    tag_369:\n        /* \"#utility.yul\":6178:6248   */\n      swap3\n      pop\n        /* \"#utility.yul\":6034:6258   */\n      pop\n        /* \"#utility.yul\":6021:6022   */\n      0x01\n        /* \"#utility.yul\":6018:6019   */\n      dup2\n        /* \"#utility.yul\":6014:6023   */\n      add\n        /* \"#utility.yul\":6009:6023   */\n      swap1\n      pop\n        /* \"#utility.yul\":5974:6258   */\n      jump(tag_365)\n    tag_367:\n        /* \"#utility.yul\":5978:5992   */\n      pop\n        /* \"#utility.yul\":6274:6277   */\n      dup6\n        /* \"#utility.yul\":6267:6277   */\n      swap4\n      pop\n        /* \"#utility.yul\":5675:6283   */\n      pop\n      pop\n      pop\n        /* \"#utility.yul\":5551:6283   */\n      swap3\n      swap2\n      pop\n      pop\n      jump\t// out\n        /* \"#utility.yul\":6289:6379   */\n    tag_240:\n        /* \"#utility.yul\":6323:6330   */\n      0x00\n        /* \"#utility.yul\":6366:6371   */\n      dup2\n        /* \"#utility.yul\":6359:6372   */\n      iszero\n        /* \"#utility.yul\":6352:6373   */\n      iszero\n        /* \"#utility.yul\":6341:6373   */\n      swap1\n      pop\n        /* \"#utility.yul\":6289:6379   */\n      swap2\n      swap1\n      pop\n      jump\t// out\n        /* \"#utility.yul\":6385:6494   */\n    tag_241:\n        /* \"#utility.yul\":6466:6487   */\n      tag_372\n        /* \"#utility.yul\":6481:6486   */\n      dup2\n        /* \"#utility.yul\":6466:6487   */\n      tag_240\n      jump\t// in\n    tag_372:\n        /* \"#utility.yul\":6461:6464   */\n      dup3\n        /* \"#utility.yul\":6454:6488   */\n      mstore\n        /* \"#utility.yul\":6385:6494   */\n      pop\n      pop\n      jump\t// out\n        /* \"#utility.yul\":6500:7474   */\n    tag_25:\n        /* \"#utility.yul\":6811:6815   */\n      0x00\n        /* \"#utility.yul\":6849:6852   */\n      0x80\n        /* \"#utility.yul\":6838:6847   */\n      dup3\n        /* \"#utility.yul\":6834:6853   */\n      add\n        /* \"#utility.yul\":6826:6853   */\n      swap1\n      pop\n        /* \"#utility.yul\":6899:6908   */\n      dup2\n        /* \"#utility.yul\":6893:6897   */\n      dup2\n        /* \"#utility.yul\":6889:6909   */\n      sub\n        /* \"#utility.yul\":6885:6886   */\n      0x00\n        /* \"#utility.yul\":6874:6883   */\n      dup4\n        /* \"#utility.yul\":6870:6887   */\n      add\n        /* \"#utility.yul\":6863:6910   */\n      mstore\n        /* \"#utility.yul\":6927:7005   */\n      tag_374\n        /* \"#utility.yul\":7000:7004   */\n      dup2\n        /* \"#utility.yul\":6991:6997   */\n      dup8\n        /* \"#utility.yul\":6927:7005   */\n      tag_224\n      jump\t// in\n    tag_374:\n        /* \"#utility.yul\":6919:7005   */\n      swap1\n      pop\n        /* \"#utility.yul\":7052:7061   */\n      dup2\n        /* \"#utility.yul\":7046:7050   */\n      dup2\n        /* \"#utility.yul\":7042:7062   */\n      sub\n        /* \"#utility.yul\":7037:7039   */\n      0x20\n        /* \"#utility.yul\":7026:7035   */\n      dup4\n        /* \"#utility.yul\":7022:7040   */\n      add\n        /* \"#utility.yul\":7015:7063   */\n      mstore\n        /* \"#utility.yul\":7080:7208   */\n      tag_375\n        /* \"#utility.yul\":7203:7207   */\n      dup2\n        /* \"#utility.yul\":7194:7200   */\n      dup7\n        /* \"#utility.yul\":7080:7208   */\n      tag_232\n      jump\t// in\n    tag_375:\n        /* \"#utility.yul\":7072:7208   */\n      swap1\n      pop\n        /* \"#utility.yul\":7255:7264   */\n      dup2\n        /* \"#utility.yul\":7249:7253   */\n      dup2\n        /* \"#utility.yul\":7245:7265   */\n      sub\n        /* \"#utility.yul\":7240:7242   */\n      0x40\n        /* \"#utility.yul\":7229:7238   */\n      dup4\n        /* \"#utility.yul\":7225:7243   */\n      add\n        /* \"#utility.yul\":7218:7266   */\n      mstore\n        /* \"#utility.yul\":7283:7391   */\n      tag_376\n        /* \"#utility.yul\":7386:7390   */\n      dup2\n        /* \"#utility.yul\":7377:7383   */\n      dup6\n        /* \"#utility.yul\":7283:7391   */\n      tag_239\n      jump\t// in\n    tag_376:\n        /* \"#utility.yul\":7275:7391   */\n      swap1\n      pop\n        /* \"#utility.yul\":7401:7467   */\n      tag_377\n        /* \"#utility.yul\":7463:7465   */\n      0x60\n        /* \"#utility.yul\":7452:7461   */\n      dup4\n        /* \"#utility.yul\":7448:7466   */\n      add\n        /* \"#utility.yul\":7439:7445   */\n      dup5\n        /* \"#utility.yul\":7401:7467   */\n      tag_241\n      jump\t// in\n    tag_377:\n        /* \"#utility.yul\":6500:7474   */\n      swap6\n      swap5\n      pop\n      pop\n      pop\n      pop\n      pop\n      jump\t// out\n        /* \"#utility.yul\":7480:7606   */\n    tag_242:\n        /* \"#utility.yul\":7517:7524   */\n      0x00\n        /* \"#utility.yul\":7557:7599   */\n      0xffffffffffffffffffffffffffffffffffffffff\n        /* \"#utility.yul\":7550:7555   */\n      dup3\n        /* \"#utility.yul\":7546:7600   */\n      and\n        /* \"#utility.yul\":7535:7600   */\n      swap1\n      pop\n        /* \"#utility.yul\":7480:7606   */\n      swap2\n      swap1\n      pop\n      jump\t// out\n        /* \"#utility.yul\":7612:7708   */\n    tag_243:\n        /* \"#utility.yul\":7649:7656   */\n      0x00\n        /* \"#utility.yul\":7678:7702   */\n      tag_380\n        /* \"#utility.yul\":7696:7701   */\n      dup3\n        /* \"#utility.yul\":7678:7702   */\n      tag_242\n      jump\t// in\n    tag_380:\n        /* \"#utility.yul\":7667:7702   */\n      swap1\n      pop\n        /* \"#utility.yul\":7612:7708   */\n      swap2\n      swap1\n      pop\n      jump\t// out\n        /* \"#utility.yul\":7714:7836   */\n    tag_244:\n        /* \"#utility.yul\":7787:7811   */\n      tag_382\n        /* \"#utility.yul\":7805:7810   */\n      dup2\n        /* \"#utility.yul\":7787:7811   */\n      tag_243\n      jump\t// in\n    tag_382:\n        /* \"#utility.yul\":7780:7785   */\n      dup2\n        /* \"#utility.yul\":7777:7812   */\n      eq\n        /* \"#utility.yul\":7767:7830   */\n      tag_383\n      jumpi\n        /* \"#utility.yul\":7826:7827   */\n      0x00\n        /* \"#utility.yul\":7823:7824   */\n      0x00\n        /* \"#utility.yul\":7816:7828   */\n      revert\n        /* \"#utility.yul\":7767:7830   */\n    tag_383:\n        /* \"#utility.yul\":7714:7836   */\n      pop\n      jump\t// out\n        /* \"#utility.yul\":7842:7981   */\n    tag_245:\n        /* \"#utility.yul\":7888:7893   */\n      0x00\n        /* \"#utility.yul\":7926:7932   */\n      dup2\n        /* \"#utility.yul\":7913:7933   */\n      calldataload\n        /* \"#utility.yul\":7904:7933   */\n      swap1\n      pop\n        /* \"#utility.yul\":7942:7975   */\n      tag_385\n        /* \"#utility.yul\":7969:7974   */\n      dup2\n        /* \"#utility.yul\":7942:7975   */\n      tag_244\n      jump\t// in\n    tag_385:\n        /* \"#utility.yul\":7842:7981   */\n      swap3\n      swap2\n      pop\n      pop\n      jump\t// out\n        /* \"#utility.yul\":7987:8461   */\n    tag_28:\n        /* \"#utility.yul\":8055:8061   */\n      0x00\n        /* \"#utility.yul\":8063:8069   */\n      0x00\n        /* \"#utility.yul\":8112:8114   */\n      0x40\n        /* \"#utility.yul\":8100:8109   */\n      dup4\n        /* \"#utility.yul\":8091:8098   */\n      dup6\n        /* \"#utility.yul\":8087:8110   */\n      sub\n        /* \"#utility.yul\":8083:8115   */\n      slt\n        /* \"#utility.yul\":8080:8199   */\n      iszero\n      tag_387\n      jumpi\n        /* \"#utility.yul\":8118:8197   */\n      tag_388\n      tag_216\n      jump\t// in\n    tag_388:\n        /* \"#utility.yul\":8080:8199   */\n    tag_387:\n        /* \"#utility.yul\":8238:8239   */\n      0x00\n        /* \"#utility.yul\":8263:8316   */\n      tag_389\n        /* \"#utility.yul\":8308:8315   */\n      dup6\n        /* \"#utility.yul\":8299:8305   */\n      dup3\n        /* \"#utility.yul\":8288:8297   */\n      dup7\n        /* \"#utility.yul\":8284:8306   */\n      add\n        /* \"#utility.yul\":8263:8316   */\n      tag_219\n      jump\t// in\n    tag_389:\n        /* \"#utility.yul\":8253:8316   */\n      swap3\n      pop\n        /* \"#utility.yul\":8209:8326   */\n      pop\n        /* \"#utility.yul\":8365:8367   */\n      0x20\n        /* \"#utility.yul\":8391:8444   */\n      tag_390\n        /* \"#utility.yul\":8436:8443   */\n      dup6\n        /* \"#utility.yul\":8427:8433   */\n      dup3\n        /* \"#utility.yul\":8416:8425   */\n      dup7\n        /* \"#utility.yul\":8412:8434   */\n      add\n        /* \"#utility.yul\":8391:8444   */\n      tag_245\n      jump\t// in\n    tag_390:\n        /* \"#utility.yul\":8381:8444   */\n      swap2\n      pop\n        /* \"#utility.yul\":8336:8454   */\n      pop\n        /* \"#utility.yul\":7987:8461   */\n      swap3\n      pop\n      swap3\n      swap1\n      pop\n      jump\t// out\n        /* \"#utility.yul\":8467:8677   */\n    tag_31:\n        /* \"#utility.yul\":8554:8558   */\n      0x00\n        /* \"#utility.yul\":8592:8594   */\n      0x20\n        /* \"#utility.yul\":8581:8590   */\n      dup3\n        /* \"#utility.yul\":8577:8595   */\n      add\n        /* \"#utility.yul\":8569:8595   */\n      swap1\n      pop\n        /* \"#utility.yul\":8605:8670   */\n      tag_392\n        /* \"#utility.yul\":8667:8668   */\n      0x00\n        /* \"#utility.yul\":8656:8665   */\n      dup4\n        /* \"#utility.yul\":8652:8669   */\n      add\n        /* \"#utility.yul\":8643:8649   */\n      dup5\n        /* \"#utility.yul\":8605:8670   */\n      tag_241\n      jump\t// in\n    tag_392:\n        /* \"#utility.yul\":8467:8677   */\n      swap3\n      swap2\n      pop\n      pop\n      jump\t// out\n        /* \"#utility.yul\":8683:8800   */\n    tag_246:\n        /* \"#utility.yul\":8792:8793   */\n      0x00\n        /* \"#utility.yul\":8789:8790   */\n      0x00\n        /* \"#utility.yul\":8782:8794   */\n      revert\n        /* \"#utility.yul\":8806:8923   */\n    tag_247:\n        /* \"#utility.yul\":8915:8916   */\n      0x00\n        /* \"#utility.yul\":8912:8913   */\n      0x00\n        /* \"#utility.yul\":8905:8917   */\n      revert\n        /* \"#utility.yul\":8929:9046   */\n    tag_248:\n        /* \"#utility.yul\":9038:9039   */\n      0x00\n        /* \"#utility.yul\":9035:9036   */\n      0x00\n        /* \"#utility.yul\":9028:9040   */\n      revert\n        /* \"#utility.yul\":9066:9619   */\n    tag_249:\n        /* \"#utility.yul\":9124:9132   */\n      0x00\n        /* \"#utility.yul\":9134:9140   */\n      0x00\n        /* \"#utility.yul\":9184:9187   */\n      dup4\n        /* \"#utility.yul\":9177:9181   */\n      0x1f\n        /* \"#utility.yul\":9169:9175   */\n      dup5\n        /* \"#utility.yul\":9165:9182   */\n      add\n        /* \"#utility.yul\":9161:9188   */\n      slt\n        /* \"#utility.yul\":9151:9273   */\n      tag_397\n      jumpi\n        /* \"#utility.yul\":9192:9271   */\n      tag_398\n      tag_246\n      jump\t// in\n    tag_398:\n        /* \"#utility.yul\":9151:9273   */\n    tag_397:\n        /* \"#utility.yul\":9305:9311   */\n      dup3\n        /* \"#utility.yul\":9292:9312   */\n      calldataload\n        /* \"#utility.yul\":9282:9312   */\n      swap1\n      pop\n        /* \"#utility.yul\":9335:9353   */\n      0xffffffffffffffff\n        /* \"#utility.yul\":9327:9333   */\n      dup2\n        /* \"#utility.yul\":9324:9354   */\n      gt\n        /* \"#utility.yul\":9321:9438   */\n      iszero\n      tag_399\n      jumpi\n        /* \"#utility.yul\":9357:9436   */\n      tag_400\n      tag_247\n      jump\t// in\n    tag_400:\n        /* \"#utility.yul\":9321:9438   */\n    tag_399:\n        /* \"#utility.yul\":9471:9475   */\n      0x20\n        /* \"#utility.yul\":9463:9469   */\n      dup4\n        /* \"#utility.yul\":9459:9476   */\n      add\n        /* \"#utility.yul\":9447:9476   */\n      swap2\n      pop\n        /* \"#utility.yul\":9525:9528   */\n      dup4\n        /* \"#utility.yul\":9517:9521   */\n      0x01\n        /* \"#utility.yul\":9509:9515   */\n      dup3\n        /* \"#utility.yul\":9505:9522   */\n      mul\n        /* \"#utility.yul\":9495:9503   */\n      dup4\n        /* \"#utility.yul\":9491:9523   */\n      add\n        /* \"#utility.yul\":9488:9529   */\n      gt\n        /* \"#utility.yul\":9485:9613   */\n      iszero\n      tag_401\n      jumpi\n        /* \"#utility.yul\":9532:9611   */\n      tag_402\n      tag_248\n      jump\t// in\n    tag_402:\n        /* \"#utility.yul\":9485:9613   */\n    tag_401:\n        /* \"#utility.yul\":9066:9619   */\n      swap3\n      pop\n      swap3\n      swap1\n      pop\n      jump\t// out\n        /* \"#utility.yul\":9641:10221   */\n    tag_250:\n        /* \"#utility.yul\":9726:9734   */\n      0x00\n        /* \"#utility.yul\":9736:9742   */\n      0x00\n        /* \"#utility.yul\":9786:9789   */\n      dup4\n        /* \"#utility.yul\":9779:9783   */\n      0x1f\n        /* \"#utility.yul\":9771:9777   */\n      dup5\n        /* \"#utility.yul\":9767:9784   */\n      add\n        /* \"#utility.yul\":9763:9790   */\n      slt\n        /* \"#utility.yul\":9753:9875   */\n      tag_404\n      jumpi\n        /* \"#utility.yul\":9794:9873   */\n      tag_405\n      tag_246\n      jump\t// in\n    tag_405:\n        /* \"#utility.yul\":9753:9875   */\n    tag_404:\n        /* \"#utility.yul\":9907:9913   */\n      dup3\n        /* \"#utility.yul\":9894:9914   */\n      calldataload\n        /* \"#utility.yul\":9884:9914   */\n      swap1\n      pop\n        /* \"#utility.yul\":9937:9955   */\n      0xffffffffffffffff\n        /* \"#utility.yul\":9929:9935   */\n      dup2\n        /* \"#utility.yul\":9926:9956   */\n      gt\n        /* \"#utility.yul\":9923:10040   */\n      iszero\n      tag_406\n      jumpi\n        /* \"#utility.yul\":9959:10038   */\n      tag_407\n      tag_247\n      jump\t// in\n    tag_407:\n        /* \"#utility.yul\":9923:10040   */\n    tag_406:\n        /* \"#utility.yul\":10073:10077   */\n      0x20\n        /* \"#utility.yul\":10065:10071   */\n      dup4\n        /* \"#utility.yul\":10061:10078   */\n      add\n        /* \"#utility.yul\":10049:10078   */\n      swap2\n      pop\n        /* \"#utility.yul\":10127:10130   */\n      dup4\n        /* \"#utility.yul\":10119:10123   */\n      0x20\n        /* \"#utility.yul\":10111:10117   */\n      dup3\n        /* \"#utility.yul\":10107:10124   */\n      mul\n        /* \"#utility.yul\":10097:10105   */\n      dup4\n        /* \"#utility.yul\":10093:10125   */\n      add\n        /* \"#utility.yul\":10090:10131   */\n      gt\n        /* \"#utility.yul\":10087:10215   */\n      iszero\n      tag_408\n      jumpi\n        /* \"#utility.yul\":10134:10213   */\n      tag_409\n      tag_248\n      jump\t// in\n    tag_409:\n        /* \"#utility.yul\":10087:10215   */\n    tag_408:\n        /* \"#utility.yul\":9641:10221   */\n      swap3\n      pop\n      swap3\n      swap1\n      pop\n      jump\t// out\n        /* \"#utility.yul\":10227:11155   */\n    tag_34:\n        /* \"#utility.yul\":10346:10352   */\n      0x00\n        /* \"#utility.yul\":10354:10360   */\n      0x00\n        /* \"#utility.yul\":10362:10368   */\n      0x00\n        /* \"#utility.yul\":10370:10376   */\n      0x00\n        /* \"#utility.yul\":10419:10421   */\n      0x40\n        /* \"#utility.yul\":10407:10416   */\n      dup6\n        /* \"#utility.yul\":10398:10405   */\n      dup8\n        /* \"#utility.yul\":10394:10417   */\n      sub\n        /* \"#utility.yul\":10390:10422   */\n      slt\n        /* \"#utility.yul\":10387:10506   */\n      iszero\n      tag_411\n      jumpi\n        /* \"#utility.yul\":10425:10504   */\n      tag_412\n      tag_216\n      jump\t// in\n    tag_412:\n        /* \"#utility.yul\":10387:10506   */\n    tag_411:\n        /* \"#utility.yul\":10573:10574   */\n      0x00\n        /* \"#utility.yul\":10562:10571   */\n      dup6\n        /* \"#utility.yul\":10558:10575   */\n      add\n        /* \"#utility.yul\":10545:10576   */\n      calldataload\n        /* \"#utility.yul\":10603:10621   */\n      0xffffffffffffffff\n        /* \"#utility.yul\":10595:10601   */\n      dup2\n        /* \"#utility.yul\":10592:10622   */\n      gt\n        /* \"#utility.yul\":10589:10706   */\n      iszero\n      tag_413\n      jumpi\n        /* \"#utility.yul\":10625:10704   */\n      tag_414\n      tag_217\n      jump\t// in\n    tag_414:\n        /* \"#utility.yul\":10589:10706   */\n    tag_413:\n        /* \"#utility.yul\":10738:10803   */\n      tag_415\n        /* \"#utility.yul\":10795:10802   */\n      dup8\n        /* \"#utility.yul\":10786:10792   */\n      dup3\n        /* \"#utility.yul\":10775:10784   */\n      dup9\n        /* \"#utility.yul\":10771:10793   */\n      add\n        /* \"#utility.yul\":10738:10803   */\n      tag_249\n      jump\t// in\n    tag_415:\n        /* \"#utility.yul\":10720:10803   */\n      swap5\n      pop\n      swap5\n      pop\n        /* \"#utility.yul\":10516:10813   */\n      pop\n        /* \"#utility.yul\":10880:10882   */\n      0x20\n        /* \"#utility.yul\":10869:10878   */\n      dup6\n        /* \"#utility.yul\":10865:10883   */\n      add\n        /* \"#utility.yul\":10852:10884   */\n      calldataload\n        /* \"#utility.yul\":10911:10929   */\n      0xffffffffffffffff\n        /* \"#utility.yul\":10903:10909   */\n      dup2\n        /* \"#utility.yul\":10900:10930   */\n      gt\n        /* \"#utility.yul\":10897:11014   */\n      iszero\n      tag_416\n      jumpi\n        /* \"#utility.yul\":10933:11012   */\n      tag_417\n      tag_217\n      jump\t// in\n    tag_417:\n        /* \"#utility.yul\":10897:11014   */\n    tag_416:\n        /* \"#utility.yul\":11046:11138   */\n      tag_418\n        /* \"#utility.yul\":11130:11137   */\n      dup8\n        /* \"#utility.yul\":11121:11127   */\n      dup3\n        /* \"#utility.yul\":11110:11119   */\n      dup9\n        /* \"#utility.yul\":11106:11128   */\n      add\n        /* \"#utility.yul\":11046:11138   */\n      tag_250\n      jump\t// in\n    tag_418:\n        /* \"#utility.yul\":11028:11138   */\n      swap3\n      pop\n      swap3\n      pop\n        /* \"#utility.yul\":10823:11148   */\n      pop\n        /* \"#utility.yul\":10227:11155   */\n      swap3\n      swap6\n      swap2\n      swap5\n      pop\n      swap3\n      pop\n      jump\t// out\n        /* \"#utility.yul\":11161:11279   */\n    tag_251:\n        /* \"#utility.yul\":11248:11272   */\n      tag_420\n        /* \"#utility.yul\":11266:11271   */\n      dup2\n        /* \"#utility.yul\":11248:11272   */\n      tag_243\n      jump\t// in\n    tag_420:\n        /* \"#utility.yul\":11243:11246   */\n      dup3\n        /* \"#utility.yul\":11236:11273   */\n      mstore\n        /* \"#utility.yul\":11161:11279   */\n      pop\n      pop\n      jump\t// out\n        /* \"#utility.yul\":11285:11507   */\n    tag_40:\n        /* \"#utility.yul\":11378:11382   */\n      0x00\n        /* \"#utility.yul\":11416:11418   */\n      0x20\n        /* \"#utility.yul\":11405:11414   */\n      dup3\n        /* \"#utility.yul\":11401:11419   */\n      add\n        /* \"#utility.yul\":11393:11419   */\n      swap1\n      pop\n        /* \"#utility.yul\":11429:11500   */\n      tag_422\n        /* \"#utility.yul\":11497:11498   */\n      0x00\n        /* \"#utility.yul\":11486:11495   */\n      dup4\n        /* \"#utility.yul\":11482:11499   */\n      add\n        /* \"#utility.yul\":11473:11479   */\n      dup5\n        /* \"#utility.yul\":11429:11500   */\n      tag_251\n      jump\t// in\n    tag_422:\n        /* \"#utility.yul\":11285:11507   */\n      swap3\n      swap2\n      pop\n      pop\n      jump\t// out\n        /* \"#utility.yul\":11513:11842   */\n    tag_46:\n        /* \"#utility.yul\":11572:11578   */\n      0x00\n        /* \"#utility.yul\":11621:11623   */\n      0x20\n        /* \"#utility.yul\":11609:11618   */\n      dup3\n        /* \"#utility.yul\":11600:11607   */\n      dup5\n        /* \"#utility.yul\":11596:11619   */\n      sub\n        /* \"#utility.yul\":11592:11624   */\n      slt\n        /* \"#utility.yul\":11589:11708   */\n      iszero\n      tag_424\n      jumpi\n        /* \"#utility.yul\":11627:11706   */\n      tag_425\n      tag_216\n      jump\t// in\n    tag_425:\n        /* \"#utility.yul\":11589:11708   */\n    tag_424:\n        /* \"#utility.yul\":11747:11748   */\n      0x00\n        /* \"#utility.yul\":11772:11825   */\n      tag_426\n        /* \"#utility.yul\":11817:11824   */\n      dup5\n        /* \"#utility.yul\":11808:11814   */\n      dup3\n        /* \"#utility.yul\":11797:11806   */\n      dup6\n        /* \"#utility.yul\":11793:11815   */\n      add\n        /* \"#utility.yul\":11772:11825   */\n      tag_245\n      jump\t// in\n    tag_426:\n        /* \"#utility.yul\":11762:11825   */\n      swap2\n      pop\n        /* \"#utility.yul\":11718:11835   */\n      pop\n        /* \"#utility.yul\":11513:11842   */\n      swap3\n      swap2\n      pop\n      pop\n      jump\t// out\n        /* \"#utility.yul\":11848:12322   */\n    tag_54:\n        /* \"#utility.yul\":11916:11922   */\n      0x00\n        /* \"#utility.yul\":11924:11930   */\n      0x00\n        /* \"#utility.yul\":11973:11975   */\n      0x40\n        /* \"#utility.yul\":11961:11970   */\n      dup4\n        /* \"#utility.yul\":11952:11959   */\n      dup6\n        /* \"#utility.yul\":11948:11971   */\n      sub\n        /* \"#utility.yul\":11944:11976   */\n      slt\n        /* \"#utility.yul\":11941:12060   */\n      iszero\n      tag_428\n      jumpi\n        /* \"#utility.yul\":11979:12058   */\n      tag_429\n      tag_216\n      jump\t// in\n    tag_429:\n        /* \"#utility.yul\":11941:12060   */\n    tag_428:\n        /* \"#utility.yul\":12099:12100   */\n      0x00\n        /* \"#utility.yul\":12124:12177   */\n      tag_430\n        /* \"#utility.yul\":12169:12176   */\n      dup6\n        /* \"#utility.yul\":12160:12166   */\n      dup3\n        /* \"#utility.yul\":12149:12158   */\n      dup7\n        /* \"#utility.yul\":12145:12167   */\n      add\n        /* \"#utility.yul\":12124:12177   */\n      tag_219\n      jump\t// in\n    tag_430:\n        /* \"#utility.yul\":12114:12177   */\n      swap3\n      pop\n        /* \"#utility.yul\":12070:12187   */\n      pop\n        /* \"#utility.yul\":12226:12228   */\n      0x20\n        /* \"#utility.yul\":12252:12305   */\n      tag_431\n        /* \"#utility.yul\":12297:12304   */\n      dup6\n        /* \"#utility.yul\":12288:12294   */\n      dup3\n        /* \"#utility.yul\":12277:12286   */\n      dup7\n        /* \"#utility.yul\":12273:12295   */\n      add\n        /* \"#utility.yul\":12252:12305   */\n      tag_219\n      jump\t// in\n    tag_431:\n        /* \"#utility.yul\":12242:12305   */\n      swap2\n      pop\n        /* \"#utility.yul\":12197:12315   */\n      pop\n        /* \"#utility.yul\":11848:12322   */\n      swap3\n      pop\n      swap3\n      swap1\n      pop\n      jump\t// out\n        /* \"#utility.yul\":12328:12488   */\n    tag_252:\n        /* \"#utility.yul\":12468:12480   */\n      0x42616420706f6c6c496400000000000000000000000000000000000000000000\n        /* \"#utility.yul\":12464:12465   */\n      0x00\n        /* \"#utility.yul\":12456:12462   */\n      dup3\n        /* \"#utility.yul\":12452:12466   */\n      add\n        /* \"#utility.yul\":12445:12481   */\n      mstore\n        /* \"#utility.yul\":12328:12488   */\n      pop\n      jump\t// out\n        /* \"#utility.yul\":12494:12860   */\n    tag_253:\n        /* \"#utility.yul\":12636:12639   */\n      0x00\n        /* \"#utility.yul\":12657:12724   */\n      tag_434\n        /* \"#utility.yul\":12721:12723   */\n      0x0a\n        /* \"#utility.yul\":12716:12719   */\n      dup4\n        /* \"#utility.yul\":12657:12724   */\n      tag_221\n      jump\t// in\n    tag_434:\n        /* \"#utility.yul\":12650:12724   */\n      swap2\n      pop\n        /* \"#utility.yul\":12733:12826   */\n      tag_435\n        /* \"#utility.yul\":12822:12825   */\n      dup3\n        /* \"#utility.yul\":12733:12826   */\n      tag_252\n      jump\t// in\n    tag_435:\n        /* \"#utility.yul\":12851:12853   */\n      0x20\n        /* \"#utility.yul\":12846:12849   */\n      dup3\n        /* \"#utility.yul\":12842:12854   */\n      add\n        /* \"#utility.yul\":12835:12854   */\n      swap1\n      pop\n        /* \"#utility.yul\":12494:12860   */\n      swap2\n      swap1\n      pop\n      jump\t// out\n        /* \"#utility.yul\":12866:13285   */\n    tag_70:\n        /* \"#utility.yul\":13032:13036   */\n      0x00\n        /* \"#utility.yul\":13070:13072   */\n      0x20\n        /* \"#utility.yul\":13059:13068   */\n      dup3\n        /* \"#utility.yul\":13055:13073   */\n      add\n        /* \"#utility.yul\":13047:13073   */\n      swap1\n      pop\n        /* \"#utility.yul\":13119:13128   */\n      dup2\n        /* \"#utility.yul\":13113:13117   */\n      dup2\n        /* \"#utility.yul\":13109:13129   */\n      sub\n        /* \"#utility.yul\":13105:13106   */\n      0x00\n        /* \"#utility.yul\":13094:13103   */\n      dup4\n        /* \"#utility.yul\":13090:13107   */\n      add\n        /* \"#utility.yul\":13083:13130   */\n      mstore\n        /* \"#utility.yul\":13147:13278   */\n      tag_437\n        /* \"#utility.yul\":13273:13277   */\n      dup2\n        /* \"#utility.yul\":13147:13278   */\n      tag_253\n      jump\t// in\n    tag_437:\n        /* \"#utility.yul\":13139:13278   */\n      swap1\n      pop\n        /* \"#utility.yul\":12866:13285   */\n      swap2\n      swap1\n      pop\n      jump\t// out\n        /* \"#utility.yul\":13291:13471   */\n    tag_73:\n        /* \"#utility.yul\":13339:13416   */\n      0x4e487b7100000000000000000000000000000000000000000000000000000000\n        /* \"#utility.yul\":13336:13337   */\n      0x00\n        /* \"#utility.yul\":13329:13417   */\n      mstore\n        /* \"#utility.yul\":13436:13440   */\n      0x32\n        /* \"#utility.yul\":13433:13434   */\n      0x04\n        /* \"#utility.yul\":13426:13441   */\n      mstore\n        /* \"#utility.yul\":13460:13464   */\n      0x24\n        /* \"#utility.yul\":13457:13458   */\n      0x00\n        /* \"#utility.yul\":13450:13465   */\n      revert\n        /* \"#utility.yul\":13477:13657   */\n    tag_254:\n        /* \"#utility.yul\":13525:13602   */\n      0x4e487b7100000000000000000000000000000000000000000000000000000000\n        /* \"#utility.yul\":13522:13523   */\n      0x00\n        /* \"#utility.yul\":13515:13603   */\n      mstore\n        /* \"#utility.yul\":13622:13626   */\n      0x22\n        /* \"#utility.yul\":13619:13620   */\n      0x04\n        /* \"#utility.yul\":13612:13627   */\n      mstore\n        /* \"#utility.yul\":13646:13650   */\n      0x24\n        /* \"#utility.yul\":13643:13644   */\n      0x00\n        /* \"#utility.yul\":13636:13651   */\n      revert\n        /* \"#utility.yul\":13663:13983   */\n    tag_76:\n        /* \"#utility.yul\":13707:13713   */\n      0x00\n        /* \"#utility.yul\":13744:13745   */\n      0x02\n        /* \"#utility.yul\":13738:13742   */\n      dup3\n        /* \"#utility.yul\":13734:13746   */\n      div\n        /* \"#utility.yul\":13724:13746   */\n      swap1\n      pop\n        /* \"#utility.yul\":13791:13792   */\n      0x01\n        /* \"#utility.yul\":13785:13789   */\n      dup3\n        /* \"#utility.yul\":13781:13793   */\n      and\n        /* \"#utility.yul\":13812:13830   */\n      dup1\n        /* \"#utility.yul\":13802:13883   */\n      tag_441\n      jumpi\n        /* \"#utility.yul\":13868:13872   */\n      0x7f\n        /* \"#utility.yul\":13860:13866   */\n      dup3\n        /* \"#utility.yul\":13856:13873   */\n      and\n        /* \"#utility.yul\":13846:13873   */\n      swap2\n      pop\n        /* \"#utility.yul\":13802:13883   */\n    tag_441:\n        /* \"#utility.yul\":13930:13932   */\n      0x20\n        /* \"#utility.yul\":13922:13928   */\n      dup3\n        /* \"#utility.yul\":13919:13933   */\n      lt\n        /* \"#utility.yul\":13899:13917   */\n      dup2\n        /* \"#utility.yul\":13896:13934   */\n      sub\n        /* \"#utility.yul\":13893:13977   */\n      tag_442\n      jumpi\n        /* \"#utility.yul\":13949:13967   */\n      tag_443\n      tag_254\n      jump\t// in\n    tag_443:\n        /* \"#utility.yul\":13893:13977   */\n    tag_442:\n        /* \"#utility.yul\":13714:13983   */\n      pop\n        /* \"#utility.yul\":13663:13983   */\n      swap2\n      swap1\n      pop\n      jump\t// out\n        /* \"#utility.yul\":13989:14169   */\n    tag_83:\n        /* \"#utility.yul\":14037:14114   */\n      0x4e487b7100000000000000000000000000000000000000000000000000000000\n        /* \"#utility.yul\":14034:14035   */\n      0x00\n        /* \"#utility.yul\":14027:14115   */\n      mstore\n        /* \"#utility.yul\":14134:14138   */\n      0x41\n        /* \"#utility.yul\":14131:14132   */\n      0x04\n        /* \"#utility.yul\":14124:14139   */\n      mstore\n        /* \"#utility.yul\":14158:14162   */\n      0x24\n        /* \"#utility.yul\":14155:14156   */\n      0x00\n        /* \"#utility.yul\":14148:14163   */\n      revert\n        /* \"#utility.yul\":14175:14339   */\n    tag_255:\n        /* \"#utility.yul\":14315:14331   */\n      0x4e6f7420696e7374727563746f72000000000000000000000000000000000000\n        /* \"#utility.yul\":14311:14312   */\n      0x00\n        /* \"#utility.yul\":14303:14309   */\n      dup3\n        /* \"#utility.yul\":14299:14313   */\n      add\n        /* \"#utility.yul\":14292:14332   */\n      mstore\n        /* \"#utility.yul\":14175:14339   */\n      pop\n      jump\t// out\n        /* \"#utility.yul\":14345:14711   */\n    tag_256:\n        /* \"#utility.yul\":14487:14490   */\n      0x00\n        /* \"#utility.yul\":14508:14575   */\n      tag_447\n        /* \"#utility.yul\":14572:14574   */\n      0x0e\n        /* \"#utility.yul\":14567:14570   */\n      dup4\n        /* \"#utility.yul\":14508:14575   */\n      tag_221\n      jump\t// in\n    tag_447:\n        /* \"#utility.yul\":14501:14575   */\n      swap2\n      pop\n        /* \"#utility.yul\":14584:14677   */\n      tag_448\n        /* \"#utility.yul\":14673:14676   */\n      dup3\n        /* \"#utility.yul\":14584:14677   */\n      tag_255\n      jump\t// in\n    tag_448:\n        /* \"#utility.yul\":14702:14704   */\n      0x20\n        /* \"#utility.yul\":14697:14700   */\n      dup3\n        /* \"#utility.yul\":14693:14705   */\n      add\n        /* \"#utility.yul\":14686:14705   */\n      swap1\n      pop\n        /* \"#utility.yul\":14345:14711   */\n      swap2\n      swap1\n      pop\n      jump\t// out\n        /* \"#utility.yul\":14717:15136   */\n    tag_116:\n        /* \"#utility.yul\":14883:14887   */\n      0x00\n        /* \"#utility.yul\":14921:14923   */\n      0x20\n        /* \"#utility.yul\":14910:14919   */\n      dup3\n        /* \"#utility.yul\":14906:14924   */\n      add\n        /* \"#utility.yul\":14898:14924   */\n      swap1\n      pop\n        /* \"#utility.yul\":14970:14979   */\n      dup2\n        /* \"#utility.yul\":14964:14968   */\n      dup2\n        /* \"#utility.yul\":14960:14980   */\n      sub\n        /* \"#utility.yul\":14956:14957   */\n      0x00\n        /* \"#utility.yul\":14945:14954   */\n      dup4\n        /* \"#utility.yul\":14941:14958   */\n      add\n        /* \"#utility.yul\":14934:14981   */\n      mstore\n        /* \"#utility.yul\":14998:15129   */\n      tag_450\n        /* \"#utility.yul\":15124:15128   */\n      dup2\n        /* \"#utility.yul\":14998:15129   */\n      tag_256\n      jump\t// in\n    tag_450:\n        /* \"#utility.yul\":14990:15129   */\n      swap1\n      pop\n        /* \"#utility.yul\":14717:15136   */\n      swap2\n      swap1\n      pop\n      jump\t// out\n        /* \"#utility.yul\":15142:15306   */\n    tag_257:\n        /* \"#utility.yul\":15282:15298   */\n      0x456d707479207175657374696f6e000000000000000000000000000000000000\n        /* \"#utility.yul\":15278:15279   */\n      0x00\n        /* \"#utility.yul\":15270:15276   */\n      dup3\n        /* \"#utility.yul\":15266:15280   */\n      add\n        /* \"#utility.yul\":15259:15299   */\n      mstore\n        /* \"#utility.yul\":15142:15306   */\n      pop\n      jump\t// out\n        /* \"#utility.yul\":15312:15678   */\n    tag_258:\n        /* \"#utility.yul\":15454:15457   */\n      0x00\n        /* \"#utility.yul\":15475:15542   */\n      tag_453\n        /* \"#utility.yul\":15539:15541   */\n      0x0e\n        /* \"#utility.yul\":15534:15537   */\n      dup4\n        /* \"#utility.yul\":15475:15542   */\n      tag_221\n      jump\t// in\n    tag_453:\n        /* \"#utility.yul\":15468:15542   */\n      swap2\n      pop\n        /* \"#utility.yul\":15551:15644   */\n      tag_454\n        /* \"#utility.yul\":15640:15643   */\n      dup3\n        /* \"#utility.yul\":15551:15644   */\n      tag_257\n      jump\t// in\n    tag_454:\n        /* \"#utility.yul\":15669:15671   */\n      0x20\n        /* \"#utility.yul\":15664:15667   */\n      dup3\n        /* \"#utility.yul\":15660:15672   */\n      add\n        /* \"#utility.yul\":15653:15672   */\n      swap1\n      pop\n        /* \"#utility.yul\":15312:15678   */\n      swap2\n      swap1\n      pop\n      jump\t// out\n        /* \"#utility.yul\":15684:16103   */\n    tag_120:\n        /* \"#utility.yul\":15850:15854   */\n      0x00\n        /* \"#utility.yul\":15888:15890   */\n      0x20\n        /* \"#utility.yul\":15877:15886   */\n      dup3\n        /* \"#utility.yul\":15873:15891   */\n      add\n        /* \"#utility.yul\":15865:15891   */\n      swap1\n      pop\n        /* \"#utility.yul\":15937:15946   */\n      dup2\n        /* \"#utility.yul\":15931:15935   */\n      dup2\n        /* \"#utility.yul\":15927:15947   */\n      sub\n        /* \"#utility.yul\":15923:15924   */\n      0x00\n        /* \"#utility.yul\":15912:15921   */\n      dup4\n        /* \"#utility.yul\":15908:15925   */\n      add\n        /* \"#utility.yul\":15901:15948   */\n      mstore\n        /* \"#utility.yul\":15965:16096   */\n      tag_456\n        /* \"#utility.yul\":16091:16095   */\n      dup2\n        /* \"#utility.yul\":15965:16096   */\n      tag_258\n      jump\t// in\n    tag_456:\n        /* \"#utility.yul\":15957:16096   */\n      swap1\n      pop\n        /* \"#utility.yul\":15684:16103   */\n      swap2\n      swap1\n      pop\n      jump\t// out\n        /* \"#utility.yul\":16109:16276   */\n    tag_259:\n        /* \"#utility.yul\":16249:16268   */\n      0x4e65656420322d3130206f7074696f6e73000000000000000000000000000000\n        /* \"#utility.yul\":16245:16246   */\n      0x00\n        /* \"#utility.yul\":16237:16243   */\n      dup3\n        /* \"#utility.yul\":16233:16247   */\n      add\n        /* \"#utility.yul\":16226:16269   */\n      mstore\n        /* \"#utility.yul\":16109:16276   */\n      pop\n      jump\t// out\n        /* \"#utility.yul\":16282:16648   */\n    tag_260:\n        /* \"#utility.yul\":16424:16427   */\n      0x00\n        /* \"#utility.yul\":16445:16512   */\n      tag_459\n        /* \"#utility.yul\":16509:16511   */\n      0x11\n        /* \"#utility.yul\":16504:16507   */\n      dup4\n        /* \"#utility.yul\":16445:16512   */\n      tag_221\n      jump\t// in\n    tag_459:\n        /* \"#utility.yul\":16438:16512   */\n      swap2\n      pop\n        /* \"#utility.yul\":16521:16614   */\n      tag_460\n        /* \"#utility.yul\":16610:16613   */\n      dup3\n        /* \"#utility.yul\":16521:16614   */\n      tag_259\n      jump\t// in\n    tag_460:\n        /* \"#utility.yul\":16639:16641   */\n      0x20\n        /* \"#utility.yul\":16634:16637   */\n      dup3\n        /* \"#utility.yul\":16630:16642   */\n      add\n        /* \"#utility.yul\":16623:16642   */\n      swap1\n      pop\n        /* \"#utility.yul\":16282:16648   */\n      swap2\n      swap1\n      pop\n      jump\t// out\n        /* \"#utility.yul\":16654:17073   */\n    tag_124:\n        /* \"#utility.yul\":16820:16824   */\n      0x00\n        /* \"#utility.yul\":16858:16860   */\n      0x20\n        /* \"#utility.yul\":16847:16856   */\n      dup3\n        /* \"#utility.yul\":16843:16861   */\n      add\n        /* \"#utility.yul\":16835:16861   */\n      swap1\n      pop\n        /* \"#utility.yul\":16907:16916   */\n      dup2\n        /* \"#utility.yul\":16901:16905   */\n      dup2\n        /* \"#utility.yul\":16897:16917   */\n      sub\n        /* \"#utility.yul\":16893:16894   */\n      0x00\n        /* \"#utility.yul\":16882:16891   */\n      dup4\n        /* \"#utility.yul\":16878:16895   */\n      add\n        /* \"#utility.yul\":16871:16918   */\n      mstore\n        /* \"#utility.yul\":16935:17066   */\n      tag_462\n        /* \"#utility.yul\":17061:17065   */\n      dup2\n        /* \"#utility.yul\":16935:17066   */\n      tag_260\n      jump\t// in\n    tag_462:\n        /* \"#utility.yul\":16927:17066   */\n      swap1\n      pop\n        /* \"#utility.yul\":16654:17073   */\n      swap2\n      swap1\n      pop\n      jump\t// out\n        /* \"#utility.yul\":17079:17259   */\n    tag_261:\n        /* \"#utility.yul\":17127:17204   */\n      0x4e487b7100000000000000000000000000000000000000000000000000000000\n        /* \"#utility.yul\":17124:17125   */\n      0x00\n        /* \"#utility.yul\":17117:17205   */\n      mstore\n        /* \"#utility.yul\":17224:17228   */\n      0x11\n        /* \"#utility.yul\":17221:17222   */\n      0x04\n        /* \"#utility.yul\":17214:17229   */\n      mstore\n        /* \"#utility.yul\":17248:17252   */\n      0x24\n        /* \"#utility.yul\":17245:17246   */\n      0x00\n        /* \"#utility.yul\":17238:17253   */\n      revert\n        /* \"#utility.yul\":17265:17459   */\n    tag_127:\n        /* \"#utility.yul\":17305:17309   */\n      0x00\n        /* \"#utility.yul\":17325:17345   */\n      tag_465\n        /* \"#utility.yul\":17343:17344   */\n      dup3\n        /* \"#utility.yul\":17325:17345   */\n      tag_213\n      jump\t// in\n    tag_465:\n        /* \"#utility.yul\":17320:17345   */\n      swap2\n      pop\n        /* \"#utility.yul\":17359:17379   */\n      tag_466\n        /* \"#utility.yul\":17377:17378   */\n      dup4\n        /* \"#utility.yul\":17359:17379   */\n      tag_213\n      jump\t// in\n    tag_466:\n        /* \"#utility.yul\":17354:17379   */\n      swap3\n      pop\n        /* \"#utility.yul\":17403:17404   */\n      dup3\n        /* \"#utility.yul\":17400:17401   */\n      dup3\n        /* \"#utility.yul\":17396:17405   */\n      sub\n        /* \"#utility.yul\":17388:17405   */\n      swap1\n      pop\n        /* \"#utility.yul\":17427:17428   */\n      dup2\n        /* \"#utility.yul\":17421:17425   */\n      dup2\n        /* \"#utility.yul\":17418:17429   */\n      gt\n        /* \"#utility.yul\":17415:17452   */\n      iszero\n      tag_467\n      jumpi\n        /* \"#utility.yul\":17432:17450   */\n      tag_468\n      tag_261\n      jump\t// in\n    tag_468:\n        /* \"#utility.yul\":17415:17452   */\n    tag_467:\n        /* \"#utility.yul\":17265:17459   */\n      swap3\n      swap2\n      pop\n      pop\n      jump\t// out\n        /* \"#utility.yul\":17465:17562   */\n    tag_262:\n        /* \"#utility.yul\":17524:17530   */\n      0x00\n        /* \"#utility.yul\":17552:17555   */\n      dup3\n        /* \"#utility.yul\":17542:17555   */\n      swap1\n      pop\n        /* \"#utility.yul\":17465:17562   */\n      swap3\n      swap2\n      pop\n      pop\n      jump\t// out\n        /* \"#utility.yul\":17568:17709   */\n    tag_263:\n        /* \"#utility.yul\":17617:17621   */\n      0x00\n        /* \"#utility.yul\":17640:17643   */\n      dup2\n        /* \"#utility.yul\":17632:17643   */\n      swap1\n      pop\n        /* \"#utility.yul\":17663:17666   */\n      dup2\n        /* \"#utility.yul\":17660:17661   */\n      0x00\n        /* \"#utility.yul\":17653:17667   */\n      mstore\n        /* \"#utility.yul\":17697:17701   */\n      0x20\n        /* \"#utility.yul\":17694:17695   */\n      0x00\n        /* \"#utility.yul\":17684:17702   */\n      keccak256\n        /* \"#utility.yul\":17676:17702   */\n      swap1\n      pop\n        /* \"#utility.yul\":17568:17709   */\n      swap2\n      swap1\n      pop\n      jump\t// out\n        /* \"#utility.yul\":17715:17808   */\n    tag_264:\n        /* \"#utility.yul\":17752:17758   */\n      0x00\n        /* \"#utility.yul\":17799:17801   */\n      0x20\n        /* \"#utility.yul\":17794:17796   */\n      0x1f\n        /* \"#utility.yul\":17787:17792   */\n      dup4\n        /* \"#utility.yul\":17783:17797   */\n      add\n        /* \"#utility.yul\":17779:17802   */\n      div\n        /* \"#utility.yul\":17769:17802   */\n      swap1\n      pop\n        /* \"#utility.yul\":17715:17808   */\n      swap2\n      swap1\n      pop\n      jump\t// out\n        /* \"#utility.yul\":17814:17921   */\n    tag_265:\n        /* \"#utility.yul\":17858:17866   */\n      0x00\n        /* \"#utility.yul\":17908:17913   */\n      dup3\n        /* \"#utility.yul\":17902:17906   */\n      dup3\n        /* \"#utility.yul\":17898:17914   */\n      shl\n        /* \"#utility.yul\":17877:17914   */\n      swap1\n      pop\n        /* \"#utility.yul\":17814:17921   */\n      swap3\n      swap2\n      pop\n      pop\n      jump\t// out\n        /* \"#utility.yul\":17927:18320   */\n    tag_266:\n        /* \"#utility.yul\":17996:18002   */\n      0x00\n        /* \"#utility.yul\":18046:18047   */\n      0x08\n        /* \"#utility.yul\":18034:18044   */\n      dup4\n        /* \"#utility.yul\":18030:18048   */\n      mul\n        /* \"#utility.yul\":18069:18166   */\n      tag_474\n        /* \"#utility.yul\":18099:18165   */\n      0xffffffffffffffffffffffffffffffffffffffffffffffffffffffffffffffff\n        /* \"#utility.yul\":18088:18097   */\n      dup3\n        /* \"#utility.yul\":18069:18166   */\n      tag_265\n      jump\t// in\n    tag_474:\n        /* \"#utility.yul\":18187:18226   */\n      tag_475\n        /* \"#utility.yul\":18217:18225   */\n      dup7\n        /* \"#utility.yul\":18206:18215   */\n      dup4\n        /* \"#utility.yul\":18187:18226   */\n      tag_265\n      jump\t// in\n    tag_475:\n        /* \"#utility.yul\":18175:18226   */\n      swap6\n      pop\n        /* \"#utility.yul\":18259:18263   */\n      dup1\n        /* \"#utility.yul\":18255:18264   */\n      not\n        /* \"#utility.yul\":18248:18253   */\n      dup5\n        /* \"#utility.yul\":18244:18265   */\n      and\n        /* \"#utility.yul\":18235:18265   */\n      swap4\n      pop\n        /* \"#utility.yul\":18308:18312   */\n      dup1\n        /* \"#utility.yul\":18298:18306   */\n      dup7\n        /* \"#utility.yul\":18294:18313   */\n      and\n        /* \"#utility.yul\":18287:18292   */\n      dup5\n        /* \"#utility.yul\":18284:18314   */\n      or\n        /* \"#utility.yul\":18274:18314   */\n      swap3\n      pop\n        /* \"#utility.yul\":18003:18320   */\n      pop\n      pop\n        /* \"#utility.yul\":17927:18320   */\n      swap4\n      swap3\n      pop\n      pop\n      pop\n      jump\t// out\n        /* \"#utility.yul\":18326:18386   */\n    tag_267:\n        /* \"#utility.yul\":18354:18357   */\n      0x00\n        /* \"#utility.yul\":18375:18380   */\n      dup2\n        /* \"#utility.yul\":18368:18380   */\n      swap1\n      pop\n        /* \"#utility.yul\":18326:18386   */\n      swap2\n      swap1\n      pop\n      jump\t// out\n        /* \"#utility.yul\":18392:18534   */\n    tag_268:\n        /* \"#utility.yul\":18442:18451   */\n      0x00\n        /* \"#utility.yul\":18475:18528   */\n      tag_478\n        /* \"#utility.yul\":18493:18527   */\n      tag_479\n        /* \"#utility.yul\":18502:18526   */\n      tag_480\n        /* \"#utility.yul\":18520:18525   */\n      dup5\n        /* \"#utility.yul\":18502:18526   */\n      tag_213\n      jump\t// in\n    tag_480:\n        /* \"#utility.yul\":18493:18527   */\n      tag_267\n      jump\t// in\n    tag_479:\n        /* \"#utility.yul\":18475:18528   */\n      tag_213\n      jump\t// in\n    tag_478:\n        /* \"#utility.yul\":18462:18528   */\n      swap1\n      pop\n        /* \"#utility.yul\":18392:18534   */\n      swap2\n      swap1\n      pop\n      jump\t// out\n        /* \"#utility.yul\":18540:18615   */\n    tag_269:\n        /* \"#utility.yul\":18583:18586   */\n      0x00\n        /* \"#utility.yul\":18604:18609   */\n      dup2\n        /* \"#utility.yul\":18597:18609   */\n      swap1\n      pop\n        /* \"#utility.yul\":18540:18615   */\n      swap2\n      swap1\n      pop\n      jump\t// out\n        /* \"#utility.yul\":18621:18890   */\n    tag_270:\n        /* \"#utility.yul\":18731:18770   */\n      tag_483\n        /* \"#utility.yul\":18762:18769   */\n      dup4\n        /* \"#utility.yul\":18731:18770   */\n      tag_268\n      jump\t// in\n    tag_483:\n        /* \"#utility.yul\":18792:18883   */\n      tag_484\n        /* \"#utility.yul\":18841:18882   */\n      tag_485\n        /* \"#utility.yul\":18865:18881   */\n      dup3\n        /* \"#utility.yul\":18841:18882   */\n      tag_269\n      jump\t// in\n    tag_485:\n        /* \"#utility.yul\":18833:18839   */\n      dup5\n        /* \"#utility.yul\":18826:18830   */\n      dup5\n        /* \"#utility.yul\":18820:18831   */\n      sload\n        /* \"#utility.yul\":18792:18883   */\n      tag_266\n      jump\t// in\n    tag_484:\n        /* \"#utility.yul\":18786:18790   */\n      dup3\n        /* \"#utility.yul\":18779:18884   */\n      sstore\n        /* \"#utility.yul\":18697:18890   */\n      pop\n        /* \"#utility.yul\":18621:18890   */\n      pop\n      pop\n      pop\n      jump\t// out\n        /* \"#utility.yul\":18896:18969   */\n    tag_271:\n        /* \"#utility.yul\":18941:18944   */\n      0x00\n        /* \"#utility.yul\":18962:18963   */\n      0x00\n        /* \"#utility.yul\":18955:18963   */\n      swap1\n      pop\n        /* \"#utility.yul\":18896:18969   */\n      swap1\n      jump\t// out\n        /* \"#utility.yul\":18975:19164   */\n    tag_272:\n        /* \"#utility.yul\":19052:19084   */\n      tag_488\n      tag_271\n      jump\t// in\n    tag_488:\n        /* \"#utility.yul\":19093:19158   */\n      tag_489\n        /* \"#utility.yul\":19151:19157   */\n      dup2\n        /* \"#utility.yul\":19143:19149   */\n      dup5\n        /* \"#utility.yul\":19137:19141   */\n      dup5\n        /* \"#utility.yul\":19093:19158   */\n      tag_270\n      jump\t// in\n    tag_489:\n        /* \"#utility.yul\":19028:19164   */\n      pop\n        /* \"#utility.yul\":18975:19164   */\n      pop\n      pop\n      jump\t// out\n        /* \"#utility.yul\":19170:19356   */\n    tag_273:\n        /* \"#utility.yul\":19230:19350   */\n    tag_491:\n        /* \"#utility.yul\":19247:19250   */\n      dup2\n        /* \"#utility.yul\":19240:19245   */\n      dup2\n        /* \"#utility.yul\":19237:19251   */\n      lt\n        /* \"#utility.yul\":19230:19350   */\n      iszero\n      tag_493\n      jumpi\n        /* \"#utility.yul\":19301:19340   */\n      tag_494\n        /* \"#utility.yul\":19338:19339   */\n      0x00\n        /* \"#utility.yul\":19331:19336   */\n      dup3\n        /* \"#utility.yul\":19301:19340   */\n      tag_272\n      jump\t// in\n    tag_494:\n        /* \"#utility.yul\":19274:19275   */\n      0x01\n        /* \"#utility.yul\":19267:19272   */\n      dup2\n        /* \"#utility.yul\":19263:19276   */\n      add\n        /* \"#utility.yul\":19254:19276   */\n      swap1\n      pop\n        /* \"#utility.yul\":19230:19350   */\n      jump(tag_491)\n    tag_493:\n        /* \"#utility.yul\":19170:19356   */\n      pop\n      pop\n      jump\t// out\n        /* \"#utility.yul\":19362:19905   */\n    tag_274:\n        /* \"#utility.yul\":19463:19465   */\n      0x1f\n        /* \"#utility.yul\":19458:19461   */\n      dup3\n        /* \"#utility.yul\":19455:19466   */\n      gt\n        /* \"#utility.yul\":19452:19898   */\n      iszero\n      tag_496\n      jumpi\n        /* \"#utility.yul\":19497:19535   */\n      tag_497\n        /* \"#utility.yul\":19529:19534   */\n      dup2\n        /* \"#utility.yul\":19497:19535   */\n      tag_263\n      jump\t// in\n    tag_497:\n        /* \"#utility.yul\":19581:19610   */\n      tag_498\n        /* \"#utility.yul\":19599:19609   */\n      dup5\n        /* \"#utility.yul\":19581:19610   */\n      tag_264\n      jump\t// in\n    tag_498:\n        /* \"#utility.yul\":19571:19579   */\n      dup2\n        /* \"#utility.yul\":19567:19611   */\n      add\n        /* \"#utility.yul\":19764:19766   */\n      0x20\n        /* \"#utility.yul\":19752:19762   */\n      dup6\n        /* \"#utility.yul\":19749:19767   */\n      lt\n        /* \"#utility.yul\":19746:19795   */\n      iszero\n      tag_499\n      jumpi\n        /* \"#utility.yul\":19785:19793   */\n      dup2\n        /* \"#utility.yul\":19770:19793   */\n      swap1\n      pop\n        /* \"#utility.yul\":19746:19795   */\n    tag_499:\n        /* \"#utility.yul\":19808:19888   */\n      tag_500\n        /* \"#utility.yul\":19864:19886   */\n      tag_501\n        /* \"#utility.yul\":19882:19885   */\n      dup6\n        /* \"#utility.yul\":19864:19886   */\n      tag_264\n      jump\t// in\n    tag_501:\n        /* \"#utility.yul\":19854:19862   */\n      dup4\n        /* \"#utility.yul\":19850:19887   */\n      add\n        /* \"#utility.yul\":19837:19848   */\n      dup3\n        /* \"#utility.yul\":19808:19888   */\n      tag_273\n      jump\t// in\n    tag_500:\n        /* \"#utility.yul\":19467:19898   */\n      pop\n      pop\n        /* \"#utility.yul\":19452:19898   */\n    tag_496:\n        /* \"#utility.yul\":19362:19905   */\n      pop\n      pop\n      pop\n      jump\t// out\n        /* \"#utility.yul\":19911:20028   */\n    tag_275:\n        /* \"#utility.yul\":19965:19973   */\n      0x00\n        /* \"#utility.yul\":20015:20020   */\n      dup3\n        /* \"#utility.yul\":20009:20013   */\n      dup3\n        /* \"#utility.yul\":20005:20021   */\n      shr\n        /* \"#utility.yul\":19984:20021   */\n      swap1\n      pop\n        /* \"#utility.yul\":19911:20028   */\n      swap3\n      swap2\n      pop\n      pop\n      jump\t// out\n        /* \"#utility.yul\":20034:20203   */\n    tag_276:\n        /* \"#utility.yul\":20078:20084   */\n      0x00\n        /* \"#utility.yul\":20111:20162   */\n      tag_504\n        /* \"#utility.yul\":20159:20160   */\n      0x00\n        /* \"#utility.yul\":20155:20161   */\n      not\n        /* \"#utility.yul\":20147:20152   */\n      dup5\n        /* \"#utility.yul\":20144:20145   */\n      0x08\n        /* \"#utility.yul\":20140:20153   */\n      mul\n        /* \"#utility.yul\":20111:20162   */\n      tag_275\n      jump\t// in\n    tag_504:\n        /* \"#utility.yul\":20107:20163   */\n      not\n        /* \"#utility.yul\":20192:20196   */\n      dup1\n        /* \"#utility.yul\":20186:20190   */\n      dup4\n        /* \"#utility.yul\":20182:20197   */\n      and\n        /* \"#utility.yul\":20172:20197   */\n      swap2\n      pop\n        /* \"#utility.yul\":20085:20203   */\n      pop\n        /* \"#utility.yul\":20034:20203   */\n      swap3\n      swap2\n      pop\n      pop\n      jump\t// out\n        /* \"#utility.yul\":20208:20503   */\n    tag_277:\n        /* \"#utility.yul\":20284:20288   */\n      0x00\n        /* \"#utility.yul\":20430:20459   */\n      tag_506\n        /* \"#utility.yul\":20455:20458   */\n      dup4\n        /* \"#utility.yul\":20449:20453   */\n      dup4\n        /* \"#utility.yul\":20430:20459   */\n      tag_276\n      jump\t// in\n    tag_506:\n        /* \"#utility.yul\":20422:20459   */\n      swap2\n      pop\n        /* \"#utility.yul\":20492:20495   */\n      dup3\n        /* \"#utility.yul\":20489:20490   */\n      0x02\n        /* \"#utility.yul\":20485:20496   */\n      mul\n        /* \"#utility.yul\":20479:20483   */\n      dup3\n        /* \"#utility.yul\":20476:20497   */\n      or\n        /* \"#utility.yul\":20468:20497   */\n      swap1\n      pop\n        /* \"#utility.yul\":20208:20503   */\n      swap3\n      swap2\n      pop\n      pop\n      jump\t// out\n        /* \"#utility.yul\":20508:21911   */\n    tag_132:\n        /* \"#utility.yul\":20632:20676   */\n      tag_508\n        /* \"#utility.yul\":20672:20675   */\n      dup4\n        /* \"#utility.yul\":20667:20670   */\n      dup4\n        /* \"#utility.yul\":20632:20676   */\n      tag_262\n      jump\t// in\n    tag_508:\n        /* \"#utility.yul\":20741:20759   */\n      0xffffffffffffffff\n        /* \"#utility.yul\":20733:20739   */\n      dup2\n        /* \"#utility.yul\":20730:20760   */\n      gt\n        /* \"#utility.yul\":20727:20783   */\n      iszero\n      tag_509\n      jumpi\n        /* \"#utility.yul\":20763:20781   */\n      tag_510\n      tag_83\n      jump\t// in\n    tag_510:\n        /* \"#utility.yul\":20727:20783   */\n    tag_509:\n        /* \"#utility.yul\":20807:20845   */\n      tag_511\n        /* \"#utility.yul\":20839:20843   */\n      dup3\n        /* \"#utility.yul\":20833:20844   */\n      sload\n        /* \"#utility.yul\":20807:20845   */\n      tag_76\n      jump\t// in\n    tag_511:\n        /* \"#utility.yul\":20892:20959   */\n      tag_512\n        /* \"#utility.yul\":20952:20958   */\n      dup3\n        /* \"#utility.yul\":20944:20950   */\n      dup3\n        /* \"#utility.yul\":20938:20942   */\n      dup6\n        /* \"#utility.yul\":20892:20959   */\n      tag_274\n      jump\t// in\n    tag_512:\n        /* \"#utility.yul\":20986:20987   */\n      0x00\n        /* \"#utility.yul\":21015:21017   */\n      0x1f\n        /* \"#utility.yul\":21007:21013   */\n      dup4\n        /* \"#utility.yul\":21004:21018   */\n      gt\n        /* \"#utility.yul\":21032:21033   */\n      0x01\n        /* \"#utility.yul\":21027:21659   */\n      dup2\n      eq\n      tag_514\n      jumpi\n        /* \"#utility.yul\":21703:21704   */\n      0x00\n        /* \"#utility.yul\":21720:21726   */\n      dup5\n        /* \"#utility.yul\":21717:21801   */\n      iszero\n      tag_515\n      jumpi\n        /* \"#utility.yul\":21776:21785   */\n      dup3\n        /* \"#utility.yul\":21771:21774   */\n      dup8\n        /* \"#utility.yul\":21767:21786   */\n      add\n        /* \"#utility.yul\":21754:21787   */\n      calldataload\n        /* \"#utility.yul\":21745:21787   */\n      swap1\n      pop\n        /* \"#utility.yul\":21717:21801   */\n    tag_515:\n        /* \"#utility.yul\":21827:21894   */\n      tag_516\n        /* \"#utility.yul\":21887:21893   */\n      dup6\n        /* \"#utility.yul\":21880:21885   */\n      dup3\n        /* \"#utility.yul\":21827:21894   */\n      tag_277\n      jump\t// in\n    tag_516:\n        /* \"#utility.yul\":21821:21825   */\n      dup7\n        /* \"#utility.yul\":21814:21895   */\n      sstore\n        /* \"#utility.yul\":21676:21905   */\n      pop\n        /* \"#utility.yul\":20997:21905   */\n      jump(tag_513)\n        /* \"#utility.yul\":21027:21659   */\n    tag_514:\n        /* \"#utility.yul\":21079:21083   */\n      0x1f\n        /* \"#utility.yul\":21075:21084   */\n      not\n        /* \"#utility.yul\":21067:21073   */\n      dup5\n        /* \"#utility.yul\":21063:21085   */\n      and\n        /* \"#utility.yul\":21113:21150   */\n      tag_517\n        /* \"#utility.yul\":21145:21149   */\n      dup7\n        /* \"#utility.yul\":21113:21150   */\n      tag_263\n      jump\t// in\n    tag_517:\n        /* \"#utility.yul\":21172:21173   */\n      0x00\n        /* \"#utility.yul\":21186:21401   */\n    tag_518:\n        /* \"#utility.yul\":21200:21207   */\n      dup3\n        /* \"#utility.yul\":21197:21198   */\n      dup2\n        /* \"#utility.yul\":21194:21208   */\n      lt\n        /* \"#utility.yul\":21186:21401   */\n      iszero\n      tag_520\n      jumpi\n        /* \"#utility.yul\":21286:21295   */\n      dup5\n        /* \"#utility.yul\":21281:21284   */\n      dup10\n        /* \"#utility.yul\":21277:21296   */\n      add\n        /* \"#utility.yul\":21264:21297   */\n      calldataload\n        /* \"#utility.yul\":21256:21262   */\n      dup3\n        /* \"#utility.yul\":21249:21298   */\n      sstore\n        /* \"#utility.yul\":21337:21338   */\n      0x01\n        /* \"#utility.yul\":21329:21335   */\n      dup3\n        /* \"#utility.yul\":21325:21339   */\n      add\n        /* \"#utility.yul\":21315:21339   */\n      swap2\n      pop\n        /* \"#utility.yul\":21384:21386   */\n      0x20\n        /* \"#utility.yul\":21373:21382   */\n      dup6\n        /* \"#utility.yul\":21369:21387   */\n      add\n        /* \"#utility.yul\":21356:21387   */\n      swap5\n      pop\n        /* \"#utility.yul\":21223:21227   */\n      0x20\n        /* \"#utility.yul\":21220:21221   */\n      dup2\n        /* \"#utility.yul\":21216:21228   */\n      add\n        /* \"#utility.yul\":21211:21228   */\n      swap1\n      pop\n        /* \"#utility.yul\":21186:21401   */\n      jump(tag_518)\n    tag_520:\n        /* \"#utility.yul\":21429:21435   */\n      dup7\n        /* \"#utility.yul\":21420:21427   */\n      dup4\n        /* \"#utility.yul\":21417:21436   */\n      lt\n        /* \"#utility.yul\":21414:21600   */\n      iszero\n      tag_521\n      jumpi\n        /* \"#utility.yul\":21494:21503   */\n      dup5\n        /* \"#utility.yul\":21489:21492   */\n      dup10\n        /* \"#utility.yul\":21485:21504   */\n      add\n        /* \"#utility.yul\":21472:21505   */\n      calldataload\n        /* \"#utility.yul\":21537:21585   */\n      tag_522\n        /* \"#utility.yul\":21579:21583   */\n      0x1f\n        /* \"#utility.yul\":21571:21577   */\n      dup10\n        /* \"#utility.yul\":21567:21584   */\n      and\n        /* \"#utility.yul\":21556:21565   */\n      dup3\n        /* \"#utility.yul\":21537:21585   */\n      tag_276\n      jump\t// in\n    tag_522:\n        /* \"#utility.yul\":21529:21535   */\n      dup4\n        /* \"#utility.yul\":21522:21586   */\n      sstore\n        /* \"#utility.yul\":21437:21600   */\n      pop\n        /* \"#utility.yul\":21414:21600   */\n    tag_521:\n        /* \"#utility.yul\":21646:21647   */\n      0x01\n        /* \"#utility.yul\":21642:21643   */\n      0x02\n        /* \"#utility.yul\":21634:21640   */\n      dup9\n        /* \"#utility.yul\":21630:21644   */\n      mul\n        /* \"#utility.yul\":21626:21648   */\n      add\n        /* \"#utility.yul\":21620:21624   */\n      dup9\n        /* \"#utility.yul\":21613:21649   */\n      sstore\n        /* \"#utility.yul\":21034:21659   */\n      pop\n      pop\n      pop\n        /* \"#utility.yul\":20997:21905   */\n    tag_513:\n      pop\n        /* \"#utility.yul\":20607:21911   */\n      pop\n      pop\n      pop\n        /* \"#utility.yul\":20508:21911   */\n      pop\n      pop\n      pop\n      jump\t// out\n        /* \"#utility.yul\":21917:22034   */\n    tag_278:\n        /* \"#utility.yul\":22026:22027   */\n      0x00\n        /* \"#utility.yul\":22023:22024   */\n      0x00\n        /* \"#utility.yul\":22016:22028   */\n      revert\n        /* \"#utility.yul\":22040:22157   */\n    tag_279:\n        /* \"#utility.yul\":22149:22150   */\n      0x00\n        /* \"#utility.yul\":22146:22147   */\n      0x00\n        /* \"#utility.yul\":22139:22151   */\n      revert\n        /* \"#utility.yul\":22163:22280   */\n    tag_280:\n        /* \"#utility.yul\":22272:22273   */\n      0x00\n        /* \"#utility.yul\":22269:22270   */\n      0x00\n        /* \"#utility.yul\":22262:22274   */\n      revert\n        /* \"#utility.yul\":22286:23011   */\n    tag_139:\n        /* \"#utility.yul\":22364:22368   */\n      0x00\n        /* \"#utility.yul\":22370:22376   */\n      0x00\n        /* \"#utility.yul\":22426:22437   */\n      dup4\n        /* \"#utility.yul\":22413:22438   */\n      calldataload\n        /* \"#utility.yul\":22526:22527   */\n      0x01\n        /* \"#utility.yul\":22520:22524   */\n      0x20\n        /* \"#utility.yul\":22516:22528   */\n      sub\n        /* \"#utility.yul\":22505:22513   */\n      dup5\n        /* \"#utility.yul\":22489:22503   */\n      calldatasize\n        /* \"#utility.yul\":22485:22514   */\n      sub\n        /* \"#utility.yul\":22481:22529   */\n      sub\n        /* \"#utility.yul\":22461:22479   */\n      dup2\n        /* \"#utility.yul\":22457:22530   */\n      slt\n        /* \"#utility.yul\":22447:22615   */\n      tag_527\n      jumpi\n        /* \"#utility.yul\":22534:22613   */\n      tag_528\n      tag_278\n      jump\t// in\n    tag_528:\n        /* \"#utility.yul\":22447:22615   */\n    tag_527:\n        /* \"#utility.yul\":22646:22664   */\n      dup1\n        /* \"#utility.yul\":22636:22644   */\n      dup5\n        /* \"#utility.yul\":22632:22665   */\n      add\n        /* \"#utility.yul\":22624:22665   */\n      swap3\n      pop\n        /* \"#utility.yul\":22698:22702   */\n      dup3\n        /* \"#utility.yul\":22685:22703   */\n      calldataload\n        /* \"#utility.yul\":22675:22703   */\n      swap2\n      pop\n        /* \"#utility.yul\":22726:22744   */\n      0xffffffffffffffff\n        /* \"#utility.yul\":22718:22724   */\n      dup3\n        /* \"#utility.yul\":22715:22745   */\n      gt\n        /* \"#utility.yul\":22712:22829   */\n      iszero\n      tag_529\n      jumpi\n        /* \"#utility.yul\":22748:22827   */\n      tag_530\n      tag_279\n      jump\t// in\n    tag_530:\n        /* \"#utility.yul\":22712:22829   */\n    tag_529:\n        /* \"#utility.yul\":22856:22858   */\n      0x20\n        /* \"#utility.yul\":22850:22854   */\n      dup4\n        /* \"#utility.yul\":22846:22859   */\n      add\n        /* \"#utility.yul\":22838:22859   */\n      swap3\n      pop\n        /* \"#utility.yul\":22913:22917   */\n      0x01\n        /* \"#utility.yul\":22905:22911   */\n      dup3\n        /* \"#utility.yul\":22901:22918   */\n      mul\n        /* \"#utility.yul\":22885:22899   */\n      calldatasize\n        /* \"#utility.yul\":22881:22919   */\n      sub\n        /* \"#utility.yul\":22875:22879   */\n      dup4\n        /* \"#utility.yul\":22871:22920   */\n      sgt\n        /* \"#utility.yul\":22868:23004   */\n      iszero\n      tag_531\n      jumpi\n        /* \"#utility.yul\":22923:23002   */\n      tag_532\n      tag_280\n      jump\t// in\n    tag_532:\n        /* \"#utility.yul\":22868:23004   */\n    tag_531:\n        /* \"#utility.yul\":22377:23011   */\n      pop\n        /* \"#utility.yul\":22286:23011   */\n      swap3\n      pop\n      swap3\n      swap1\n      pop\n      jump\t// out\n        /* \"#utility.yul\":23017:23179   */\n    tag_281:\n        /* \"#utility.yul\":23157:23171   */\n      0x456d707479206f7074696f6e0000000000000000000000000000000000000000\n        /* \"#utility.yul\":23153:23154   */\n      0x00\n        /* \"#utility.yul\":23145:23151   */\n      dup3\n        /* \"#utility.yul\":23141:23155   */\n      add\n        /* \"#utility.yul\":23134:23172   */\n      mstore\n        /* \"#utility.yul\":23017:23179   */\n      pop\n      jump\t// out\n        /* \"#utility.yul\":23185:23551   */\n    tag_282:\n        /* \"#utility.yul\":23327:23330   */\n      0x00\n        /* \"#utility.yul\":23348:23415   */\n      tag_535\n        /* \"#utility.yul\":23412:23414   */\n      0x0c\n        /* \"#utility.yul\":23407:23410   */\n      dup4\n        /* \"#utility.yul\":23348:23415   */\n      tag_221\n      jump\t// in\n    tag_535:\n        /* \"#utility.yul\":23341:23415   */\n      swap2\n      pop\n        /* \"#utility.yul\":23424:23517   */\n      tag_536\n        /* \"#utility.yul\":23513:23516   */\n      dup3\n        /* \"#utility.yul\":23424:23517   */\n      tag_281\n      jump\t// in\n    tag_536:\n        /* \"#utility.yul\":23542:23544   */\n      0x20\n        /* \"#utility.yul\":23537:23540   */\n      dup3\n        /* \"#utility.yul\":23533:23545   */\n      add\n        /* \"#utility.yul\":23526:23545   */\n      swap1\n      pop\n        /* \"#utility.yul\":23185:23551   */\n      swap2\n      swap1\n      pop\n      jump\t// out\n        /* \"#utility.yul\":23557:23976   */\n    tag_142:\n        /* \"#utility.yul\":23723:23727   */\n      0x00\n        /* \"#utility.yul\":23761:23763   */\n      0x20\n        /* \"#utility.yul\":23750:23759   */\n      dup3\n        /* \"#utility.yul\":23746:23764   */\n      add\n        /* \"#utility.yul\":23738:23764   */\n      swap1\n      pop\n        /* \"#utility.yul\":23810:23819   */\n      dup2\n        /* \"#utility.yul\":23804:23808   */\n      dup2\n        /* \"#utility.yul\":23800:23820   */\n      sub\n        /* \"#utility.yul\":23796:23797   */\n      0x00\n        /* \"#utility.yul\":23785:23794   */\n      dup4\n        /* \"#utility.yul\":23781:23798   */\n      add\n        /* \"#utility.yul\":23774:23821   */\n      mstore\n        /* \"#utility.yul\":23838:23969   */\n      tag_538\n        /* \"#utility.yul\":23964:23968   */\n      dup2\n        /* \"#utility.yul\":23838:23969   */\n      tag_282\n      jump\t// in\n    tag_538:\n        /* \"#utility.yul\":23830:23969   */\n      swap1\n      pop\n        /* \"#utility.yul\":23557:23976   */\n      swap2\n      swap1\n      pop\n      jump\t// out\n        /* \"#utility.yul\":23982:24130   */\n    tag_283:\n        /* \"#utility.yul\":24080:24086   */\n      dup3\n        /* \"#utility.yul\":24075:24078   */\n      dup2\n        /* \"#utility.yul\":24070:24073   */\n      dup4\n        /* \"#utility.yul\":24057:24087   */\n      calldatacopy\n        /* \"#utility.yul\":24121:24122   */\n      0x00\n        /* \"#utility.yul\":24112:24118   */\n      dup4\n        /* \"#utility.yul\":24107:24110   */\n      dup4\n        /* \"#utility.yul\":24103:24119   */\n      add\n        /* \"#utility.yul\":24096:24123   */\n      mstore\n        /* \"#utility.yul\":23982:24130   */\n      pop\n      pop\n      pop\n      jump\t// out\n        /* \"#utility.yul\":24160:24477   */\n    tag_284:\n        /* \"#utility.yul\":24258:24261   */\n      0x00\n        /* \"#utility.yul\":24279:24350   */\n      tag_541\n        /* \"#utility.yul\":24343:24349   */\n      dup4\n        /* \"#utility.yul\":24338:24341   */\n      dup6\n        /* \"#utility.yul\":24279:24350   */\n      tag_221\n      jump\t// in\n    tag_541:\n        /* \"#utility.yul\":24272:24350   */\n      swap4\n      pop\n        /* \"#utility.yul\":24360:24416   */\n      tag_542\n        /* \"#utility.yul\":24409:24415   */\n      dup4\n        /* \"#utility.yul\":24404:24407   */\n      dup6\n        /* \"#utility.yul\":24397:24402   */\n      dup5\n        /* \"#utility.yul\":24360:24416   */\n      tag_283\n      jump\t// in\n    tag_542:\n        /* \"#utility.yul\":24441:24470   */\n      tag_543\n        /* \"#utility.yul\":24463:24469   */\n      dup4\n        /* \"#utility.yul\":24441:24470   */\n      tag_223\n      jump\t// in\n    tag_543:\n        /* \"#utility.yul\":24436:24439   */\n      dup5\n        /* \"#utility.yul\":24432:24471   */\n      add\n        /* \"#utility.yul\":24425:24471   */\n      swap1\n      pop\n        /* \"#utility.yul\":24160:24477   */\n      swap4\n      swap3\n      pop\n      pop\n      pop\n      jump\t// out\n        /* \"#utility.yul\":24483:24601   */\n    tag_285:\n        /* \"#utility.yul\":24554:24560   */\n      0x00\n        /* \"#utility.yul\":24588:24593   */\n      dup2\n        /* \"#utility.yul\":24582:24594   */\n      sload\n        /* \"#utility.yul\":24572:24594   */\n      swap1\n      pop\n        /* \"#utility.yul\":24483:24601   */\n      swap2\n      swap1\n      pop\n      jump\t// out\n        /* \"#utility.yul\":24607:24770   */\n    tag_286:\n        /* \"#utility.yul\":24678:24682   */\n      0x00\n        /* \"#utility.yul\":24701:24704   */\n      dup2\n        /* \"#utility.yul\":24693:24704   */\n      swap1\n      pop\n        /* \"#utility.yul\":24724:24727   */\n      dup2\n        /* \"#utility.yul\":24721:24722   */\n      0x00\n        /* \"#utility.yul\":24714:24728   */\n      mstore\n        /* \"#utility.yul\":24758:24762   */\n      0x20\n        /* \"#utility.yul\":24755:24756   */\n      0x00\n        /* \"#utility.yul\":24745:24763   */\n      keccak256\n        /* \"#utility.yul\":24737:24763   */\n      swap1\n      pop\n        /* \"#utility.yul\":24607:24770   */\n      swap2\n      swap1\n      pop\n      jump\t// out\n        /* \"#utility.yul\":24800:25611   */\n    tag_287:\n        /* \"#utility.yul\":24875:24878   */\n      0x00\n        /* \"#utility.yul\":24912:24917   */\n      dup2\n        /* \"#utility.yul\":24906:24918   */\n      sload\n        /* \"#utility.yul\":24941:24977   */\n      tag_547\n        /* \"#utility.yul\":24967:24976   */\n      dup2\n        /* \"#utility.yul\":24941:24977   */\n      tag_76\n      jump\t// in\n    tag_547:\n        /* \"#utility.yul\":24993:25054   */\n      tag_548\n        /* \"#utility.yul\":25047:25053   */\n      dup2\n        /* \"#utility.yul\":25042:25045   */\n      dup7\n        /* \"#utility.yul\":24993:25054   */\n      tag_228\n      jump\t// in\n    tag_548:\n        /* \"#utility.yul\":24986:25054   */\n      swap5\n      pop\n        /* \"#utility.yul\":25085:25086   */\n      0x01\n        /* \"#utility.yul\":25074:25083   */\n      dup3\n        /* \"#utility.yul\":25070:25087   */\n      and\n        /* \"#utility.yul\":25101:25102   */\n      0x00\n        /* \"#utility.yul\":25096:25260   */\n      dup2\n      eq\n      tag_550\n      jumpi\n        /* \"#utility.yul\":25274:25275   */\n      0x01\n        /* \"#utility.yul\":25269:25605   */\n      dup2\n      eq\n      tag_551\n      jumpi\n        /* \"#utility.yul\":25063:25605   */\n      jump(tag_549)\n        /* \"#utility.yul\":25096:25260   */\n    tag_550:\n        /* \"#utility.yul\":25180:25184   */\n      0xff\n        /* \"#utility.yul\":25176:25185   */\n      not\n        /* \"#utility.yul\":25165:25174   */\n      dup4\n        /* \"#utility.yul\":25161:25186   */\n      and\n        /* \"#utility.yul\":25156:25159   */\n      dup7\n        /* \"#utility.yul\":25149:25187   */\n      mstore\n        /* \"#utility.yul\":25240:25246   */\n      dup2\n        /* \"#utility.yul\":25233:25247   */\n      iszero\n        /* \"#utility.yul\":25226:25248   */\n      iszero\n        /* \"#utility.yul\":25220:25224   */\n      0x20\n        /* \"#utility.yul\":25216:25249   */\n      mul\n        /* \"#utility.yul\":25211:25214   */\n      dup7\n        /* \"#utility.yul\":25207:25250   */\n      add\n        /* \"#utility.yul\":25200:25250   */\n      swap4\n      pop\n        /* \"#utility.yul\":25096:25260   */\n      jump(tag_549)\n        /* \"#utility.yul\":25269:25605   */\n    tag_551:\n        /* \"#utility.yul\":25336:25374   */\n      tag_552\n        /* \"#utility.yul\":25368:25373   */\n      dup6\n        /* \"#utility.yul\":25336:25374   */\n      tag_263\n      jump\t// in\n    tag_552:\n        /* \"#utility.yul\":25396:25397   */\n      0x00\n        /* \"#utility.yul\":25410:25564   */\n    tag_553:\n        /* \"#utility.yul\":25424:25430   */\n      dup4\n        /* \"#utility.yul\":25421:25422   */\n      dup2\n        /* \"#utility.yul\":25418:25431   */\n      lt\n        /* \"#utility.yul\":25410:25564   */\n      iszero\n      tag_555\n      jumpi\n        /* \"#utility.yul\":25498:25505   */\n      dup2\n        /* \"#utility.yul\":25492:25506   */\n      sload\n        /* \"#utility.yul\":25488:25489   */\n      dup2\n        /* \"#utility.yul\":25483:25486   */\n      dup10\n        /* \"#utility.yul\":25479:25490   */\n      add\n        /* \"#utility.yul\":25472:25507   */\n      mstore\n        /* \"#utility.yul\":25548:25549   */\n      0x01\n        /* \"#utility.yul\":25539:25546   */\n      dup3\n        /* \"#utility.yul\":25535:25550   */\n      add\n        /* \"#utility.yul\":25524:25550   */\n      swap2\n      pop\n        /* \"#utility.yul\":25446:25450   */\n      0x20\n        /* \"#utility.yul\":25443:25444   */\n      dup2\n        /* \"#utility.yul\":25439:25451   */\n      add\n        /* \"#utility.yul\":25434:25451   */\n      swap1\n      pop\n        /* \"#utility.yul\":25410:25564   */\n      jump(tag_553)\n    tag_555:\n        /* \"#utility.yul\":25593:25594   */\n      dup1\n        /* \"#utility.yul\":25588:25591   */\n      dup9\n        /* \"#utility.yul\":25584:25595   */\n      add\n        /* \"#utility.yul\":25577:25595   */\n      swap6\n      pop\n        /* \"#utility.yul\":25276:25605   */\n      pop\n      pop\n        /* \"#utility.yul\":25063:25605   */\n    tag_549:\n      pop\n        /* \"#utility.yul\":24879:25611   */\n      pop\n      pop\n        /* \"#utility.yul\":24800:25611   */\n      swap3\n      swap2\n      pop\n      pop\n      jump\t// out\n        /* \"#utility.yul\":25617:25807   */\n    tag_288:\n        /* \"#utility.yul\":25703:25713   */\n      0x00\n        /* \"#utility.yul\":25738:25801   */\n      tag_557\n        /* \"#utility.yul\":25797:25800   */\n      dup4\n        /* \"#utility.yul\":25789:25795   */\n      dup4\n        /* \"#utility.yul\":25738:25801   */\n      tag_287\n      jump\t// in\n    tag_557:\n        /* \"#utility.yul\":25724:25801   */\n      swap1\n      pop\n        /* \"#utility.yul\":25617:25807   */\n      swap3\n      swap2\n      pop\n      pop\n      jump\t// out\n        /* \"#utility.yul\":25813:25930   */\n    tag_289:\n        /* \"#utility.yul\":25887:25891   */\n      0x00\n        /* \"#utility.yul\":25919:25923   */\n      0x01\n        /* \"#utility.yul\":25914:25917   */\n      dup3\n        /* \"#utility.yul\":25910:25924   */\n      add\n        /* \"#utility.yul\":25902:25924   */\n      swap1\n      pop\n        /* \"#utility.yul\":25813:25930   */\n      swap2\n      swap1\n      pop\n      jump\t// out\n        /* \"#utility.yul\":25964:26921   */\n    tag_290:\n        /* \"#utility.yul\":26097:26100   */\n      0x00\n        /* \"#utility.yul\":26126:26184   */\n      tag_560\n        /* \"#utility.yul\":26178:26183   */\n      dup3\n        /* \"#utility.yul\":26126:26184   */\n      tag_285\n      jump\t// in\n    tag_560:\n        /* \"#utility.yul\":26200:26296   */\n      tag_561\n        /* \"#utility.yul\":26289:26295   */\n      dup2\n        /* \"#utility.yul\":26284:26287   */\n      dup6\n        /* \"#utility.yul\":26200:26296   */\n      tag_226\n      jump\t// in\n    tag_561:\n        /* \"#utility.yul\":26193:26296   */\n      swap4\n      pop\n        /* \"#utility.yul\":26322:26325   */\n      dup4\n        /* \"#utility.yul\":26367:26371   */\n      0x20\n        /* \"#utility.yul\":26359:26365   */\n      dup3\n        /* \"#utility.yul\":26355:26372   */\n      mul\n        /* \"#utility.yul\":26350:26353   */\n      dup6\n        /* \"#utility.yul\":26346:26373   */\n      add\n        /* \"#utility.yul\":26397:26457   */\n      tag_562\n        /* \"#utility.yul\":26451:26456   */\n      dup6\n        /* \"#utility.yul\":26397:26457   */\n      tag_286\n      jump\t// in\n    tag_562:\n        /* \"#utility.yul\":26480:26487   */\n      dup1\n        /* \"#utility.yul\":26511:26512   */\n      0x00\n        /* \"#utility.yul\":26496:26876   */\n    tag_563:\n        /* \"#utility.yul\":26521:26527   */\n      dup6\n        /* \"#utility.yul\":26518:26519   */\n      dup2\n        /* \"#utility.yul\":26515:26528   */\n      lt\n        /* \"#utility.yul\":26496:26876   */\n      iszero\n      tag_565\n      jumpi\n        /* \"#utility.yul\":26592:26601   */\n      dup5\n        /* \"#utility.yul\":26586:26590   */\n      dup5\n        /* \"#utility.yul\":26582:26602   */\n      sub\n        /* \"#utility.yul\":26577:26580   */\n      dup10\n        /* \"#utility.yul\":26570:26603   */\n      mstore\n        /* \"#utility.yul\":26637:26643   */\n      dup2\n        /* \"#utility.yul\":26664:26745   */\n      tag_566\n        /* \"#utility.yul\":26740:26744   */\n      dup6\n        /* \"#utility.yul\":26725:26738   */\n      dup3\n        /* \"#utility.yul\":26664:26745   */\n      tag_288\n      jump\t// in\n    tag_566:\n        /* \"#utility.yul\":26656:26745   */\n      swap5\n      pop\n        /* \"#utility.yul\":26768:26832   */\n      tag_567\n        /* \"#utility.yul\":26825:26831   */\n      dup4\n        /* \"#utility.yul\":26768:26832   */\n      tag_289\n      jump\t// in\n    tag_567:\n        /* \"#utility.yul\":26758:26832   */\n      swap3\n      pop\n        /* \"#utility.yul\":26861:26865   */\n      0x20\n        /* \"#utility.yul\":26856:26859   */\n      dup11\n        /* \"#utility.yul\":26852:26866   */\n      add\n        /* \"#utility.yul\":26845:26866   */\n      swap10\n      pop\n        /* \"#utility.yul\":26556:26876   */\n      pop\n        /* \"#utility.yul\":26543:26544   */\n      0x01\n        /* \"#utility.yul\":26540:26541   */\n      dup2\n        /* \"#utility.yul\":26536:26545   */\n      add\n        /* \"#utility.yul\":26531:26545   */\n      swap1\n      pop\n        /* \"#utility.yul\":26496:26876   */\n      jump(tag_563)\n    tag_565:\n        /* \"#utility.yul\":26500:26514   */\n      pop\n        /* \"#utility.yul\":26892:26896   */\n      dup3\n        /* \"#utility.yul\":26885:26896   */\n      swap8\n      pop\n        /* \"#utility.yul\":26912:26915   */\n      dup8\n        /* \"#utility.yul\":26905:26915   */\n      swap6\n      pop\n        /* \"#utility.yul\":26102:26921   */\n      pop\n      pop\n      pop\n      pop\n      pop\n        /* \"#utility.yul\":25964:26921   */\n      swap3\n      swap2\n      pop\n      pop\n      jump\t// out\n        /* \"#utility.yul\":26927:27549   */\n    tag_150:\n        /* \"#utility.yul\":27142:27146   */\n      0x00\n        /* \"#utility.yul\":27180:27182   */\n      0x40\n        /* \"#utility.yul\":27169:27178   */\n      dup3\n        /* \"#utility.yul\":27165:27183   */\n      add\n        /* \"#utility.yul\":27157:27183   */\n      swap1\n      pop\n        /* \"#utility.yul\":27229:27238   */\n      dup2\n        /* \"#utility.yul\":27223:27227   */\n      dup2\n        /* \"#utility.yul\":27219:27239   */\n      sub\n        /* \"#utility.yul\":27215:27216   */\n      0x00\n        /* \"#utility.yul\":27204:27213   */\n      dup4\n        /* \"#utility.yul\":27200:27217   */\n      add\n        /* \"#utility.yul\":27193:27240   */\n      mstore\n        /* \"#utility.yul\":27257:27345   */\n      tag_569\n        /* \"#utility.yul\":27340:27344   */\n      dup2\n        /* \"#utility.yul\":27331:27337   */\n      dup6\n        /* \"#utility.yul\":27323:27329   */\n      dup8\n        /* \"#utility.yul\":27257:27345   */\n      tag_284\n      jump\t// in\n    tag_569:\n        /* \"#utility.yul\":27249:27345   */\n      swap1\n      pop\n        /* \"#utility.yul\":27392:27401   */\n      dup2\n        /* \"#utility.yul\":27386:27390   */\n      dup2\n        /* \"#utility.yul\":27382:27402   */\n      sub\n        /* \"#utility.yul\":27377:27379   */\n      0x20\n        /* \"#utility.yul\":27366:27375   */\n      dup4\n        /* \"#utility.yul\":27362:27380   */\n      add\n        /* \"#utility.yul\":27355:27403   */\n      mstore\n        /* \"#utility.yul\":27420:27542   */\n      tag_570\n        /* \"#utility.yul\":27537:27541   */\n      dup2\n        /* \"#utility.yul\":27528:27534   */\n      dup5\n        /* \"#utility.yul\":27420:27542   */\n      tag_290\n      jump\t// in\n    tag_570:\n        /* \"#utility.yul\":27412:27542   */\n      swap1\n      pop\n        /* \"#utility.yul\":26927:27549   */\n      swap5\n      swap4\n      pop\n      pop\n      pop\n      pop\n      jump\t// out\n        /* \"#utility.yul\":27555:27719   */\n    tag_291:\n        /* \"#utility.yul\":27695:27711   */\n      0x416c726561647920636c6f736564000000000000000000000000000000000000\n        /* \"#utility.yul\":27691:27692   */\n      0x00\n        /* \"#utility.yul\":27683:27689   */\n      dup3\n        /* \"#utility.yul\":27679:27693   */\n      add\n        /* \"#utility.yul\":27672:27712   */\n      mstore\n        /* \"#utility.yul\":27555:27719   */\n      pop\n      jump\t// out\n        /* \"#utility.yul\":27725:28091   */\n    tag_292:\n        /* \"#utility.yul\":27867:27870   */\n      0x00\n        /* \"#utility.yul\":27888:27955   */\n      tag_573\n        /* \"#utility.yul\":27952:27954   */\n      0x0e\n        /* \"#utility.yul\":27947:27950   */\n      dup4\n        /* \"#utility.yul\":27888:27955   */\n      tag_221\n      jump\t// in\n    tag_573:\n        /* \"#utility.yul\":27881:27955   */\n      swap2\n      pop\n        /* \"#utility.yul\":27964:28057   */\n      tag_574\n        /* \"#utility.yul\":28053:28056   */\n      dup3\n        /* \"#utility.yul\":27964:28057   */\n      tag_291\n      jump\t// in\n    tag_574:\n        /* \"#utility.yul\":28082:28084   */\n      0x20\n        /* \"#utility.yul\":28077:28080   */\n      dup3\n        /* \"#utility.yul\":28073:28085   */\n      add\n        /* \"#utility.yul\":28066:28085   */\n      swap1\n      pop\n        /* \"#utility.yul\":27725:28091   */\n      swap2\n      swap1\n      pop\n      jump\t// out\n        /* \"#utility.yul\":28097:28516   */\n    tag_162:\n        /* \"#utility.yul\":28263:28267   */\n      0x00\n        /* \"#utility.yul\":28301:28303   */\n      0x20\n        /* \"#utility.yul\":28290:28299   */\n      dup3\n        /* \"#utility.yul\":28286:28304   */\n      add\n        /* \"#utility.yul\":28278:28304   */\n      swap1\n      pop\n        /* \"#utility.yul\":28350:28359   */\n      dup2\n        /* \"#utility.yul\":28344:28348   */\n      dup2\n        /* \"#utility.yul\":28340:28360   */\n      sub\n        /* \"#utility.yul\":28336:28337   */\n      0x00\n        /* \"#utility.yul\":28325:28334   */\n      dup4\n        /* \"#utility.yul\":28321:28338   */\n      add\n        /* \"#utility.yul\":28314:28361   */\n      mstore\n        /* \"#utility.yul\":28378:28509   */\n      tag_576\n        /* \"#utility.yul\":28504:28508   */\n      dup2\n        /* \"#utility.yul\":28378:28509   */\n      tag_292\n      jump\t// in\n    tag_576:\n        /* \"#utility.yul\":28370:28509   */\n      swap1\n      pop\n        /* \"#utility.yul\":28097:28516   */\n      swap2\n      swap1\n      pop\n      jump\t// out\n        /* \"#utility.yul\":28522:28681   */\n    tag_293:\n        /* \"#utility.yul\":28662:28673   */\n      0x4e6f74206f776e65720000000000000000000000000000000000000000000000\n        /* \"#utility.yul\":28658:28659   */\n      0x00\n        /* \"#utility.yul\":28650:28656   */\n      dup3\n        /* \"#utility.yul\":28646:28660   */\n      add\n        /* \"#utility.yul\":28639:28674   */\n      mstore\n        /* \"#utility.yul\":28522:28681   */\n      pop\n      jump\t// out\n        /* \"#utility.yul\":28687:29052   */\n    tag_294:\n        /* \"#utility.yul\":28829:28832   */\n      0x00\n        /* \"#utility.yul\":28850:28916   */\n      tag_579\n        /* \"#utility.yul\":28914:28915   */\n      0x09\n        /* \"#utility.yul\":28909:28912   */\n      dup4\n        /* \"#utility.yul\":28850:28916   */\n      tag_221\n      jump\t// in\n    tag_579:\n        /* \"#utility.yul\":28843:28916   */\n      swap2\n      pop\n        /* \"#utility.yul\":28925:29018   */\n      tag_580\n        /* \"#utility.yul\":29014:29017   */\n      dup3\n        /* \"#utility.yul\":28925:29018   */\n      tag_293\n      jump\t// in\n    tag_580:\n        /* \"#utility.yul\":29043:29045   */\n      0x20\n        /* \"#utility.yul\":29038:29041   */\n      dup3\n        /* \"#utility.yul\":29034:29046   */\n      add\n        /* \"#utility.yul\":29027:29046   */\n      swap1\n      pop\n        /* \"#utility.yul\":28687:29052   */\n      swap2\n      swap1\n      pop\n      jump\t// out\n        /* \"#utility.yul\":29058:29477   */\n    tag_166:\n        /* \"#utility.yul\":29224:29228   */\n      0x00\n        /* \"#utility.yul\":29262:29264   */\n      0x20\n        /* \"#utility.yul\":29251:29260   */\n      dup3\n        /* \"#utility.yul\":29247:29265   */\n      add\n        /* \"#utility.yul\":29239:29265   */\n      swap1\n      pop\n        /* \"#utility.yul\":29311:29320   */\n      dup2\n        /* \"#utility.yul\":29305:29309   */\n      dup2\n        /* \"#utility.yul\":29301:29321   */\n      sub\n        /* \"#utility.yul\":29297:29298   */\n      0x00\n        /* \"#utility.yul\":29286:29295   */\n      dup4\n        /* \"#utility.yul\":29282:29299   */\n      add\n        /* \"#utility.yul\":29275:29322   */\n      mstore\n        /* \"#utility.yul\":29339:29470   */\n      tag_582\n        /* \"#utility.yul\":29465:29469   */\n      dup2\n        /* \"#utility.yul\":29339:29470   */\n      tag_294\n      jump\t// in\n    tag_582:\n        /* \"#utility.yul\":29331:29470   */\n      swap1\n      pop\n        /* \"#utility.yul\":29058:29477   */\n      swap2\n      swap1\n      pop\n      jump\t// out\n        /* \"#utility.yul\":29483:29644   */\n    tag_295:\n        /* \"#utility.yul\":29623:29636   */\n      0x506f6c6c20636c6f736564000000000000000000000000000000000000000000\n        /* \"#utility.yul\":29619:29620   */\n      0x00\n        /* \"#utility.yul\":29611:29617   */\n      dup3\n        /* \"#utility.yul\":29607:29621   */\n      add\n        /* \"#utility.yul\":29600:29637   */\n      mstore\n        /* \"#utility.yul\":29483:29644   */\n      pop\n      jump\t// out\n        /* \"#utility.yul\":29650:30016   */\n    tag_296:\n        /* \"#utility.yul\":29792:29795   */\n      0x00\n        /* \"#utility.yul\":29813:29880   */\n      tag_585\n        /* \"#utility.yul\":29877:29879   */\n      0x0b\n        /* \"#utility.yul\":29872:29875   */\n      dup4\n        /* \"#utility.yul\":29813:29880   */\n      tag_221\n      jump\t// in\n    tag_585:\n        /* \"#utility.yul\":29806:29880   */\n      swap2\n      pop\n        /* \"#utility.yul\":29889:29982   */\n      tag_586\n        /* \"#utility.yul\":29978:29981   */\n      dup3\n        /* \"#utility.yul\":29889:29982   */\n      tag_295\n      jump\t// in\n    tag_586:\n        /* \"#utility.yul\":30007:30009   */\n      0x20\n        /* \"#utility.yul\":30002:30005   */\n      dup3\n        /* \"#utility.yul\":29998:30010   */\n      add\n        /* \"#utility.yul\":29991:30010   */\n      swap1\n      pop\n        /* \"#utility.yul\":29650:30016   */\n      swap2\n      swap1\n      pop\n      jump\t// out\n        /* \"#utility.yul\":30022:30441   */\n    tag_178:\n        /* \"#utility.yul\":30188:30192   */\n      0x00\n        /* \"#utility.yul\":30226:30228   */\n      0x20\n        /* \"#utility.yul\":30215:30224   */\n      dup3\n        /* \"#utility.yul\":30211:30229   */\n      add\n        /* \"#utility.yul\":30203:30229   */\n      swap1\n      pop\n        /* \"#utility.yul\":30275:30284   */\n      dup2\n        /* \"#utility.yul\":30269:30273   */\n      dup2\n        /* \"#utility.yul\":30265:30285   */\n      sub\n        /* \"#utility.yul\":30261:30262   */\n      0x00\n        /* \"#utility.yul\":30250:30259   */\n      dup4\n        /* \"#utility.yul\":30246:30263   */\n      add\n        /* \"#utility.yul\":30239:30286   */\n      mstore\n        /* \"#utility.yul\":30303:30434   */\n      tag_588\n        /* \"#utility.yul\":30429:30433   */\n      dup2\n        /* \"#utility.yul\":30303:30434   */\n      tag_296\n      jump\t// in\n    tag_588:\n        /* \"#utility.yul\":30295:30434   */\n      swap1\n      pop\n        /* \"#utility.yul\":30022:30441   */\n      swap2\n      swap1\n      pop\n      jump\t// out\n        /* \"#utility.yul\":30447:30607   */\n    tag_297:\n        /* \"#utility.yul\":30587:30599   */\n      0x426164206f7074696f6e00000000000000000000000000000000000000000000\n        /* \"#utility.yul\":30583:30584   */\n      0x00\n        /* \"#utility.yul\":30575:30581   */\n      dup3\n        /* \"#utility.yul\":30571:30585   */\n      add\n        /* \"#utility.yul\":30564:30600   */\n      mstore\n        /* \"#utility.yul\":30447:30607   */\n      pop\n      jump\t// out\n        /* \"#utility.yul\":30613:30979   */\n    tag_298:\n        /* \"#utility.yul\":30755:30758   */\n      0x00\n        /* \"#utility.yul\":30776:30843   */\n      tag_591\n        /* \"#utility.yul\":30840:30842   */\n      0x0a\n        /* \"#utility.yul\":30835:30838   */\n      dup4\n        /* \"#utility.yul\":30776:30843   */\n      tag_221\n      jump\t// in\n    tag_591:\n        /* \"#utility.yul\":30769:30843   */\n      swap2\n      pop\n        /* \"#utility.yul\":30852:30945   */\n      tag_592\n        /* \"#utility.yul\":30941:30944   */\n      dup3\n        /* \"#utility.yul\":30852:30945   */\n      tag_297\n      jump\t// in\n    tag_592:\n        /* \"#utility.yul\":30970:30972   */\n      0x20\n        /* \"#utility.yul\":30965:30968   */\n      dup3\n        /* \"#utility.yul\":30961:30973   */\n      add\n        /* \"#utility.yul\":30954:30973   */\n      swap1\n      pop\n        /* \"#utility.yul\":30613:30979   */\n      swap2\n      swap1\n      pop\n      jump\t// out\n        /* \"#utility.yul\":30985:31404   */\n    tag_181:\n        /* \"#utility.yul\":31151:31155   */\n      0x00\n        /* \"#utility.yul\":31189:31191   */\n      0x20\n        /* \"#utility.yul\":31178:31187   */\n      dup3\n        /* \"#utility.yul\":31174:31192   */\n      add\n        /* \"#utility.yul\":31166:31192   */\n      swap1\n      pop\n        /* \"#utility.yul\":31238:31247   */\n      dup2\n        /* \"#utility.yul\":31232:31236   */\n      dup2\n        /* \"#utility.yul\":31228:31248   */\n      sub\n        /* \"#utility.yul\":31224:31225   */\n      0x00\n        /* \"#utility.yul\":31213:31222   */\n      dup4\n        /* \"#utility.yul\":31209:31226   */\n      add\n        /* \"#utility.yul\":31202:31249   */\n      mstore\n        /* \"#utility.yul\":31266:31397   */\n      tag_594\n        /* \"#utility.yul\":31392:31396   */\n      dup2\n        /* \"#utility.yul\":31266:31397   */\n      tag_298\n      jump\t// in\n    tag_594:\n        /* \"#utility.yul\":31258:31397   */\n      swap1\n      pop\n        /* \"#utility.yul\":30985:31404   */\n      swap2\n      swap1\n      pop\n      jump\t// out\n        /* \"#utility.yul\":31410:31573   */\n    tag_299:\n        /* \"#utility.yul\":31550:31565   */\n      0x416c726561647920766f74656400000000000000000000000000000000000000\n        /* \"#utility.yul\":31546:31547   */\n      0x00\n        /* \"#utility.yul\":31538:31544   */\n      dup3\n        /* \"#utility.yul\":31534:31548   */\n      add\n        /* \"#utility.yul\":31527:31566   */\n      mstore\n        /* \"#utility.yul\":31410:31573   */\n      pop\n      jump\t// out\n        /* \"#utility.yul\":31579:31945   */\n    tag_300:\n        /* \"#utility.yul\":31721:31724   */\n      0x00\n        /* \"#utility.yul\":31742:31809   */\n      tag_597\n        /* \"#utility.yul\":31806:31808   */\n      0x0d\n        /* \"#utility.yul\":31801:31804   */\n      dup4\n        /* \"#utility.yul\":31742:31809   */\n      tag_221\n      jump\t// in\n    tag_597:\n        /* \"#utility.yul\":31735:31809   */\n      swap2\n      pop\n        /* \"#utility.yul\":31818:31911   */\n      tag_598\n        /* \"#utility.yul\":31907:31910   */\n      dup3\n        /* \"#utility.yul\":31818:31911   */\n      tag_299\n      jump\t// in\n    tag_598:\n        /* \"#utility.yul\":31936:31938   */\n      0x20\n        /* \"#utility.yul\":31931:31934   */\n      dup3\n        /* \"#utility.yul\":31927:31939   */\n      add\n        /* \"#utility.yul\":31920:31939   */\n      swap1\n      pop\n        /* \"#utility.yul\":31579:31945   */\n      swap2\n      swap1\n      pop\n      jump\t// out\n        /* \"#utility.yul\":31951:32370   */\n    tag_184:\n        /* \"#utility.yul\":32117:32121   */\n      0x00\n        /* \"#utility.yul\":32155:32157   */\n      0x20\n        /* \"#utility.yul\":32144:32153   */\n      dup3\n        /* \"#utility.yul\":32140:32158   */\n      add\n        /* \"#utility.yul\":32132:32158   */\n      swap1\n      pop\n        /* \"#utility.yul\":32204:32213   */\n      dup2\n        /* \"#utility.yul\":32198:32202   */\n      dup2\n        /* \"#utility.yul\":32194:32214   */\n      sub\n        /* \"#utility.yul\":32190:32191   */\n      0x00\n        /* \"#utility.yul\":32179:32188   */\n      dup4\n        /* \"#utility.yul\":32175:32192   */\n      add\n        /* \"#utility.yul\":32168:32215   */\n      mstore\n        /* \"#utility.yul\":32232:32363   */\n      tag_600\n        /* \"#utility.yul\":32358:32362   */\n      dup2\n        /* \"#utility.yul\":32232:32363   */\n      tag_300\n      jump\t// in\n    tag_600:\n        /* \"#utility.yul\":32224:32363   */\n      swap1\n      pop\n        /* \"#utility.yul\":31951:32370   */\n      swap2\n      swap1\n      pop\n      jump\t// out\n        /* \"#utility.yul\":32376:32567   */\n    tag_189:\n        /* \"#utility.yul\":32416:32419   */\n      0x00\n        /* \"#utility.yul\":32435:32455   */\n      tag_602\n        /* \"#utility.yul\":32453:32454   */\n      dup3\n        /* \"#utility.yul\":32435:32455   */\n      tag_213\n      jump\t// in\n    tag_602:\n        /* \"#utility.yul\":32430:32455   */\n      swap2\n      pop\n        /* \"#utility.yul\":32469:32489   */\n      tag_603\n        /* \"#utility.yul\":32487:32488   */\n      dup4\n        /* \"#utility.yul\":32469:32489   */\n      tag_213\n      jump\t// in\n    tag_603:\n        /* \"#utility.yul\":32464:32489   */\n      swap3\n      pop\n        /* \"#utility.yul\":32512:32513   */\n      dup3\n        /* \"#utility.yul\":32509:32510   */\n      dup3\n        /* \"#utility.yul\":32505:32514   */\n      add\n        /* \"#utility.yul\":32498:32514   */\n      swap1\n      pop\n        /* \"#utility.yul\":32533:32536   */\n      dup1\n        /* \"#utility.yul\":32530:32531   */\n      dup3\n        /* \"#utility.yul\":32527:32537   */\n      gt\n        /* \"#utility.yul\":32524:32560   */\n      iszero\n      tag_604\n      jumpi\n        /* \"#utility.yul\":32540:32558   */\n      tag_605\n      tag_261\n      jump\t// in\n    tag_605:\n        /* \"#utility.yul\":32524:32560   */\n    tag_604:\n        /* \"#utility.yul\":32376:32567   */\n      swap3\n      swap2\n      pop\n      pop\n      jump\t// out\n        /* \"#utility.yul\":32573:32735   */\n    tag_301:\n        /* \"#utility.yul\":32713:32727   */\n      0x5a65726f20616464726573730000000000000000000000000000000000000000\n        /* \"#utility.yul\":32709:32710   */\n      0x00\n        /* \"#utility.yul\":32701:32707   */\n      dup3\n        /* \"#utility.yul\":32697:32711   */\n      add\n        /* \"#utility.yul\":32690:32728   */\n      mstore\n        /* \"#utility.yul\":32573:32735   */\n      pop\n      jump\t// out\n        /* \"#utility.yul\":32741:33107   */\n    tag_302:\n        /* \"#utility.yul\":32883:32886   */\n      0x00\n        /* \"#utility.yul\":32904:32971   */\n      tag_608\n        /* \"#utility.yul\":32968:32970   */\n      0x0c\n        /* \"#utility.yul\":32963:32966   */\n      dup4\n        /* \"#utility.yul\":32904:32971   */\n      tag_221\n      jump\t// in\n    tag_608:\n        /* \"#utility.yul\":32897:32971   */\n      swap2\n      pop\n        /* \"#utility.yul\":32980:33073   */\n      tag_609\n        /* \"#utility.yul\":33069:33072   */\n      dup3\n        /* \"#utility.yul\":32980:33073   */\n      tag_301\n      jump\t// in\n    tag_609:\n        /* \"#utility.yul\":33098:33100   */\n      0x20\n        /* \"#utility.yul\":33093:33096   */\n      dup3\n        /* \"#utility.yul\":33089:33101   */\n      add\n        /* \"#utility.yul\":33082:33101   */\n      swap1\n      pop\n        /* \"#utility.yul\":32741:33107   */\n      swap2\n      swap1\n      pop\n      jump\t// out\n        /* \"#utility.yul\":33113:33532   */\n    tag_197:\n        /* \"#utility.yul\":33279:33283   */\n      0x00\n        /* \"#utility.yul\":33317:33319   */\n      0x20\n        /* \"#utility.yul\":33306:33315   */\n      dup3\n        /* \"#utility.yul\":33302:33320   */\n      add\n        /* \"#utility.yul\":33294:33320   */\n      swap1\n      pop\n        /* \"#utility.yul\":33366:33375   */\n      dup2\n        /* \"#utility.yul\":33360:33364   */\n      dup2\n        /* \"#utility.yul\":33356:33376   */\n      sub\n        /* \"#utility.yul\":33352:33353   */\n      0x00\n        /* \"#utility.yul\":33341:33350   */\n      dup4\n        /* \"#utility.yul\":33337:33354   */\n      add\n        /* \"#utility.yul\":33330:33377   */\n      mstore\n        /* \"#utility.yul\":33394:33525   */\n      tag_611\n        /* \"#utility.yul\":33520:33524   */\n      dup2\n        /* \"#utility.yul\":33394:33525   */\n      tag_302\n      jump\t// in\n    tag_611:\n        /* \"#utility.yul\":33386:33525   */\n      swap1\n      pop\n        /* \"#utility.yul\":33113:33532   */\n      swap2\n      swap1\n      pop\n      jump\t// out\n        /* \"#utility.yul\":33538:33706   */\n    tag_303:\n        /* \"#utility.yul\":33678:33698   */\n      0x416c726561647920696e7374727563746f720000000000000000000000000000\n        /* \"#utility.yul\":33674:33675   */\n      0x00\n        /* \"#utility.yul\":33666:33672   */\n      dup3\n        /* \"#utility.yul\":33662:33676   */\n      add\n        /* \"#utility.yul\":33655:33699   */\n      mstore\n        /* \"#utility.yul\":33538:33706   */\n      pop\n      jump\t// out\n        /* \"#utility.yul\":33712:34078   */\n    tag_304:\n        /* \"#utility.yul\":33854:33857   */\n      0x00\n        /* \"#utility.yul\":33875:33942   */\n      tag_614\n        /* \"#utility.yul\":33939:33941   */\n      0x12\n        /* \"#utility.yul\":33934:33937   */\n      dup4\n        /* \"#utility.yul\":33875:33942   */\n      tag_221\n      jump\t// in\n    tag_614:\n        /* \"#utility.yul\":33868:33942   */\n      swap2\n      pop\n        /* \"#utility.yul\":33951:34044   */\n      tag_615\n        /* \"#utility.yul\":34040:34043   */\n      dup3\n        /* \"#utility.yul\":33951:34044   */\n      tag_303\n      jump\t// in\n    tag_615:\n        /* \"#utility.yul\":34069:34071   */\n      0x20\n        /* \"#utility.yul\":34064:34067   */\n      dup3\n        /* \"#utility.yul\":34060:34072   */\n      add\n        /* \"#utility.yul\":34053:34072   */\n      swap1\n      pop\n        /* \"#utility.yul\":33712:34078   */\n      swap2\n      swap1\n      pop\n      jump\t// out\n        /* \"#utility.yul\":34084:34503   */\n    tag_200:\n        /* \"#utility.yul\":34250:34254   */\n      0x00\n        /* \"#utility.yul\":34288:34290   */\n      0x20\n        /* \"#utility.yul\":34277:34286   */\n      dup3\n        /* \"#utility.yul\":34273:34291   */\n      add\n        /* \"#utility.yul\":34265:34291   */\n      swap1\n      pop\n        /* \"#utility.yul\":34337:34346   */\n      dup2\n        /* \"#utility.yul\":34331:34335   */\n      dup2\n        /* \"#utility.yul\":34327:34347   */\n      sub\n        /* \"#utility.yul\":34323:34324   */\n      0x00\n        /* \"#utility.yul\":34312:34321   */\n      dup4\n        /* \"#utility.yul\":34308:34325   */\n      add\n        /* \"#utility.yul\":34301:34348   */\n      mstore\n        /* \"#utility.yul\":34365:34496   */\n      tag_617\n        /* \"#utility.yul\":34491:34495   */\n      dup2\n        /* \"#utility.yul\":34365:34496   */\n      tag_304\n      jump\t// in\n    tag_617:\n        /* \"#utility.yul\":34357:34496   */\n      swap1\n      pop\n        /* \"#utility.yul\":34084:34503   */\n      swap2\n      swap1\n      pop\n      jump\t// out\n\n    auxdata: 0xa2646970667358221220a9959342c2a2cc045fb27e9028351274c2f37594a173abfe4a97ee68aae8570a64736f6c634300081e0033\n}\n",
				"bytecode": {
					"linkReferences": {},
					"object": "608060405234801561000f575f5ffd5b50335f5f6101000a81548173ffffffffffffffffffffffffffffffffffffffff021916908373ffffffffffffffffffffffffffffffffffffffff1602179055503373ffffffffffffffffffffffffffffffffffffffff165f73ffffffffffffffffffffffffffffffffffffffff167f8be0079c531659141344cd1fd0a4f28419497f9722a3daafe3b4186f6b6457e060405160405180910390a36001805f3373ffffffffffffffffffffffffffffffffffffffff1673ffffffffffffffffffffffffffffffffffffffff1681526020019081526020015f205f6101000a81548160ff0219169083151502179055503373ffffffffffffffffffffffffffffffffffffffff167f0fd42d8e27c57b559503004be9fa8b7afc701e92663745556b34e1bc24c86e0660405160405180910390a26123d28061014d5f395ff3fe608060405234801561000f575f5ffd5b50600436106100b2575f3560e01c80639c566f2a1161006f5780639c566f2a146101a1578063a3afcea2146101bd578063b384abef146101ed578063b9399e1314610209578063e1adaf5814610225578063f2fde38b14610255576100b2565b806311a52746146100b65780631a8cbcaa146100d457806343859632146101075780637e3d71c3146101375780638da5cb5b146101675780639534e63714610185575b5f5ffd5b6100be610271565b6040516100cb9190611366565b60405180910390f35b6100ee60048036038101906100e991906113b1565b61027d565b6040516100fe9493929190611620565b60405180910390f35b610121600480360381019061011c91906116d2565b610557565b60405161012e9190611710565b60405180910390f35b610151600480360381019061014c91906117df565b610612565b60405161015e9190611366565b60405180910390f35b61016f610910565b60405161017c919061186c565b60405180910390f35b61019f600480360381019061019a91906113b1565b610934565b005b6101bb60048036038101906101b69190611885565b610ac3565b005b6101d760048036038101906101d29190611885565b610c74565b6040516101e49190611710565b60405180910390f35b610207600480360381019061020291906118b0565b610c91565b005b610223600480360381019061021e9190611885565b610f00565b005b61023f600480360381019061023a91906113b1565b611120565b60405161024c9190611366565b60405180910390f35b61026f600480360381019061026a9190611885565b611196565b005b5f600280549050905090565b60608060605f60028054905085106102ca576040517f08c379a00000000000000000000000000000000000000000000000000000000081526004016102c190611938565b60405180910390fd5b5f600286815481106102df576102de611956565b5b905f5260205f2090600502019050805f0180546102fb906119b0565b80601f0160208091040260200160405190810160405280929190818152602001828054610327906119b0565b80156103725780601f1061034957610100808354040283529160200191610372565b820191905f5260205f20905b81548152906001019060200180831161035557829003601f168201915b50505050509450806003015f9054906101000a900460ff1691505f816001018054905090508067ffffffffffffffff8111156103b1576103b06119e0565b5b6040519080825280602002602001820160405280156103e457816020015b60608152602001906001900390816103cf5790505b5094508067ffffffffffffffff811115610401576104006119e0565b5b60405190808252806020026020018201604052801561042f5781602001602082028036833780820191505090505b5093505f5f90505b8181101561054d5782600101818154811061045557610454611956565b5b905f5260205f20018054610468906119b0565b80601f0160208091040260200160405190810160405280929190818152602001828054610494906119b0565b80156104df5780601f106104b6576101008083540402835291602001916104df565b820191905f5260205f20905b8154815290600101906020018083116104c257829003601f168201915b50505050508682815181106104f7576104f6611956565b5b602002602001018190525082600201818154811061051857610517611956565b5b905f5260205f20015485828151811061053457610533611956565b5b6020026020010181815250508080600101915050610437565b5050509193509193565b5f600280549050831061059f576040517f08c379a000000000000000000000000000000000000000000000000000000000815260040161059690611938565b60405180910390fd5b600283815481106105b3576105b2611956565b5b905f5260205f2090600502016004015f8373ffffffffffffffffffffffffffffffffffffffff1673ffffffffffffffffffffffffffffffffffffffff1681526020019081526020015f205f9054906101000a900460ff16905092915050565b5f60015f3373ffffffffffffffffffffffffffffffffffffffff1673ffffffffffffffffffffffffffffffffffffffff1681526020019081526020015f205f9054906101000a900460ff1661069c576040517f08c379a000000000000000000000000000000000000000000000000000000000815260040161069390611a57565b60405180910390fd5b5f85859050116106e1576040517f08c379a00000000000000000000000000000000000000000000000000000000081526004016106d890611abf565b60405180910390fd5b600283839050101580156106f95750600a8383905011155b610738576040517f08c379a000000000000000000000000000000000000000000000000000000000815260040161072f90611b27565b60405180910390fd5b600260018160018154018082558091505003905f5260205f2090505060016002805490506107669190611b72565b90505f6002828154811061077d5761077c611956565b5b905f5260205f20906005020190508585825f01918261079d929190611d4f565b506001816003015f6101000a81548160ff0219169083151502179055505f5f90505b848490508110156108c7575f8585838181106107de576107dd611956565b5b90506020028101906107f09190611e28565b905011610832576040517f08c379a000000000000000000000000000000000000000000000000000000000815260040161082990611ed4565b60405180910390fd5b8160010185858381811061084957610848611956565b5b905060200281019061085b9190611e28565b90918060018154018082558091505060019003905f5260205f20015f909192909192909192909192509182610891929190611d4f565b50816002015f908060018154018082558091505060019003905f5260205f20015f909190919091505580806001019150506107bf565b50817f4be3f505bf50604bde92e6940e2df40c36f90cb362640413d520080ca12eabb28787846001016040516108ff9392919061205a565b60405180910390a250949350505050565b5f5f9054906101000a900473ffffffffffffffffffffffffffffffffffffffff1681565b60015f3373ffffffffffffffffffffffffffffffffffffffff1673ffffffffffffffffffffffffffffffffffffffff1681526020019081526020015f205f9054906101000a900460ff166109bd576040517f08c379a00000000000000000000000000000000000000000000000000000000081526004016109b490611a57565b60405180910390fd5b6002805490508110610a04576040517f08c379a00000000000000000000000000000000000000000000000000000000081526004016109fb90611938565b60405180910390fd5b5f60028281548110610a1957610a18611956565b5b905f5260205f2090600502019050806003015f9054906101000a900460ff16610a77576040517f08c379a0000000000000000000000000000000000000000000000000000000008152600401610a6e906120db565b60405180910390fd5b5f816003015f6101000a81548160ff021916908315150217905550817f703c67c157a1afb7d386ce5212ee88bf0a690bca998060e9595ebdfd747100ce60405160405180910390a25050565b5f5f9054906101000a900473ffffffffffffffffffffffffffffffffffffffff1673ffffffffffffffffffffffffffffffffffffffff163373ffffffffffffffffffffffffffffffffffffffff1614610b51576040517f08c379a0000000000000000000000000000000000000000000000000000000008152600401610b4890612143565b60405180910390fd5b60015f8273ffffffffffffffffffffffffffffffffffffffff1673ffffffffffffffffffffffffffffffffffffffff1681526020019081526020015f205f9054906101000a900460ff16610bda576040517f08c379a0000000000000000000000000000000000000000000000000000000008152600401610bd190611a57565b60405180910390fd5b5f60015f8373ffffffffffffffffffffffffffffffffffffffff1673ffffffffffffffffffffffffffffffffffffffff1681526020019081526020015f205f6101000a81548160ff0219169083151502179055508073ffffffffffffffffffffffffffffffffffffffff167f58b33451e693031c89aac54fdebcb185754a62bc399db605a6a5bb0fac67373f60405160405180910390a250565b6001602052805f5260405f205f915054906101000a900460ff1681565b6002805490508210610cd8576040517f08c379a0000000000000000000000000000000000000000000000000000000008152600401610ccf90611938565b60405180910390fd5b5f60028381548110610ced57610cec611956565b5b905f5260205f2090600502019050806003015f9054906101000a900460ff16610d4b576040517f08c379a0000000000000000000000000000000000000000000000000000000008152600401610d42906121ab565b60405180910390fd5b80600101805490508210610d94576040517f08c379a0000000000000000000000000000000000000000000000000000000008152600401610d8b90612213565b60405180910390fd5b806004015f3373ffffffffffffffffffffffffffffffffffffffff1673ffffffffffffffffffffffffffffffffffffffff1681526020019081526020015f205f9054906101000a900460ff1615610e20576040517f08c379a0000000000000000000000000000000000000000000000000000000008152600401610e179061227b565b60405180910390fd5b6001816004015f3373ffffffffffffffffffffffffffffffffffffffff1673ffffffffffffffffffffffffffffffffffffffff1681526020019081526020015f205f6101000a81548160ff0219169083151502179055506001816002018381548110610e8f57610e8e611956565b5b905f5260205f20015f828254610ea59190612299565b925050819055503373ffffffffffffffffffffffffffffffffffffffff16837f2acce567deca3aabf56327adbb4524bd5318936eaefa69e3a5208ffda0cfec0984604051610ef39190611366565b60405180910390a3505050565b5f5f9054906101000a900473ffffffffffffffffffffffffffffffffffffffff1673ffffffffffffffffffffffffffffffffffffffff163373ffffffffffffffffffffffffffffffffffffffff1614610f8e576040517f08c379a0000000000000000000000000000000000000000000000000000000008152600401610f8590612143565b60405180910390fd5b5f73ffffffffffffffffffffffffffffffffffffffff168173ffffffffffffffffffffffffffffffffffffffff1603610ffc576040517f08c379a0000000000000000000000000000000000000000000000000000000008152600401610ff390612316565b60405180910390fd5b60015f8273ffffffffffffffffffffffffffffffffffffffff1673ffffffffffffffffffffffffffffffffffffffff1681526020019081526020015f205f9054906101000a900460ff1615611086576040517f08c379a000000000000000000000000000000000000000000000000000000000815260040161107d9061237e565b60405180910390fd5b6001805f8373ffffffffffffffffffffffffffffffffffffffff1673ffffffffffffffffffffffffffffffffffffffff1681526020019081526020015f205f6101000a81548160ff0219169083151502179055508073ffffffffffffffffffffffffffffffffffffffff167f0fd42d8e27c57b559503004be9fa8b7afc701e92663745556b34e1bc24c86e0660405160405180910390a250565b5f6002805490508210611168576040517f08c379a000000000000000000000000000000000000000000000000000000000815260040161115f90611938565b60405180910390fd5b6002828154811061117c5761117b611956565b5b905f5260205f209060050201600101805490509050919050565b5f5f9054906101000a900473ffffffffffffffffffffffffffffffffffffffff1673ffffffffffffffffffffffffffffffffffffffff163373ffffffffffffffffffffffffffffffffffffffff1614611224576040517f08c379a000000000000000000000000000000000000000000000000000000000815260040161121b90612143565b60405180910390fd5b5f73ffffffffffffffffffffffffffffffffffffffff168173ffffffffffffffffffffffffffffffffffffffff1603611292576040517f08c379a000000000000000000000000000000000000000000000000000000000815260040161128990612316565b60405180910390fd5b8073ffffffffffffffffffffffffffffffffffffffff165f5f9054906101000a900473ffffffffffffffffffffffffffffffffffffffff1673ffffffffffffffffffffffffffffffffffffffff167f8be0079c531659141344cd1fd0a4f28419497f9722a3daafe3b4186f6b6457e060405160405180910390a3805f5f6101000a81548173ffffffffffffffffffffffffffffffffffffffff021916908373ffffffffffffffffffffffffffffffffffffffff16021790555050565b5f819050919050565b6113608161134e565b82525050565b5f6020820190506113795f830184611357565b92915050565b5f5ffd5b5f5ffd5b6113908161134e565b811461139a575f5ffd5b50565b5f813590506113ab81611387565b92915050565b5f602082840312156113c6576113c561137f565b5b5f6113d38482850161139d565b91505092915050565b5f81519050919050565b5f82825260208201905092915050565b8281835e5f83830152505050565b5f601f19601f8301169050919050565b5f61141e826113dc565b61142881856113e6565b93506114388185602086016113f6565b61144181611404565b840191505092915050565b5f81519050919050565b5f82825260208201905092915050565b5f819050602082019050919050565b5f82825260208201905092915050565b5f61148f826113dc565b6114998185611475565b93506114a98185602086016113f6565b6114b281611404565b840191505092915050565b5f6114c88383611485565b905092915050565b5f602082019050919050565b5f6114e68261144c565b6114f08185611456565b93508360208202850161150285611466565b805f5b8581101561153d578484038952815161151e85826114bd565b9450611529836114d0565b925060208a01995050600181019050611505565b50829750879550505050505092915050565b5f81519050919050565b5f82825260208201905092915050565b5f819050602082019050919050565b6115818161134e565b82525050565b5f6115928383611578565b60208301905092915050565b5f602082019050919050565b5f6115b48261154f565b6115be8185611559565b93506115c983611569565b805f5b838110156115f95781516115e08882611587565b97506115eb8361159e565b9250506001810190506115cc565b5085935050505092915050565b5f8115159050919050565b61161a81611606565b82525050565b5f6080820190508181035f8301526116388187611414565b9050818103602083015261164c81866114dc565b9050818103604083015261166081856115aa565b905061166f6060830184611611565b95945050505050565b5f73ffffffffffffffffffffffffffffffffffffffff82169050919050565b5f6116a182611678565b9050919050565b6116b181611697565b81146116bb575f5ffd5b50565b5f813590506116cc816116a8565b92915050565b5f5f604083850312156116e8576116e761137f565b5b5f6116f58582860161139d565b9250506020611706858286016116be565b9150509250929050565b5f6020820190506117235f830184611611565b92915050565b5f5ffd5b5f5ffd5b5f5ffd5b5f5f83601f84011261174a57611749611729565b5b8235905067ffffffffffffffff8111156117675761176661172d565b5b60208301915083600182028301111561178357611782611731565b5b9250929050565b5f5f83601f84011261179f5761179e611729565b5b8235905067ffffffffffffffff8111156117bc576117bb61172d565b5b6020830191508360208202830111156117d8576117d7611731565b5b9250929050565b5f5f5f5f604085870312156117f7576117f661137f565b5b5f85013567ffffffffffffffff81111561181457611813611383565b5b61182087828801611735565b9450945050602085013567ffffffffffffffff81111561184357611842611383565b5b61184f8782880161178a565b925092505092959194509250565b61186681611697565b82525050565b5f60208201905061187f5f83018461185d565b92915050565b5f6020828403121561189a5761189961137f565b5b5f6118a7848285016116be565b91505092915050565b5f5f604083850312156118c6576118c561137f565b5b5f6118d38582860161139d565b92505060206118e48582860161139d565b9150509250929050565b7f42616420706f6c6c4964000000000000000000000000000000000000000000005f82015250565b5f611922600a836113e6565b915061192d826118ee565b602082019050919050565b5f6020820190508181035f83015261194f81611916565b9050919050565b7f4e487b71000000000000000000000000000000000000000000000000000000005f52603260045260245ffd5b7f4e487b71000000000000000000000000000000000000000000000000000000005f52602260045260245ffd5b5f60028204905060018216806119c757607f821691505b6020821081036119da576119d9611983565b5b50919050565b7f4e487b71000000000000000000000000000000000000000000000000000000005f52604160045260245ffd5b7f4e6f7420696e7374727563746f720000000000000000000000000000000000005f82015250565b5f611a41600e836113e6565b9150611a4c82611a0d565b602082019050919050565b5f6020820190508181035f830152611a6e81611a35565b9050919050565b7f456d707479207175657374696f6e0000000000000000000000000000000000005f82015250565b5f611aa9600e836113e6565b9150611ab482611a75565b602082019050919050565b5f6020820190508181035f830152611ad681611a9d565b9050919050565b7f4e65656420322d3130206f7074696f6e730000000000000000000000000000005f82015250565b5f611b116011836113e6565b9150611b1c82611add565b602082019050919050565b5f6020820190508181035f830152611b3e81611b05565b9050919050565b7f4e487b71000000000000000000000000000000000000000000000000000000005f52601160045260245ffd5b5f611b7c8261134e565b9150611b878361134e565b9250828203905081811115611b9f57611b9e611b45565b5b92915050565b5f82905092915050565b5f819050815f5260205f209050919050565b5f6020601f8301049050919050565b5f82821b905092915050565b5f60088302611c0b7fffffffffffffffffffffffffffffffffffffffffffffffffffffffffffffffff82611bd0565b611c158683611bd0565b95508019841693508086168417925050509392505050565b5f819050919050565b5f611c50611c4b611c468461134e565b611c2d565b61134e565b9050919050565b5f819050919050565b611c6983611c36565b611c7d611c7582611c57565b848454611bdc565b825550505050565b5f5f905090565b611c94611c85565b611c9f818484611c60565b505050565b5b81811015611cc257611cb75f82611c8c565b600181019050611ca5565b5050565b601f821115611d0757611cd881611baf565b611ce184611bc1565b81016020851015611cf0578190505b611d04611cfc85611bc1565b830182611ca4565b50505b505050565b5f82821c905092915050565b5f611d275f1984600802611d0c565b1980831691505092915050565b5f611d3f8383611d18565b9150826002028217905092915050565b611d598383611ba5565b67ffffffffffffffff811115611d7257611d716119e0565b5b611d7c82546119b0565b611d87828285611cc6565b5f601f831160018114611db4575f8415611da2578287013590505b611dac8582611d34565b865550611e13565b601f198416611dc286611baf565b5f5b82811015611de957848901358255600182019150602085019450602081019050611dc4565b86831015611e065784890135611e02601f891682611d18565b8355505b6001600288020188555050505b50505050505050565b5f5ffd5b5f5ffd5b5f5ffd5b5f5f83356001602003843603038112611e4457611e43611e1c565b5b80840192508235915067ffffffffffffffff821115611e6657611e65611e20565b5b602083019250600182023603831315611e8257611e81611e24565b5b509250929050565b7f456d707479206f7074696f6e00000000000000000000000000000000000000005f82015250565b5f611ebe600c836113e6565b9150611ec982611e8a565b602082019050919050565b5f6020820190508181035f830152611eeb81611eb2565b9050919050565b828183375f83830152505050565b5f611f0b83856113e6565b9350611f18838584611ef2565b611f2183611404565b840190509392505050565b5f81549050919050565b5f819050815f5260205f209050919050565b5f8154611f54816119b0565b611f5e8186611475565b9450600182165f8114611f785760018114611f8e57611fc0565b60ff198316865281151560200286019350611fc0565b611f9785611baf565b5f5b83811015611fb857815481890152600182019150602081019050611f99565b808801955050505b50505092915050565b5f611fd48383611f48565b905092915050565b5f600182019050919050565b5f611ff282611f2c565b611ffc8185611456565b93508360208202850161200e85611f36565b805f5b85811015612048578484038952816120298582611fc9565b945061203483611fdc565b925060208a01995050600181019050612011565b50829750879550505050505092915050565b5f6040820190508181035f830152612073818587611f00565b905081810360208301526120878184611fe8565b9050949350505050565b7f416c726561647920636c6f7365640000000000000000000000000000000000005f82015250565b5f6120c5600e836113e6565b91506120d082612091565b602082019050919050565b5f6020820190508181035f8301526120f2816120b9565b9050919050565b7f4e6f74206f776e657200000000000000000000000000000000000000000000005f82015250565b5f61212d6009836113e6565b9150612138826120f9565b602082019050919050565b5f6020820190508181035f83015261215a81612121565b9050919050565b7f506f6c6c20636c6f7365640000000000000000000000000000000000000000005f82015250565b5f612195600b836113e6565b91506121a082612161565b602082019050919050565b5f6020820190508181035f8301526121c281612189565b9050919050565b7f426164206f7074696f6e000000000000000000000000000000000000000000005f82015250565b5f6121fd600a836113e6565b9150612208826121c9565b602082019050919050565b5f6020820190508181035f83015261222a816121f1565b9050919050565b7f416c726561647920766f746564000000000000000000000000000000000000005f82015250565b5f612265600d836113e6565b915061227082612231565b602082019050919050565b5f6020820190508181035f83015261229281612259565b9050919050565b5f6122a38261134e565b91506122ae8361134e565b92508282019050808211156122c6576122c5611b45565b5b92915050565b7f5a65726f206164647265737300000000000000000000000000000000000000005f82015250565b5f612300600c836113e6565b915061230b826122cc565b602082019050919050565b5f6020820190508181035f83015261232d816122f4565b9050919050565b7f416c726561647920696e7374727563746f7200000000000000000000000000005f82015250565b5f6123686012836113e6565b915061237382612334565b602082019050919050565b5f6020820190508181035f8301526123958161235c565b905091905056fea2646970667358221220a9959342c2a2cc045fb27e9028351274c2f37594a173abfe4a97ee68aae8570a64736f6c634300081e0033",
					"opcodes": "PUSH1 0x80 PUSH1 0x40 MSTORE CALLVALUE DUP1 ISZERO PUSH2 0xF JUMPI PUSH0 PUSH0 REVERT JUMPDEST POP CALLER PUSH0 PUSH0 PUSH2 0x100 EXP DUP2 SLOAD DUP2 PUSH20 0xFFFFFFFFFFFFFFFFFFFFFFFFFFFFFFFFFFFFFFFF MUL NOT AND SWAP1 DUP4 PUSH20 0xFFFFFFFFFFFFFFFFFFFFFFFFFFFFFFFFFFFFFFFF AND MUL OR SWAP1 SSTORE POP CALLER PUSH20 0xFFFFFFFFFFFFFFFFFFFFFFFFFFFFFFFFFFFFFFFF AND PUSH0 PUSH20 0xFFFFFFFFFFFFFFFFFFFFFFFFFFFFFFFFFFFFFFFF AND PUSH32 0x8BE0079C531659141344CD1FD0A4F28419497F9722A3DAAFE3B4186F6B6457E0 PUSH1 0x40 MLOAD PUSH1 0x40 MLOAD DUP1 SWAP2 SUB SWAP1 LOG3 PUSH1 0x1 DUP1 PUSH0 CALLER PUSH20 0xFFFFFFFFFFFFFFFFFFFFFFFFFFFFFFFFFFFFFFFF AND PUSH20 0xFFFFFFFFFFFFFFFFFFFFFFFFFFFFFFFFFFFFFFFF AND DUP2 MSTORE PUSH1 0x20 ADD SWAP1 DUP2 MSTORE PUSH1 0x20 ADD PUSH0 KECCAK256 PUSH0 PUSH2 0x100 EXP DUP2 SLOAD DUP2 PUSH1 0xFF MUL NOT AND SWAP1 DUP4 ISZERO ISZERO MUL OR SWAP1 SSTORE POP CALLER PUSH20 0xFFFFFFFFFFFFFFFFFFFFFFFFFFFFFFFFFFFFFFFF AND PUSH32 0xFD42D8E27C57B559503004BE9FA8B7AFC701E92663745556B34E1BC24C86E06 PUSH1 0x40 MLOAD PUSH1 0x40 MLOAD DUP1 SWAP2 SUB SWAP1 LOG2 PUSH2 0x23D2 DUP1 PUSH2 0x14D PUSH0 CODECOPY PUSH0 RETURN INVALID PUSH1 0x80 PUSH1 0x40 MSTORE CALLVALUE DUP1 ISZERO PUSH2 0xF JUMPI PUSH0 PUSH0 REVERT JUMPDEST POP PUSH1 0x4 CALLDATASIZE LT PUSH2 0xB2 JUMPI PUSH0 CALLDATALOAD PUSH1 0xE0 SHR DUP1 PUSH4 0x9C566F2A GT PUSH2 0x6F JUMPI DUP1 PUSH4 0x9C566F2A EQ PUSH2 0x1A1 JUMPI DUP1 PUSH4 0xA3AFCEA2 EQ PUSH2 0x1BD JUMPI DUP1 PUSH4 0xB384ABEF EQ PUSH2 0x1ED JUMPI DUP1 PUSH4 0xB9399E13 EQ PUSH2 0x209 JUMPI DUP1 PUSH4 0xE1ADAF58 EQ PUSH2 0x225 JUMPI DUP1 PUSH4 0xF2FDE38B EQ PUSH2 0x255 JUMPI PUSH2 0xB2 JUMP JUMPDEST DUP1 PUSH4 0x11A52746 EQ PUSH2 0xB6 JUMPI DUP1 PUSH4 0x1A8CBCAA EQ PUSH2 0xD4 JUMPI DUP1 PUSH4 0x43859632 EQ PUSH2 0x107 JUMPI DUP1 PUSH4 0x7E3D71C3 EQ PUSH2 0x137 JUMPI DUP1 PUSH4 0x8DA5CB5B EQ PUSH2 0x167 JUMPI DUP1 PUSH4 0x9534E637 EQ PUSH2 0x185 JUMPI JUMPDEST PUSH0 PUSH0 REVERT JUMPDEST PUSH2 0xBE PUSH2 0x271 JUMP JUMPDEST PUSH1 0x40 MLOAD PUSH2 0xCB SWAP2 SWAP1 PUSH2 0x1366 JUMP JUMPDEST PUSH1 0x40 MLOAD DUP1 SWAP2 SUB SWAP1 RETURN JUMPDEST PUSH2 0xEE PUSH1 0x4 DUP1 CALLDATASIZE SUB DUP2 ADD SWAP1 PUSH2 0xE9 SWAP2 SWAP1 PUSH2 0x13B1 JUMP JUMPDEST PUSH2 0x27D JUMP JUMPDEST PUSH1 0x40 MLOAD PUSH2 0xFE SWAP5 SWAP4 SWAP3 SWAP2 SWAP1 PUSH2 0x1620 JUMP JUMPDEST PUSH1 0x40 MLOAD DUP1 SWAP2 SUB SWAP1 RETURN JUMPDEST PUSH2 0x121 PUSH1 0x4 DUP1 CALLDATASIZE SUB DUP2 ADD SWAP1 PUSH2 0x11C SWAP2 SWAP1 PUSH2 0x16D2 JUMP JUMPDEST PUSH2 0x557 JUMP JUMPDEST PUSH1 0x40 MLOAD PUSH2 0x12E SWAP2 SWAP1 PUSH2 0x1710 JUMP JUMPDEST PUSH1 0x40 MLOAD DUP1 SWAP2 SUB SWAP1 RETURN JUMPDEST PUSH2 0x151 PUSH1 0x4 DUP1 CALLDATASIZE SUB DUP2 ADD SWAP1 PUSH2 0x14C SWAP2 SWAP1 PUSH2 0x17DF JUMP JUMPDEST PUSH2 0x612 JUMP JUMPDEST PUSH1 0x40 MLOAD PUSH2 0x15E SWAP2 SWAP1 PUSH2 0x1366 JUMP JUMPDEST PUSH1 0x40 MLOAD DUP1 SWAP2 SUB SWAP1 RETURN JUMPDEST PUSH2 0x16F PUSH2 0x910 JUMP JUMPDEST PUSH1 0x40 MLOAD PUSH2 0x17C SWAP2 SWAP1 PUSH2 0x186C JUMP JUMPDEST PUSH1 0x40 MLOAD DUP1 SWAP2 SUB SWAP1 RETURN JUMPDEST PUSH2 0x19F PUSH1 0x4 DUP1 CALLDATASIZE SUB DUP2 ADD SWAP1 PUSH2 0x19A SWAP2 SWAP1 PUSH2 0x13B1 JUMP JUMPDEST PUSH2 0x934 JUMP JUMPDEST STOP JUMPDEST PUSH2 0x1BB PUSH1 0x4 DUP1 CALLDATASIZE SUB DUP2 ADD SWAP1 PUSH2 0x1B6 SWAP2 SWAP1 PUSH2 0x1885 JUMP JUMPDEST PUSH2 0xAC3 JUMP JUMPDEST STOP JUMPDEST PUSH2 0x1D7 PUSH1 0x4 DUP1 CALLDATASIZE SUB DUP2 ADD SWAP1 PUSH2 0x1D2 SWAP2 SWAP1 PUSH2 0x1885 JUMP JUMPDEST PUSH2 0xC74 JUMP JUMPDEST PUSH1 0x40 MLOAD PUSH2 0x1E4 SWAP2 SWAP1 PUSH2 0x1710 JUMP JUMPDEST PUSH1 0x40 MLOAD DUP1 SWAP2 SUB SWAP1 RETURN JUMPDEST PUSH2 0x207 PUSH1 0x4 DUP1 CALLDATASIZE SUB DUP2 ADD SWAP1 PUSH2 0x202 SWAP2 SWAP1 PUSH2 0x18B0 JUMP JUMPDEST PUSH2 0xC91 JUMP JUMPDEST STOP JUMPDEST PUSH2 0x223 PUSH1 0x4 DUP1 CALLDATASIZE SUB DUP2 ADD SWAP1 PUSH2 0x21E SWAP2 SWAP1 PUSH2 0x1885 JUMP JUMPDEST PUSH2 0xF00 JUMP JUMPDEST STOP JUMPDEST PUSH2 0x23F PUSH1 0x4 DUP1 CALLDATASIZE SUB DUP2 ADD SWAP1 PUSH2 0x23A SWAP2 SWAP1 PUSH2 0x13B1 JUMP JUMPDEST PUSH2 0x1120 JUMP JUMPDEST PUSH1 0x40 MLOAD PUSH2 0x24C SWAP2 SWAP1 PUSH2 0x1366 JUMP JUMPDEST PUSH1 0x40 MLOAD DUP1 SWAP2 SUB SWAP1 RETURN JUMPDEST PUSH2 0x26F PUSH1 0x4 DUP1 CALLDATASIZE SUB DUP2 ADD SWAP1 PUSH2 0x26A SWAP2 SWAP1 PUSH2 0x1885 JUMP JUMPDEST PUSH2 0x1196 JUMP JUMPDEST STOP JUMPDEST PUSH0 PUSH1 0x2 DUP1 SLOAD SWAP1 POP SWAP1 POP SWAP1 JUMP JUMPDEST PUSH1 0x60 DUP1 PUSH1 0x60 PUSH0 PUSH1 0x2 DUP1 SLOAD SWAP1 POP DUP6 LT PUSH2 0x2CA JUMPI PUSH1 0x40 MLOAD PUSH32 0x8C379A000000000000000000000000000000000000000000000000000000000 DUP2 MSTORE PUSH1 0x4 ADD PUSH2 0x2C1 SWAP1 PUSH2 0x1938 JUMP JUMPDEST PUSH1 0x40 MLOAD DUP1 SWAP2 SUB SWAP1 REVERT JUMPDEST PUSH0 PUSH1 0x2 DUP7 DUP2 SLOAD DUP2 LT PUSH2 0x2DF JUMPI PUSH2 0x2DE PUSH2 0x1956 JUMP JUMPDEST JUMPDEST SWAP1 PUSH0 MSTORE PUSH1 0x20 PUSH0 KECCAK256 SWAP1 PUSH1 0x5 MUL ADD SWAP1 POP DUP1 PUSH0 ADD DUP1 SLOAD PUSH2 0x2FB SWAP1 PUSH2 0x19B0 JUMP JUMPDEST DUP1 PUSH1 0x1F ADD PUSH1 0x20 DUP1 SWAP2 DIV MUL PUSH1 0x20 ADD PUSH1 0x40 MLOAD SWAP1 DUP2 ADD PUSH1 0x40 MSTORE DUP1 SWAP3 SWAP2 SWAP1 DUP2 DUP2 MSTORE PUSH1 0x20 ADD DUP3 DUP1 SLOAD PUSH2 0x327 SWAP1 PUSH2 0x19B0 JUMP JUMPDEST DUP1 ISZERO PUSH2 0x372 JUMPI DUP1 PUSH1 0x1F LT PUSH2 0x349 JUMPI PUSH2 0x100 DUP1 DUP4 SLOAD DIV MUL DUP4 MSTORE SWAP2 PUSH1 0x20 ADD SWAP2 PUSH2 0x372 JUMP JUMPDEST DUP3 ADD SWAP2 SWAP1 PUSH0 MSTORE PUSH1 0x20 PUSH0 KECCAK256 SWAP1 JUMPDEST DUP2 SLOAD DUP2 MSTORE SWAP1 PUSH1 0x1 ADD SWAP1 PUSH1 0x20 ADD DUP1 DUP4 GT PUSH2 0x355 JUMPI DUP3 SWAP1 SUB PUSH1 0x1F AND DUP3 ADD SWAP2 JUMPDEST POP POP POP POP POP SWAP5 POP DUP1 PUSH1 0x3 ADD PUSH0 SWAP1 SLOAD SWAP1 PUSH2 0x100 EXP SWAP1 DIV PUSH1 0xFF AND SWAP2 POP PUSH0 DUP2 PUSH1 0x1 ADD DUP1 SLOAD SWAP1 POP SWAP1 POP DUP1 PUSH8 0xFFFFFFFFFFFFFFFF DUP2 GT ISZERO PUSH2 0x3B1 JUMPI PUSH2 0x3B0 PUSH2 0x19E0 JUMP JUMPDEST JUMPDEST PUSH1 0x40 MLOAD SWAP1 DUP1 DUP3 MSTORE DUP1 PUSH1 0x20 MUL PUSH1 0x20 ADD DUP3 ADD PUSH1 0x40 MSTORE DUP1 ISZERO PUSH2 0x3E4 JUMPI DUP2 PUSH1 0x20 ADD JUMPDEST PUSH1 0x60 DUP2 MSTORE PUSH1 0x20 ADD SWAP1 PUSH1 0x1 SWAP1 SUB SWAP1 DUP2 PUSH2 0x3CF JUMPI SWAP1 POP JUMPDEST POP SWAP5 POP DUP1 PUSH8 0xFFFFFFFFFFFFFFFF DUP2 GT ISZERO PUSH2 0x401 JUMPI PUSH2 0x400 PUSH2 0x19E0 JUMP JUMPDEST JUMPDEST PUSH1 0x40 MLOAD SWAP1 DUP1 DUP3 MSTORE DUP1 PUSH1 0x20 MUL PUSH1 0x20 ADD DUP3 ADD PUSH1 0x40 MSTORE DUP1 ISZERO PUSH2 0x42F JUMPI DUP2 PUSH1 0x20 ADD PUSH1 0x20 DUP3 MUL DUP1 CALLDATASIZE DUP4 CALLDATACOPY DUP1 DUP3 ADD SWAP2 POP POP SWAP1 POP JUMPDEST POP SWAP4 POP PUSH0 PUSH0 SWAP1 POP JUMPDEST DUP2 DUP2 LT ISZERO PUSH2 0x54D JUMPI DUP3 PUSH1 0x1 ADD DUP2 DUP2 SLOAD DUP2 LT PUSH2 0x455 JUMPI PUSH2 0x454 PUSH2 0x1956 JUMP JUMPDEST JUMPDEST SWAP1 PUSH0 MSTORE PUSH1 0x20 PUSH0 KECCAK256 ADD DUP1 SLOAD PUSH2 0x468 SWAP1 PUSH2 0x19B0 JUMP JUMPDEST DUP1 PUSH1 0x1F ADD PUSH1 0x20 DUP1 SWAP2 DIV MUL PUSH1 0x20 ADD PUSH1 0x40 MLOAD SWAP1 DUP2 ADD PUSH1 0x40 MSTORE DUP1 SWAP3 SWAP2 SWAP1 DUP2 DUP2 MSTORE PUSH1 0x20 ADD DUP3 DUP1 SLOAD PUSH2 0x494 SWAP1 PUSH2 0x19B0 JUMP JUMPDEST DUP1 ISZERO PUSH2 0x4DF JUMPI DUP1 PUSH1 0x1F LT PUSH2 0x4B6 JUMPI PUSH2 0x100 DUP1 DUP4 SLOAD DIV MUL DUP4 MSTORE SWAP2 PUSH1 0x20 ADD SWAP2 PUSH2 0x4DF JUMP JUMPDEST DUP3 ADD SWAP2 SWAP1 PUSH0 MSTORE PUSH1 0x20 PUSH0 KECCAK256 SWAP1 JUMPDEST DUP2 SLOAD DUP2 MSTORE SWAP1 PUSH1 0x1 ADD SWAP1 PUSH1 0x20 ADD DUP1 DUP4 GT PUSH2 0x4C2 JUMPI DUP3 SWAP1 SUB PUSH1 0x1F AND DUP3 ADD SWAP2 JUMPDEST POP POP POP POP POP DUP7 DUP3 DUP2 MLOAD DUP2 LT PUSH2 0x4F7 JUMPI PUSH2 0x4F6 PUSH2 0x1956 JUMP JUMPDEST JUMPDEST PUSH1 0x20 MUL PUSH1 0x20 ADD ADD DUP2 SWAP1 MSTORE POP DUP3 PUSH1 0x2 ADD DUP2 DUP2 SLOAD DUP2 LT PUSH2 0x518 JUMPI PUSH2 0x517 PUSH2 0x1956 JUMP JUMPDEST JUMPDEST SWAP1 PUSH0 MSTORE PUSH1 0x20 PUSH0 KECCAK256 ADD SLOAD DUP6 DUP3 DUP2 MLOAD DUP2 LT PUSH2 0x534 JUMPI PUSH2 0x533 PUSH2 0x1956 JUMP JUMPDEST JUMPDEST PUSH1 0x20 MUL PUSH1 0x20 ADD ADD DUP2 DUP2 MSTORE POP POP DUP1 DUP1 PUSH1 0x1 ADD SWAP2 POP POP PUSH2 0x437 JUMP JUMPDEST POP POP POP SWAP2 SWAP4 POP SWAP2 SWAP4 JUMP JUMPDEST PUSH0 PUSH1 0x2 DUP1 SLOAD SWAP1 POP DUP4 LT PUSH2 0x59F JUMPI PUSH1 0x40 MLOAD PUSH32 0x8C379A000000000000000000000000000000000000000000000000000000000 DUP2 MSTORE PUSH1 0x4 ADD PUSH2 0x596 SWAP1 PUSH2 0x1938 JUMP JUMPDEST PUSH1 0x40 MLOAD DUP1 SWAP2 SUB SWAP1 REVERT JUMPDEST PUSH1 0x2 DUP4 DUP2 SLOAD DUP2 LT PUSH2 0x5B3 JUMPI PUSH2 0x5B2 PUSH2 0x1956 JUMP JUMPDEST JUMPDEST SWAP1 PUSH0 MSTORE PUSH1 0x20 PUSH0 KECCAK256 SWAP1 PUSH1 0x5 MUL ADD PUSH1 0x4 ADD PUSH0 DUP4 PUSH20 0xFFFFFFFFFFFFFFFFFFFFFFFFFFFFFFFFFFFFFFFF AND PUSH20 0xFFFFFFFFFFFFFFFFFFFFFFFFFFFFFFFFFFFFFFFF AND DUP2 MSTORE PUSH1 0x20 ADD SWAP1 DUP2 MSTORE PUSH1 0x20 ADD PUSH0 KECCAK256 PUSH0 SWAP1 SLOAD SWAP1 PUSH2 0x100 EXP SWAP1 DIV PUSH1 0xFF AND SWAP1 POP SWAP3 SWAP2 POP POP JUMP JUMPDEST PUSH0 PUSH1 0x1 PUSH0 CALLER PUSH20 0xFFFFFFFFFFFFFFFFFFFFFFFFFFFFFFFFFFFFFFFF AND PUSH20 0xFFFFFFFFFFFFFFFFFFFFFFFFFFFFFFFFFFFFFFFF AND DUP2 MSTORE PUSH1 0x20 ADD SWAP1 DUP2 MSTORE PUSH1 0x20 ADD PUSH0 KECCAK256 PUSH0 SWAP1 SLOAD SWAP1 PUSH2 0x100 EXP SWAP1 DIV PUSH1 0xFF AND PUSH2 0x69C JUMPI PUSH1 0x40 MLOAD PUSH32 0x8C379A000000000000000000000000000000000000000000000000000000000 DUP2 MSTORE PUSH1 0x4 ADD PUSH2 0x693 SWAP1 PUSH2 0x1A57 JUMP JUMPDEST PUSH1 0x40 MLOAD DUP1 SWAP2 SUB SWAP1 REVERT JUMPDEST PUSH0 DUP6 DUP6 SWAP1 POP GT PUSH2 0x6E1 JUMPI PUSH1 0x40 MLOAD PUSH32 0x8C379A000000000000000000000000000000000000000000000000000000000 DUP2 MSTORE PUSH1 0x4 ADD PUSH2 0x6D8 SWAP1 PUSH2 0x1ABF JUMP JUMPDEST PUSH1 0x40 MLOAD DUP1 SWAP2 SUB SWAP1 REVERT JUMPDEST PUSH1 0x2 DUP4 DUP4 SWAP1 POP LT ISZERO DUP1 ISZERO PUSH2 0x6F9 JUMPI POP PUSH1 0xA DUP4 DUP4 SWAP1 POP GT ISZERO JUMPDEST PUSH2 0x738 JUMPI PUSH1 0x40 MLOAD PUSH32 0x8C379A000000000000000000000000000000000000000000000000000000000 DUP2 MSTORE PUSH1 0x4 ADD PUSH2 0x72F SWAP1 PUSH2 0x1B27 JUMP JUMPDEST PUSH1 0x40 MLOAD DUP1 SWAP2 SUB SWAP1 REVERT JUMPDEST PUSH1 0x2 PUSH1 0x1 DUP2 PUSH1 0x1 DUP2 SLOAD ADD DUP1 DUP3 SSTORE DUP1 SWAP2 POP POP SUB SWAP1 PUSH0 MSTORE PUSH1 0x20 PUSH0 KECCAK256 SWAP1 POP POP PUSH1 0x1 PUSH1 0x2 DUP1 SLOAD SWAP1 POP PUSH2 0x766 SWAP2 SWAP1 PUSH2 0x1B72 JUMP JUMPDEST SWAP1 POP PUSH0 PUSH1 0x2 DUP3 DUP2 SLOAD DUP2 LT PUSH2 0x77D JUMPI PUSH2 0x77C PUSH2 0x1956 JUMP JUMPDEST JUMPDEST SWAP1 PUSH0 MSTORE PUSH1 0x20 PUSH0 KECCAK256 SWAP1 PUSH1 0x5 MUL ADD SWAP1 POP DUP6 DUP6 DUP3 PUSH0 ADD SWAP2 DUP3 PUSH2 0x79D SWAP3 SWAP2 SWAP1 PUSH2 0x1D4F JUMP JUMPDEST POP PUSH1 0x1 DUP2 PUSH1 0x3 ADD PUSH0 PUSH2 0x100 EXP DUP2 SLOAD DUP2 PUSH1 0xFF MUL NOT AND SWAP1 DUP4 ISZERO ISZERO MUL OR SWAP1 SSTORE POP PUSH0 PUSH0 SWAP1 POP JUMPDEST DUP5 DUP5 SWAP1 POP DUP2 LT ISZERO PUSH2 0x8C7 JUMPI PUSH0 DUP6 DUP6 DUP4 DUP2 DUP2 LT PUSH2 0x7DE JUMPI PUSH2 0x7DD PUSH2 0x1956 JUMP JUMPDEST JUMPDEST SWAP1 POP PUSH1 0x20 MUL DUP2 ADD SWAP1 PUSH2 0x7F0 SWAP2 SWAP1 PUSH2 0x1E28 JUMP JUMPDEST SWAP1 POP GT PUSH2 0x832 JUMPI PUSH1 0x40 MLOAD PUSH32 0x8C379A000000000000000000000000000000000000000000000000000000000 DUP2 MSTORE PUSH1 0x4 ADD PUSH2 0x829 SWAP1 PUSH2 0x1ED4 JUMP JUMPDEST PUSH1 0x40 MLOAD DUP1 SWAP2 SUB SWAP1 REVERT JUMPDEST DUP2 PUSH1 0x1 ADD DUP6 DUP6 DUP4 DUP2 DUP2 LT PUSH2 0x849 JUMPI PUSH2 0x848 PUSH2 0x1956 JUMP JUMPDEST JUMPDEST SWAP1 POP PUSH1 0x20 MUL DUP2 ADD SWAP1 PUSH2 0x85B SWAP2 SWAP1 PUSH2 0x1E28 JUMP JUMPDEST SWAP1 SWAP2 DUP1 PUSH1 0x1 DUP2 SLOAD ADD DUP1 DUP3 SSTORE DUP1 SWAP2 POP POP PUSH1 0x1 SWAP1 SUB SWAP1 PUSH0 MSTORE PUSH1 0x20 PUSH0 KECCAK256 ADD PUSH0 SWAP1 SWAP2 SWAP3 SWAP1 SWAP2 SWAP3 SWAP1 SWAP2 SWAP3 SWAP1 SWAP2 SWAP3 POP SWAP2 DUP3 PUSH2 0x891 SWAP3 SWAP2 SWAP1 PUSH2 0x1D4F JUMP JUMPDEST POP DUP2 PUSH1 0x2 ADD PUSH0 SWAP1 DUP1 PUSH1 0x1 DUP2 SLOAD ADD DUP1 DUP3 SSTORE DUP1 SWAP2 POP POP PUSH1 0x1 SWAP1 SUB SWAP1 PUSH0 MSTORE PUSH1 0x20 PUSH0 KECCAK256 ADD PUSH0 SWAP1 SWAP2 SWAP1 SWAP2 SWAP1 SWAP2 POP SSTORE DUP1 DUP1 PUSH1 0x1 ADD SWAP2 POP POP PUSH2 0x7BF JUMP JUMPDEST POP DUP2 PUSH32 0x4BE3F505BF50604BDE92E6940E2DF40C36F90CB362640413D520080CA12EABB2 DUP8 DUP8 DUP5 PUSH1 0x1 ADD PUSH1 0x40 MLOAD PUSH2 0x8FF SWAP4 SWAP3 SWAP2 SWAP1 PUSH2 0x205A JUMP JUMPDEST PUSH1 0x40 MLOAD DUP1 SWAP2 SUB SWAP1 LOG2 POP SWAP5 SWAP4 POP POP POP POP JUMP JUMPDEST PUSH0 PUSH0 SWAP1 SLOAD SWAP1 PUSH2 0x100 EXP SWAP1 DIV PUSH20 0xFFFFFFFFFFFFFFFFFFFFFFFFFFFFFFFFFFFFFFFF AND DUP2 JUMP JUMPDEST PUSH1 0x1 PUSH0 CALLER PUSH20 0xFFFFFFFFFFFFFFFFFFFFFFFFFFFFFFFFFFFFFFFF AND PUSH20 0xFFFFFFFFFFFFFFFFFFFFFFFFFFFFFFFFFFFFFFFF AND DUP2 MSTORE PUSH1 0x20 ADD SWAP1 DUP2 MSTORE PUSH1 0x20 ADD PUSH0 KECCAK256 PUSH0 SWAP1 SLOAD SWAP1 PUSH2 0x100 EXP SWAP1 DIV PUSH1 0xFF AND PUSH2 0x9BD JUMPI PUSH1 0x40 MLOAD PUSH32 0x8C379A000000000000000000000000000000000000000000000000000000000 DUP2 MSTORE PUSH1 0x4 ADD PUSH2 0x9B4 SWAP1 PUSH2 0x1A57 JUMP JUMPDEST PUSH1 0x40 MLOAD DUP1 SWAP2 SUB SWAP1 REVERT JUMPDEST PUSH1 0x2 DUP1 SLOAD SWAP1 POP DUP2 LT PUSH2 0xA04 JUMPI PUSH1 0x40 MLOAD PUSH32 0x8C379A000000000000000000000000000000000000000000000000000000000 DUP2 MSTORE PUSH1 0x4 ADD PUSH2 0x9FB SWAP1 PUSH2 0x1938 JUMP JUMPDEST PUSH1 0x40 MLOAD DUP1 SWAP2 SUB SWAP1 REVERT JUMPDEST PUSH0 PUSH1 0x2 DUP3 DUP2 SLOAD DUP2 LT PUSH2 0xA19 JUMPI PUSH2 0xA18 PUSH2 0x1956 JUMP JUMPDEST JUMPDEST SWAP1 PUSH0 MSTORE PUSH1 0x20 PUSH0 KECCAK256 SWAP1 PUSH1 0x5 MUL ADD SWAP1 POP DUP1 PUSH1 0x3 ADD PUSH0 SWAP1 SLOAD SWAP1 PUSH2 0x100 EXP SWAP1 DIV PUSH1 0xFF AND PUSH2 0xA77 JUMPI PUSH1 0x40 MLOAD PUSH32 0x8C379A000000000000000000000000000000000000000000000000000000000 DUP2 MSTORE PUSH1 0x4 ADD PUSH2 0xA6E SWAP1 PUSH2 0x20DB JUMP JUMPDEST PUSH1 0x40 MLOAD DUP1 SWAP2 SUB SWAP1 REVERT JUMPDEST PUSH0 DUP2 PUSH1 0x3 ADD PUSH0 PUSH2 0x100 EXP DUP2 SLOAD DUP2 PUSH1 0xFF MUL NOT AND SWAP1 DUP4 ISZERO ISZERO MUL OR SWAP1 SSTORE POP DUP2 PUSH32 0x703C67C157A1AFB7D386CE5212EE88BF0A690BCA998060E9595EBDFD747100CE PUSH1 0x40 MLOAD PUSH1 0x40 MLOAD DUP1 SWAP2 SUB SWAP1 LOG2 POP POP JUMP JUMPDEST PUSH0 PUSH0 SWAP1 SLOAD SWAP1 PUSH2 0x100 EXP SWAP1 DIV PUSH20 0xFFFFFFFFFFFFFFFFFFFFFFFFFFFFFFFFFFFFFFFF AND PUSH20 0xFFFFFFFFFFFFFFFFFFFFFFFFFFFFFFFFFFFFFFFF AND CALLER PUSH20 0xFFFFFFFFFFFFFFFFFFFFFFFFFFFFFFFFFFFFFFFF AND EQ PUSH2 0xB51 JUMPI PUSH1 0x40 MLOAD PUSH32 0x8C379A000000000000000000000000000000000000000000000000000000000 DUP2 MSTORE PUSH1 0x4 ADD PUSH2 0xB48 SWAP1 PUSH2 0x2143 JUMP JUMPDEST PUSH1 0x40 MLOAD DUP1 SWAP2 SUB SWAP1 REVERT JUMPDEST PUSH1 0x1 PUSH0 DUP3 PUSH20 0xFFFFFFFFFFFFFFFFFFFFFFFFFFFFFFFFFFFFFFFF AND PUSH20 0xFFFFFFFFFFFFFFFFFFFFFFFFFFFFFFFFFFFFFFFF AND DUP2 MSTORE PUSH1 0x20 ADD SWAP1 DUP2 MSTORE PUSH1 0x20 ADD PUSH0 KECCAK256 PUSH0 SWAP1 SLOAD SWAP1 PUSH2 0x100 EXP SWAP1 DIV PUSH1 0xFF AND PUSH2 0xBDA JUMPI PUSH1 0x40 MLOAD PUSH32 0x8C379A000000000000000000000000000000000000000000000000000000000 DUP2 MSTORE PUSH1 0x4 ADD PUSH2 0xBD1 SWAP1 PUSH2 0x1A57 JUMP JUMPDEST PUSH1 0x40 MLOAD DUP1 SWAP2 SUB SWAP1 REVERT JUMPDEST PUSH0 PUSH1 0x1 PUSH0 DUP4 PUSH20 0xFFFFFFFFFFFFFFFFFFFFFFFFFFFFFFFFFFFFFFFF AND PUSH20 0xFFFFFFFFFFFFFFFFFFFFFFFFFFFFFFFFFFFFFFFF AND DUP2 MSTORE PUSH1 0x20 ADD SWAP1 DUP2 MSTORE PUSH1 0x20 ADD PUSH0 KECCAK256 PUSH0 PUSH2 0x100 EXP DUP2 SLOAD DUP2 PUSH1 0xFF MUL NOT AND SWAP1 DUP4 ISZERO ISZERO MUL OR SWAP1 SSTORE POP DUP1 PUSH20 0xFFFFFFFFFFFFFFFFFFFFFFFFFFFFFFFFFFFFFFFF AND PUSH32 0x58B33451E693031C89AAC54FDEBCB185754A62BC399DB605A6A5BB0FAC67373F PUSH1 0x40 MLOAD PUSH1 0x40 MLOAD DUP1 SWAP2 SUB SWAP1 LOG2 POP JUMP JUMPDEST PUSH1 0x1 PUSH1 0x20 MSTORE DUP1 PUSH0 MSTORE PUSH1 0x40 PUSH0 KECCAK256 PUSH0 SWAP2 POP SLOAD SWAP1 PUSH2 0x100 EXP SWAP1 DIV PUSH1 0xFF AND DUP2 JUMP JUMPDEST PUSH1 0x2 DUP1 SLOAD SWAP1 POP DUP3 LT PUSH2 0xCD8 JUMPI PUSH1 0x40 MLOAD PUSH32 0x8C379A000000000000000000000000000000000000000000000000000000000 DUP2 MSTORE PUSH1 0x4 ADD PUSH2 0xCCF SWAP1 PUSH2 0x1938 JUMP JUMPDEST PUSH1 0x40 MLOAD DUP1 SWAP2 SUB SWAP1 REVERT JUMPDEST PUSH0 PUSH1 0x2 DUP4 DUP2 SLOAD DUP2 LT PUSH2 0xCED JUMPI PUSH2 0xCEC PUSH2 0x1956 JUMP JUMPDEST JUMPDEST SWAP1 PUSH0 MSTORE PUSH1 0x20 PUSH0 KECCAK256 SWAP1 PUSH1 0x5 MUL ADD SWAP1 POP DUP1 PUSH1 0x3 ADD PUSH0 SWAP1 SLOAD SWAP1 PUSH2 0x100 EXP SWAP1 DIV PUSH1 0xFF AND PUSH2 0xD4B JUMPI PUSH1 0x40 MLOAD PUSH32 0x8C379A000000000000000000000000000000000000000000000000000000000 DUP2 MSTORE PUSH1 0x4 ADD PUSH2 0xD42 SWAP1 PUSH2 0x21AB JUMP JUMPDEST PUSH1 0x40 MLOAD DUP1 SWAP2 SUB SWAP1 REVERT JUMPDEST DUP1 PUSH1 0x1 ADD DUP1 SLOAD SWAP1 POP DUP3 LT PUSH2 0xD94 JUMPI PUSH1 0x40 MLOAD PUSH32 0x8C379A000000000000000000000000000000000000000000000000000000000 DUP2 MSTORE PUSH1 0x4 ADD PUSH2 0xD8B SWAP1 PUSH2 0x2213 JUMP JUMPDEST PUSH1 0x40 MLOAD DUP1 SWAP2 SUB SWAP1 REVERT JUMPDEST DUP1 PUSH1 0x4 ADD PUSH0 CALLER PUSH20 0xFFFFFFFFFFFFFFFFFFFFFFFFFFFFFFFFFFFFFFFF AND PUSH20 0xFFFFFFFFFFFFFFFFFFFFFFFFFFFFFFFFFFFFFFFF AND DUP2 MSTORE PUSH1 0x20 ADD SWAP1 DUP2 MSTORE PUSH1 0x20 ADD PUSH0 KECCAK256 PUSH0 SWAP1 SLOAD SWAP1 PUSH2 0x100 EXP SWAP1 DIV PUSH1 0xFF AND ISZERO PUSH2 0xE20 JUMPI PUSH1 0x40 MLOAD PUSH32 0x8C379A000000000000000000000000000000000000000000000000000000000 DUP2 MSTORE PUSH1 0x4 ADD PUSH2 0xE17 SWAP1 PUSH2 0x227B JUMP JUMPDEST PUSH1 0x40 MLOAD DUP1 SWAP2 SUB SWAP1 REVERT JUMPDEST PUSH1 0x1 DUP2 PUSH1 0x4 ADD PUSH0 CALLER PUSH20 0xFFFFFFFFFFFFFFFFFFFFFFFFFFFFFFFFFFFFFFFF AND PUSH20 0xFFFFFFFFFFFFFFFFFFFFFFFFFFFFFFFFFFFFFFFF AND DUP2 MSTORE PUSH1 0x20 ADD SWAP1 DUP2 MSTORE PUSH1 0x20 ADD PUSH0 KECCAK256 PUSH0 PUSH2 0x100 EXP DUP2 SLOAD DUP2 PUSH1 0xFF MUL NOT AND SWAP1 DUP4 ISZERO ISZERO MUL OR SWAP1 SSTORE POP PUSH1 0x1 DUP2 PUSH1 0x2 ADD DUP4 DUP2 SLOAD DUP2 LT PUSH2 0xE8F JUMPI PUSH2 0xE8E PUSH2 0x1956 JUMP JUMPDEST JUMPDEST SWAP1 PUSH0 MSTORE PUSH1 0x20 PUSH0 KECCAK256 ADD PUSH0 DUP3 DUP3 SLOAD PUSH2 0xEA5 SWAP2 SWAP1 PUSH2 0x2299 JUMP JUMPDEST SWAP3 POP POP DUP2 SWAP1 SSTORE POP CALLER PUSH20 0xFFFFFFFFFFFFFFFFFFFFFFFFFFFFFFFFFFFFFFFF AND DUP4 PUSH32 0x2ACCE567DECA3AABF56327ADBB4524BD5318936EAEFA69E3A5208FFDA0CFEC09 DUP5 PUSH1 0x40 MLOAD PUSH2 0xEF3 SWAP2 SWAP1 PUSH2 0x1366 JUMP JUMPDEST PUSH1 0x40 MLOAD DUP1 SWAP2 SUB SWAP1 LOG3 POP POP POP JUMP JUMPDEST PUSH0 PUSH0 SWAP1 SLOAD SWAP1 PUSH2 0x100 EXP SWAP1 DIV PUSH20 0xFFFFFFFFFFFFFFFFFFFFFFFFFFFFFFFFFFFFFFFF AND PUSH20 0xFFFFFFFFFFFFFFFFFFFFFFFFFFFFFFFFFFFFFFFF AND CALLER PUSH20 0xFFFFFFFFFFFFFFFFFFFFFFFFFFFFFFFFFFFFFFFF AND EQ PUSH2 0xF8E JUMPI PUSH1 0x40 MLOAD PUSH32 0x8C379A000000000000000000000000000000000000000000000000000000000 DUP2 MSTORE PUSH1 0x4 ADD PUSH2 0xF85 SWAP1 PUSH2 0x2143 JUMP JUMPDEST PUSH1 0x40 MLOAD DUP1 SWAP2 SUB SWAP1 REVERT JUMPDEST PUSH0 PUSH20 0xFFFFFFFFFFFFFFFFFFFFFFFFFFFFFFFFFFFFFFFF AND DUP2 PUSH20 0xFFFFFFFFFFFFFFFFFFFFFFFFFFFFFFFFFFFFFFFF AND SUB PUSH2 0xFFC JUMPI PUSH1 0x40 MLOAD PUSH32 0x8C379A000000000000000000000000000000000000000000000000000000000 DUP2 MSTORE PUSH1 0x4 ADD PUSH2 0xFF3 SWAP1 PUSH2 0x2316 JUMP JUMPDEST PUSH1 0x40 MLOAD DUP1 SWAP2 SUB SWAP1 REVERT JUMPDEST PUSH1 0x1 PUSH0 DUP3 PUSH20 0xFFFFFFFFFFFFFFFFFFFFFFFFFFFFFFFFFFFFFFFF AND PUSH20 0xFFFFFFFFFFFFFFFFFFFFFFFFFFFFFFFFFFFFFFFF AND DUP2 MSTORE PUSH1 0x20 ADD SWAP1 DUP2 MSTORE PUSH1 0x20 ADD PUSH0 KECCAK256 PUSH0 SWAP1 SLOAD SWAP1 PUSH2 0x100 EXP SWAP1 DIV PUSH1 0xFF AND ISZERO PUSH2 0x1086 JUMPI PUSH1 0x40 MLOAD PUSH32 0x8C379A000000000000000000000000000000000000000000000000000000000 DUP2 MSTORE PUSH1 0x4 ADD PUSH2 0x107D SWAP1 PUSH2 0x237E JUMP JUMPDEST PUSH1 0x40 MLOAD DUP1 SWAP2 SUB SWAP1 REVERT JUMPDEST PUSH1 0x1 DUP1 PUSH0 DUP4 PUSH20 0xFFFFFFFFFFFFFFFFFFFFFFFFFFFFFFFFFFFFFFFF AND PUSH20 0xFFFFFFFFFFFFFFFFFFFFFFFFFFFFFFFFFFFFFFFF AND DUP2 MSTORE PUSH1 0x20 ADD SWAP1 DUP2 MSTORE PUSH1 0x20 ADD PUSH0 KECCAK256 PUSH0 PUSH2 0x100 EXP DUP2 SLOAD DUP2 PUSH1 0xFF MUL NOT AND SWAP1 DUP4 ISZERO ISZERO MUL OR SWAP1 SSTORE POP DUP1 PUSH20 0xFFFFFFFFFFFFFFFFFFFFFFFFFFFFFFFFFFFFFFFF AND PUSH32 0xFD42D8E27C57B559503004BE9FA8B7AFC701E92663745556B34E1BC24C86E06 PUSH1 0x40 MLOAD PUSH1 0x40 MLOAD DUP1 SWAP2 SUB SWAP1 LOG2 POP JUMP JUMPDEST PUSH0 PUSH1 0x2 DUP1 SLOAD SWAP1 POP DUP3 LT PUSH2 0x1168 JUMPI PUSH1 0x40 MLOAD PUSH32 0x8C379A000000000000000000000000000000000000000000000000000000000 DUP2 MSTORE PUSH1 0x4 ADD PUSH2 0x115F SWAP1 PUSH2 0x1938 JUMP JUMPDEST PUSH1 0x40 MLOAD DUP1 SWAP2 SUB SWAP1 REVERT JUMPDEST PUSH1 0x2 DUP3 DUP2 SLOAD DUP2 LT PUSH2 0x117C JUMPI PUSH2 0x117B PUSH2 0x1956 JUMP JUMPDEST JUMPDEST SWAP1 PUSH0 MSTORE PUSH1 0x20 PUSH0 KECCAK256 SWAP1 PUSH1 0x5 MUL ADD PUSH1 0x1 ADD DUP1 SLOAD SWAP1 POP SWAP1 POP SWAP2 SWAP1 POP JUMP JUMPDEST PUSH0 PUSH0 SWAP1 SLOAD SWAP1 PUSH2 0x100 EXP SWAP1 DIV PUSH20 0xFFFFFFFFFFFFFFFFFFFFFFFFFFFFFFFFFFFFFFFF AND PUSH20 0xFFFFFFFFFFFFFFFFFFFFFFFFFFFFFFFFFFFFFFFF AND CALLER PUSH20 0xFFFFFFFFFFFFFFFFFFFFFFFFFFFFFFFFFFFFFFFF AND EQ PUSH2 0x1224 JUMPI PUSH1 0x40 MLOAD PUSH32 0x8C379A000000000000000000000000000000000000000000000000000000000 DUP2 MSTORE PUSH1 0x4 ADD PUSH2 0x121B SWAP1 PUSH2 0x2143 JUMP JUMPDEST PUSH1 0x40 MLOAD DUP1 SWAP2 SUB SWAP1 REVERT JUMPDEST PUSH0 PUSH20 0xFFFFFFFFFFFFFFFFFFFFFFFFFFFFFFFFFFFFFFFF AND DUP2 PUSH20 0xFFFFFFFFFFFFFFFFFFFFFFFFFFFFFFFFFFFFFFFF AND SUB PUSH2 0x1292 JUMPI PUSH1 0x40 MLOAD PUSH32 0x8C379A000000000000000000000000000000000000000000000000000000000 DUP2 MSTORE PUSH1 0x4 ADD PUSH2 0x1289 SWAP1 PUSH2 0x2316 JUMP JUMPDEST PUSH1 0x40 MLOAD DUP1 SWAP2 SUB SWAP1 REVERT JUMPDEST DUP1 PUSH20 0xFFFFFFFFFFFFFFFFFFFFFFFFFFFFFFFFFFFFFFFF AND PUSH0 PUSH0 SWAP1 SLOAD SWAP1 PUSH2 0x100 EXP SWAP1 DIV PUSH20 0xFFFFFFFFFFFFFFFFFFFFFFFFFFFFFFFFFFFFFFFF AND PUSH20 0xFFFFFFFFFFFFFFFFFFFFFFFFFFFFFFFFFFFFFFFF AND PUSH32 0x8BE0079C531659141344CD1FD0A4F28419497F9722A3DAAFE3B4186F6B6457E0 PUSH1 0x40 MLOAD PUSH1 0x40 MLOAD DUP1 SWAP2 SUB SWAP1 LOG3 DUP1 PUSH0 PUSH0 PUSH2 0x100 EXP DUP2 SLOAD DUP2 PUSH20 0xFFFFFFFFFFFFFFFFFFFFFFFFFFFFFFFFFFFFFFFF MUL NOT AND SWAP1 DUP4 PUSH20 0xFFFFFFFFFFFFFFFFFFFFFFFFFFFFFFFFFFFFFFFF AND MUL OR SWAP1 SSTORE POP POP JUMP JUMPDEST PUSH0 DUP2 SWAP1 POP SWAP2 SWAP1 POP JUMP JUMPDEST PUSH2 0x1360 DUP2 PUSH2 0x134E JUMP JUMPDEST DUP3 MSTORE POP POP JUMP JUMPDEST PUSH0 PUSH1 0x20 DUP3 ADD SWAP1 POP PUSH2 0x1379 PUSH0 DUP4 ADD DUP5 PUSH2 0x1357 JUMP JUMPDEST SWAP3 SWAP2 POP POP JUMP JUMPDEST PUSH0 PUSH0 REVERT JUMPDEST PUSH0 PUSH0 REVERT JUMPDEST PUSH2 0x1390 DUP2 PUSH2 0x134E JUMP JUMPDEST DUP2 EQ PUSH2 0x139A JUMPI PUSH0 PUSH0 REVERT JUMPDEST POP JUMP JUMPDEST PUSH0 DUP2 CALLDATALOAD SWAP1 POP PUSH2 0x13AB DUP2 PUSH2 0x1387 JUMP JUMPDEST SWAP3 SWAP2 POP POP JUMP JUMPDEST PUSH0 PUSH1 0x20 DUP3 DUP5 SUB SLT ISZERO PUSH2 0x13C6 JUMPI PUSH2 0x13C5 PUSH2 0x137F JUMP JUMPDEST JUMPDEST PUSH0 PUSH2 0x13D3 DUP5 DUP3 DUP6 ADD PUSH2 0x139D JUMP JUMPDEST SWAP2 POP POP SWAP3 SWAP2 POP POP JUMP JUMPDEST PUSH0 DUP2 MLOAD SWAP1 POP SWAP2 SWAP1 POP JUMP JUMPDEST PUSH0 DUP3 DUP3 MSTORE PUSH1 0x20 DUP3 ADD SWAP1 POP SWAP3 SWAP2 POP POP JUMP JUMPDEST DUP3 DUP2 DUP4 MCOPY PUSH0 DUP4 DUP4 ADD MSTORE POP POP POP JUMP JUMPDEST PUSH0 PUSH1 0x1F NOT PUSH1 0x1F DUP4 ADD AND SWAP1 POP SWAP2 SWAP1 POP JUMP JUMPDEST PUSH0 PUSH2 0x141E DUP3 PUSH2 0x13DC JUMP JUMPDEST PUSH2 0x1428 DUP2 DUP6 PUSH2 0x13E6 JUMP JUMPDEST SWAP4 POP PUSH2 0x1438 DUP2 DUP6 PUSH1 0x20 DUP7 ADD PUSH2 0x13F6 JUMP JUMPDEST PUSH2 0x1441 DUP2 PUSH2 0x1404 JUMP JUMPDEST DUP5 ADD SWAP2 POP POP SWAP3 SWAP2 POP POP JUMP JUMPDEST PUSH0 DUP2 MLOAD SWAP1 POP SWAP2 SWAP1 POP JUMP JUMPDEST PUSH0 DUP3 DUP3 MSTORE PUSH1 0x20 DUP3 ADD SWAP1 POP SWAP3 SWAP2 POP POP JUMP JUMPDEST PUSH0 DUP2 SWAP1 POP PUSH1 0x20 DUP3 ADD SWAP1 POP SWAP2 SWAP1 POP JUMP JUMPDEST PUSH0 DUP3 DUP3 MSTORE PUSH1 0x20 DUP3 ADD SWAP1 POP SWAP3 SWAP2 POP POP JUMP JUMPDEST PUSH0 PUSH2 0x148F DUP3 PUSH2 0x13DC JUMP JUMPDEST PUSH2 0x1499 DUP2 DUP6 PUSH2 0x1475 JUMP JUMPDEST SWAP4 POP PUSH2 0x14A9 DUP2 DUP6 PUSH1 0x20 DUP7 ADD PUSH2 0x13F6 JUMP JUMPDEST PUSH2 0x14B2 DUP2 PUSH2 0x1404 JUMP JUMPDEST DUP5 ADD SWAP2 POP POP SWAP3 SWAP2 POP POP JUMP JUMPDEST PUSH0 PUSH2 0x14C8 DUP4 DUP4 PUSH2 0x1485 JUMP JUMPDEST SWAP1 POP SWAP3 SWAP2 POP POP JUMP JUMPDEST PUSH0 PUSH1 0x20 DUP3 ADD SWAP1 POP SWAP2 SWAP1 POP JUMP JUMPDEST PUSH0 PUSH2 0x14E6 DUP3 PUSH2 0x144C JUMP JUMPDEST PUSH2 0x14F0 DUP2 DUP6 PUSH2 0x1456 JUMP JUMPDEST SWAP4 POP DUP4 PUSH1 0x20 DUP3 MUL DUP6 ADD PUSH2 0x1502 DUP6 PUSH2 0x1466 JUMP JUMPDEST DUP1 PUSH0 JUMPDEST DUP6 DUP2 LT ISZERO PUSH2 0x153D JUMPI DUP5 DUP5 SUB DUP10 MSTORE DUP2 MLOAD PUSH2 0x151E DUP6 DUP3 PUSH2 0x14BD JUMP JUMPDEST SWAP5 POP PUSH2 0x1529 DUP4 PUSH2 0x14D0 JUMP JUMPDEST SWAP3 POP PUSH1 0x20 DUP11 ADD SWAP10 POP POP PUSH1 0x1 DUP2 ADD SWAP1 POP PUSH2 0x1505 JUMP JUMPDEST POP DUP3 SWAP8 POP DUP8 SWAP6 POP POP POP POP POP POP SWAP3 SWAP2 POP POP JUMP JUMPDEST PUSH0 DUP2 MLOAD SWAP1 POP SWAP2 SWAP1 POP JUMP JUMPDEST PUSH0 DUP3 DUP3 MSTORE PUSH1 0x20 DUP3 ADD SWAP1 POP SWAP3 SWAP2 POP POP JUMP JUMPDEST PUSH0 DUP2 SWAP1 POP PUSH1 0x20 DUP3 ADD SWAP1 POP SWAP2 SWAP1 POP JUMP JUMPDEST PUSH2 0x1581 DUP2 PUSH2 0x134E JUMP JUMPDEST DUP3 MSTORE POP POP JUMP JUMPDEST PUSH0 PUSH2 0x1592 DUP4 DUP4 PUSH2 0x1578 JUMP JUMPDEST PUSH1 0x20 DUP4 ADD SWAP1 POP SWAP3 SWAP2 POP POP JUMP JUMPDEST PUSH0 PUSH1 0x20 DUP3 ADD SWAP1 POP SWAP2 SWAP1 POP JUMP JUMPDEST PUSH0 PUSH2 0x15B4 DUP3 PUSH2 0x154F JUMP JUMPDEST PUSH2 0x15BE DUP2 DUP6 PUSH2 0x1559 JUMP JUMPDEST SWAP4 POP PUSH2 0x15C9 DUP4 PUSH2 0x1569 JUMP JUMPDEST DUP1 PUSH0 JUMPDEST DUP4 DUP2 LT ISZERO PUSH2 0x15F9 JUMPI DUP2 MLOAD PUSH2 0x15E0 DUP9 DUP3 PUSH2 0x1587 JUMP JUMPDEST SWAP8 POP PUSH2 0x15EB DUP4 PUSH2 0x159E JUMP JUMPDEST SWAP3 POP POP PUSH1 0x1 DUP2 ADD SWAP1 POP PUSH2 0x15CC JUMP JUMPDEST POP DUP6 SWAP4 POP POP POP POP SWAP3 SWAP2 POP POP JUMP JUMPDEST PUSH0 DUP2 ISZERO ISZERO SWAP1 POP SWAP2 SWAP1 POP JUMP JUMPDEST PUSH2 0x161A DUP2 PUSH2 0x1606 JUMP JUMPDEST DUP3 MSTORE POP POP JUMP JUMPDEST PUSH0 PUSH1 0x80 DUP3 ADD SWAP1 POP DUP2 DUP2 SUB PUSH0 DUP4 ADD MSTORE PUSH2 0x1638 DUP2 DUP8 PUSH2 0x1414 JUMP JUMPDEST SWAP1 POP DUP2 DUP2 SUB PUSH1 0x20 DUP4 ADD MSTORE PUSH2 0x164C DUP2 DUP7 PUSH2 0x14DC JUMP JUMPDEST SWAP1 POP DUP2 DUP2 SUB PUSH1 0x40 DUP4 ADD MSTORE PUSH2 0x1660 DUP2 DUP6 PUSH2 0x15AA JUMP JUMPDEST SWAP1 POP PUSH2 0x166F PUSH1 0x60 DUP4 ADD DUP5 PUSH2 0x1611 JUMP JUMPDEST SWAP6 SWAP5 POP POP POP POP POP JUMP JUMPDEST PUSH0 PUSH20 0xFFFFFFFFFFFFFFFFFFFFFFFFFFFFFFFFFFFFFFFF DUP3 AND SWAP1 POP SWAP2 SWAP1 POP JUMP JUMPDEST PUSH0 PUSH2 0x16A1 DUP3 PUSH2 0x1678 JUMP JUMPDEST SWAP1 POP SWAP2 SWAP1 POP JUMP JUMPDEST PUSH2 0x16B1 DUP2 PUSH2 0x1697 JUMP JUMPDEST DUP2 EQ PUSH2 0x16BB JUMPI PUSH0 PUSH0 REVERT JUMPDEST POP JUMP JUMPDEST PUSH0 DUP2 CALLDATALOAD SWAP1 POP PUSH2 0x16CC DUP2 PUSH2 0x16A8 JUMP JUMPDEST SWAP3 SWAP2 POP POP JUMP JUMPDEST PUSH0 PUSH0 PUSH1 0x40 DUP4 DUP6 SUB SLT ISZERO PUSH2 0x16E8 JUMPI PUSH2 0x16E7 PUSH2 0x137F JUMP JUMPDEST JUMPDEST PUSH0 PUSH2 0x16F5 DUP6 DUP3 DUP7 ADD PUSH2 0x139D JUMP JUMPDEST SWAP3 POP POP PUSH1 0x20 PUSH2 0x1706 DUP6 DUP3 DUP7 ADD PUSH2 0x16BE JUMP JUMPDEST SWAP2 POP POP SWAP3 POP SWAP3 SWAP1 POP JUMP JUMPDEST PUSH0 PUSH1 0x20 DUP3 ADD SWAP1 POP PUSH2 0x1723 PUSH0 DUP4 ADD DUP5 PUSH2 0x1611 JUMP JUMPDEST SWAP3 SWAP2 POP POP JUMP JUMPDEST PUSH0 PUSH0 REVERT JUMPDEST PUSH0 PUSH0 REVERT JUMPDEST PUSH0 PUSH0 REVERT JUMPDEST PUSH0 PUSH0 DUP4 PUSH1 0x1F DUP5 ADD SLT PUSH2 0x174A JUMPI PUSH2 0x1749 PUSH2 0x1729 JUMP JUMPDEST JUMPDEST DUP3 CALLDATALOAD SWAP1 POP PUSH8 0xFFFFFFFFFFFFFFFF DUP2 GT ISZERO PUSH2 0x1767 JUMPI PUSH2 0x1766 PUSH2 0x172D JUMP JUMPDEST JUMPDEST PUSH1 0x20 DUP4 ADD SWAP2 POP DUP4 PUSH1 0x1 DUP3 MUL DUP4 ADD GT ISZERO PUSH2 0x1783 JUMPI PUSH2 0x1782 PUSH2 0x1731 JUMP JUMPDEST JUMPDEST SWAP3 POP SWAP3 SWAP1 POP JUMP JUMPDEST PUSH0 PUSH0 DUP4 PUSH1 0x1F DUP5 ADD SLT PUSH2 0x179F JUMPI PUSH2 0x179E PUSH2 0x1729 JUMP JUMPDEST JUMPDEST DUP3 CALLDATALOAD SWAP1 POP PUSH8 0xFFFFFFFFFFFFFFFF DUP2 GT ISZERO PUSH2 0x17BC JUMPI PUSH2 0x17BB PUSH2 0x172D JUMP JUMPDEST JUMPDEST PUSH1 0x20 DUP4 ADD SWAP2 POP DUP4 PUSH1 0x20 DUP3 MUL DUP4 ADD GT ISZERO PUSH2 0x17D8 JUMPI PUSH2 0x17D7 PUSH2 0x1731 JUMP JUMPDEST JUMPDEST SWAP3 POP SWAP3 SWAP1 POP JUMP JUMPDEST PUSH0 PUSH0 PUSH0 PUSH0 PUSH1 0x40 DUP6 DUP8 SUB SLT ISZERO PUSH2 0x17F7 JUMPI PUSH2 0x17F6 PUSH2 0x137F JUMP JUMPDEST JUMPDEST PUSH0 DUP6 ADD CALLDATALOAD PUSH8 0xFFFFFFFFFFFFFFFF DUP2 GT ISZERO PUSH2 0x1814 JUMPI PUSH2 0x1813 PUSH2 0x1383 JUMP JUMPDEST JUMPDEST PUSH2 0x1820 DUP8 DUP3 DUP9 ADD PUSH2 0x1735 JUMP JUMPDEST SWAP5 POP SWAP5 POP POP PUSH1 0x20 DUP6 ADD CALLDATALOAD PUSH8 0xFFFFFFFFFFFFFFFF DUP2 GT ISZERO PUSH2 0x1843 JUMPI PUSH2 0x1842 PUSH2 0x1383 JUMP JUMPDEST JUMPDEST PUSH2 0x184F DUP8 DUP3 DUP9 ADD PUSH2 0x178A JUMP JUMPDEST SWAP3 POP SWAP3 POP POP SWAP3 SWAP6 SWAP2 SWAP5 POP SWAP3 POP JUMP JUMPDEST PUSH2 0x1866 DUP2 PUSH2 0x1697 JUMP JUMPDEST DUP3 MSTORE POP POP JUMP JUMPDEST PUSH0 PUSH1 0x20 DUP3 ADD SWAP1 POP PUSH2 0x187F PUSH0 DUP4 ADD DUP5 PUSH2 0x185D JUMP JUMPDEST SWAP3 SWAP2 POP POP JUMP JUMPDEST PUSH0 PUSH1 0x20 DUP3 DUP5 SUB SLT ISZERO PUSH2 0x189A JUMPI PUSH2 0x1899 PUSH2 0x137F JUMP JUMPDEST JUMPDEST PUSH0 PUSH2 0x18A7 DUP5 DUP3 DUP6 ADD PUSH2 0x16BE JUMP JUMPDEST SWAP2 POP POP SWAP3 SWAP2 POP POP JUMP JUMPDEST PUSH0 PUSH0 PUSH1 0x40 DUP4 DUP6 SUB SLT ISZERO PUSH2 0x18C6 JUMPI PUSH2 0x18C5 PUSH2 0x137F JUMP JUMPDEST JUMPDEST PUSH0 PUSH2 0x18D3 DUP6 DUP3 DUP7 ADD PUSH2 0x139D JUMP JUMPDEST SWAP3 POP POP PUSH1 0x20 PUSH2 0x18E4 DUP6 DUP3 DUP7 ADD PUSH2 0x139D JUMP JUMPDEST SWAP2 POP POP SWAP3 POP SWAP3 SWAP1 POP JUMP JUMPDEST PUSH32 0x42616420706F6C6C496400000000000000000000000000000000000000000000 PUSH0 DUP3 ADD MSTORE POP JUMP JUMPDEST PUSH0 PUSH2 0x1922 PUSH1 0xA DUP4 PUSH2 0x13E6 JUMP JUMPDEST SWAP2 POP PUSH2 0x192D DUP3 PUSH2 0x18EE JUMP JUMPDEST PUSH1 0x20 DUP3 ADD SWAP1 POP SWAP2 SWAP1 POP JUMP JUMPDEST PUSH0 PUSH1 0x20 DUP3 ADD SWAP1 POP DUP2 DUP2 SUB PUSH0 DUP4 ADD MSTORE PUSH2 0x194F DUP2 PUSH2 0x1916 JUMP JUMPDEST SWAP1 POP SWAP2 SWAP1 POP JUMP JUMPDEST PUSH32 0x4E487B7100000000000000000000000000000000000000000000000000000000 PUSH0 MSTORE PUSH1 0x32 PUSH1 0x4 MSTORE PUSH1 0x24 PUSH0 REVERT JUMPDEST PUSH32 0x4E487B7100000000000000000000000000000000000000000000000000000000 PUSH0 MSTORE PUSH1 0x22 PUSH1 0x4 MSTORE PUSH1 0x24 PUSH0 REVERT JUMPDEST PUSH0 PUSH1 0x2 DUP3 DIV SWAP1 POP PUSH1 0x1 DUP3 AND DUP1 PUSH2 0x19C7 JUMPI PUSH1 0x7F DUP3 AND SWAP2 POP JUMPDEST PUSH1 0x20 DUP3 LT DUP2 SUB PUSH2 0x19DA JUMPI PUSH2 0x19D9 PUSH2 0x1983 JUMP JUMPDEST JUMPDEST POP SWAP2 SWAP1 POP JUMP JUMPDEST PUSH32 0x4E487B7100000000000000000000000000000000000000000000000000000000 PUSH0 MSTORE PUSH1 0x41 PUSH1 0x4 MSTORE PUSH1 0x24 PUSH0 REVERT JUMPDEST PUSH32 0x4E6F7420696E7374727563746F72000000000000000000000000000000000000 PUSH0 DUP3 ADD MSTORE POP JUMP JUMPDEST PUSH0 PUSH2 0x1A41 PUSH1 0xE DUP4 PUSH2 0x13E6 JUMP JUMPDEST SWAP2 POP PUSH2 0x1A4C DUP3 PUSH2 0x1A0D JUMP JUMPDEST PUSH1 0x20 DUP3 ADD SWAP1 POP SWAP2 SWAP1 POP JUMP JUMPDEST PUSH0 PUSH1 0x20 DUP3 ADD SWAP1 POP DUP2 DUP2 SUB PUSH0 DUP4 ADD MSTORE PUSH2 0x1A6E DUP2 PUSH2 0x1A35 JUMP JUMPDEST SWAP1 POP SWAP2 SWAP1 POP JUMP JUMPDEST PUSH32 0x456D707479207175657374696F6E000000000000000000000000000000000000 PUSH0 DUP3 ADD MSTORE POP JUMP JUMPDEST PUSH0 PUSH2 0x1AA9 PUSH1 0xE DUP4 PUSH2 0x13E6 JUMP JUMPDEST SWAP2 POP PUSH2 0x1AB4 DUP3 PUSH2 0x1A75 JUMP JUMPDEST PUSH1 0x20 DUP3 ADD SWAP1 POP SWAP2 SWAP1 POP JUMP JUMPDEST PUSH0 PUSH1 0x20 DUP3 ADD SWAP1 POP DUP2 DUP2 SUB PUSH0 DUP4 ADD MSTORE PUSH2 0x1AD6 DUP2 PUSH2 0x1A9D JUMP JUMPDEST SWAP1 POP SWAP2 SWAP1 POP JUMP JUMPDEST PUSH32 0x4E65656420322D3130206F7074696F6E73000000000000000000000000000000 PUSH0 DUP3 ADD MSTORE POP JUMP JUMPDEST PUSH0 PUSH2 0x1B11 PUSH1 0x11 DUP4 PUSH2 0x13E6 JUMP JUMPDEST SWAP2 POP PUSH2 0x1B1C DUP3 PUSH2 0x1ADD JUMP JUMPDEST PUSH1 0x20 DUP3 ADD SWAP1 POP SWAP2 SWAP1 POP JUMP JUMPDEST PUSH0 PUSH1 0x20 DUP3 ADD SWAP1 POP DUP2 DUP2 SUB PUSH0 DUP4 ADD MSTORE PUSH2 0x1B3E DUP2 PUSH2 0x1B05 JUMP JUMPDEST SWAP1 POP SWAP2 SWAP1 POP JUMP JUMPDEST PUSH32 0x4E487B7100000000000000000000000000000000000000000000000000000000 PUSH0 MSTORE PUSH1 0x11 PUSH1 0x4 MSTORE PUSH1 0x24 PUSH0 REVERT JUMPDEST PUSH0 PUSH2 0x1B7C DUP3 PUSH2 0x134E JUMP JUMPDEST SWAP2 POP PUSH2 0x1B87 DUP4 PUSH2 0x134E JUMP JUMPDEST SWAP3 POP DUP3 DUP3 SUB SWAP1 POP DUP2 DUP2 GT ISZERO PUSH2 0x1B9F JUMPI PUSH2 0x1B9E PUSH2 0x1B45 JUMP JUMPDEST JUMPDEST SWAP3 SWAP2 POP POP JUMP JUMPDEST PUSH0 DUP3 SWAP1 POP SWAP3 SWAP2 POP POP JUMP JUMPDEST PUSH0 DUP2 SWAP1 POP DUP2 PUSH0 MSTORE PUSH1 0x20 PUSH0 KECCAK256 SWAP1 POP SWAP2 SWAP1 POP JUMP JUMPDEST PUSH0 PUSH1 0x20 PUSH1 0x1F DUP4 ADD DIV SWAP1 POP SWAP2 SWAP1 POP JUMP JUMPDEST PUSH0 DUP3 DUP3 SHL SWAP1 POP SWAP3 SWAP2 POP POP JUMP JUMPDEST PUSH0 PUSH1 0x8 DUP4 MUL PUSH2 0x1C0B PUSH32 0xFFFFFFFFFFFFFFFFFFFFFFFFFFFFFFFFFFFFFFFFFFFFFFFFFFFFFFFFFFFFFFFF DUP3 PUSH2 0x1BD0 JUMP JUMPDEST PUSH2 0x1C15 DUP7 DUP4 PUSH2 0x1BD0 JUMP JUMPDEST SWAP6 POP DUP1 NOT DUP5 AND SWAP4 POP DUP1 DUP7 AND DUP5 OR SWAP3 POP POP POP SWAP4 SWAP3 POP POP POP JUMP JUMPDEST PUSH0 DUP2 SWAP1 POP SWAP2 SWAP1 POP JUMP JUMPDEST PUSH0 PUSH2 0x1C50 PUSH2 0x1C4B PUSH2 0x1C46 DUP5 PUSH2 0x134E JUMP JUMPDEST PUSH2 0x1C2D JUMP JUMPDEST PUSH2 0x134E JUMP JUMPDEST SWAP1 POP SWAP2 SWAP1 POP JUMP JUMPDEST PUSH0 DUP2 SWAP1 POP SWAP2 SWAP1 POP JUMP JUMPDEST PUSH2 0x1C69 DUP4 PUSH2 0x1C36 JUMP JUMPDEST PUSH2 0x1C7D PUSH2 0x1C75 DUP3 PUSH2 0x1C57 JUMP JUMPDEST DUP5 DUP5 SLOAD PUSH2 0x1BDC JUMP JUMPDEST DUP3 SSTORE POP POP POP POP JUMP JUMPDEST PUSH0 PUSH0 SWAP1 POP SWAP1 JUMP JUMPDEST PUSH2 0x1C94 PUSH2 0x1C85 JUMP JUMPDEST PUSH2 0x1C9F DUP2 DUP5 DUP5 PUSH2 0x1C60 JUMP JUMPDEST POP POP POP JUMP JUMPDEST JUMPDEST DUP2 DUP2 LT ISZERO PUSH2 0x1CC2 JUMPI PUSH2 0x1CB7 PUSH0 DUP3 PUSH2 0x1C8C JUMP JUMPDEST PUSH1 0x1 DUP2 ADD SWAP1 POP PUSH2 0x1CA5 JUMP JUMPDEST POP POP JUMP JUMPDEST PUSH1 0x1F DUP3 GT ISZERO PUSH2 0x1D07 JUMPI PUSH2 0x1CD8 DUP2 PUSH2 0x1BAF JUMP JUMPDEST PUSH2 0x1CE1 DUP5 PUSH2 0x1BC1 JUMP JUMPDEST DUP2 ADD PUSH1 0x20 DUP6 LT ISZERO PUSH2 0x1CF0 JUMPI DUP2 SWAP1 POP JUMPDEST PUSH2 0x1D04 PUSH2 0x1CFC DUP6 PUSH2 0x1BC1 JUMP JUMPDEST DUP4 ADD DUP3 PUSH2 0x1CA4 JUMP JUMPDEST POP POP JUMPDEST POP POP POP JUMP JUMPDEST PUSH0 DUP3 DUP3 SHR SWAP1 POP SWAP3 SWAP2 POP POP JUMP JUMPDEST PUSH0 PUSH2 0x1D27 PUSH0 NOT DUP5 PUSH1 0x8 MUL PUSH2 0x1D0C JUMP JUMPDEST NOT DUP1 DUP4 AND SWAP2 POP POP SWAP3 SWAP2 POP POP JUMP JUMPDEST PUSH0 PUSH2 0x1D3F DUP4 DUP4 PUSH2 0x1D18 JUMP JUMPDEST SWAP2 POP DUP3 PUSH1 0x2 MUL DUP3 OR SWAP1 POP SWAP3 SWAP2 POP POP JUMP JUMPDEST PUSH2 0x1D59 DUP4 DUP4 PUSH2 0x1BA5 JUMP JUMPDEST PUSH8 0xFFFFFFFFFFFFFFFF DUP2 GT ISZERO PUSH2 0x1D72 JUMPI PUSH2 0x1D71 PUSH2 0x19E0 JUMP JUMPDEST JUMPDEST PUSH2 0x1D7C DUP3 SLOAD PUSH2 0x19B0 JUMP JUMPDEST PUSH2 0x1D87 DUP3 DUP3 DUP6 PUSH2 0x1CC6 JUMP JUMPDEST PUSH0 PUSH1 0x1F DUP4 GT PUSH1 0x1 DUP2 EQ PUSH2 0x1DB4 JUMPI PUSH0 DUP5 ISZERO PUSH2 0x1DA2 JUMPI DUP3 DUP8 ADD CALLDATALOAD SWAP1 POP JUMPDEST PUSH2 0x1DAC DUP6 DUP3 PUSH2 0x1D34 JUMP JUMPDEST DUP7 SSTORE POP PUSH2 0x1E13 JUMP JUMPDEST PUSH1 0x1F NOT DUP5 AND PUSH2 0x1DC2 DUP7 PUSH2 0x1BAF JUMP JUMPDEST PUSH0 JUMPDEST DUP3 DUP2 LT ISZERO PUSH2 0x1DE9 JUMPI DUP5 DUP10 ADD CALLDATALOAD DUP3 SSTORE PUSH1 0x1 DUP3 ADD SWAP2 POP PUSH1 0x20 DUP6 ADD SWAP5 POP PUSH1 0x20 DUP2 ADD SWAP1 POP PUSH2 0x1DC4 JUMP JUMPDEST DUP7 DUP4 LT ISZERO PUSH2 0x1E06 JUMPI DUP5 DUP10 ADD CALLDATALOAD PUSH2 0x1E02 PUSH1 0x1F DUP10 AND DUP3 PUSH2 0x1D18 JUMP JUMPDEST DUP4 SSTORE POP JUMPDEST PUSH1 0x1 PUSH1 0x2 DUP9 MUL ADD DUP9 SSTORE POP POP POP JUMPDEST POP POP POP POP POP POP POP JUMP JUMPDEST PUSH0 PUSH0 REVERT JUMPDEST PUSH0 PUSH0 REVERT JUMPDEST PUSH0 PUSH0 REVERT JUMPDEST PUSH0 PUSH0 DUP4 CALLDATALOAD PUSH1 0x1 PUSH1 0x20 SUB DUP5 CALLDATASIZE SUB SUB DUP2 SLT PUSH2 0x1E44 JUMPI PUSH2 0x1E43 PUSH2 0x1E1C JUMP JUMPDEST JUMPDEST DUP1 DUP5 ADD SWAP3 POP DUP3 CALLDATALOAD SWAP2 POP PUSH8 0xFFFFFFFFFFFFFFFF DUP3 GT ISZERO PUSH2 0x1E66 JUMPI PUSH2 0x1E65 PUSH2 0x1E20 JUMP JUMPDEST JUMPDEST PUSH1 0x20 DUP4 ADD SWAP3 POP PUSH1 0x1 DUP3 MUL CALLDATASIZE SUB DUP4 SGT ISZERO PUSH2 0x1E82 JUMPI PUSH2 0x1E81 PUSH2 0x1E24 JUMP JUMPDEST JUMPDEST POP SWAP3 POP SWAP3 SWAP1 POP JUMP JUMPDEST PUSH32 0x456D707479206F7074696F6E0000000000000000000000000000000000000000 PUSH0 DUP3 ADD MSTORE POP JUMP JUMPDEST PUSH0 PUSH2 0x1EBE PUSH1 0xC DUP4 PUSH2 0x13E6 JUMP JUMPDEST SWAP2 POP PUSH2 0x1EC9 DUP3 PUSH2 0x1E8A JUMP JUMPDEST PUSH1 0x20 DUP3 ADD SWAP1 POP SWAP2 SWAP1 POP JUMP JUMPDEST PUSH0 PUSH1 0x20 DUP3 ADD SWAP1 POP DUP2 DUP2 SUB PUSH0 DUP4 ADD MSTORE PUSH2 0x1EEB DUP2 PUSH2 0x1EB2 JUMP JUMPDEST SWAP1 POP SWAP2 SWAP1 POP JUMP JUMPDEST DUP3 DUP2 DUP4 CALLDATACOPY PUSH0 DUP4 DUP4 ADD MSTORE POP POP POP JUMP JUMPDEST PUSH0 PUSH2 0x1F0B DUP4 DUP6 PUSH2 0x13E6 JUMP JUMPDEST SWAP4 POP PUSH2 0x1F18 DUP4 DUP6 DUP5 PUSH2 0x1EF2 JUMP JUMPDEST PUSH2 0x1F21 DUP4 PUSH2 0x1404 JUMP JUMPDEST DUP5 ADD SWAP1 POP SWAP4 SWAP3 POP POP POP JUMP JUMPDEST PUSH0 DUP2 SLOAD SWAP1 POP SWAP2 SWAP1 POP JUMP JUMPDEST PUSH0 DUP2 SWAP1 POP DUP2 PUSH0 MSTORE PUSH1 0x20 PUSH0 KECCAK256 SWAP1 POP SWAP2 SWAP1 POP JUMP JUMPDEST PUSH0 DUP2 SLOAD PUSH2 0x1F54 DUP2 PUSH2 0x19B0 JUMP JUMPDEST PUSH2 0x1F5E DUP2 DUP7 PUSH2 0x1475 JUMP JUMPDEST SWAP5 POP PUSH1 0x1 DUP3 AND PUSH0 DUP2 EQ PUSH2 0x1F78 JUMPI PUSH1 0x1 DUP2 EQ PUSH2 0x1F8E JUMPI PUSH2 0x1FC0 JUMP JUMPDEST PUSH1 0xFF NOT DUP4 AND DUP7 MSTORE DUP2 ISZERO ISZERO PUSH1 0x20 MUL DUP7 ADD SWAP4 POP PUSH2 0x1FC0 JUMP JUMPDEST PUSH2 0x1F97 DUP6 PUSH2 0x1BAF JUMP JUMPDEST PUSH0 JUMPDEST DUP4 DUP2 LT ISZERO PUSH2 0x1FB8 JUMPI DUP2 SLOAD DUP2 DUP10 ADD MSTORE PUSH1 0x1 DUP3 ADD SWAP2 POP PUSH1 0x20 DUP2 ADD SWAP1 POP PUSH2 0x1F99 JUMP JUMPDEST DUP1 DUP9 ADD SWAP6 POP POP POP JUMPDEST POP POP POP SWAP3 SWAP2 POP POP JUMP JUMPDEST PUSH0 PUSH2 0x1FD4 DUP4 DUP4 PUSH2 0x1F48 JUMP JUMPDEST SWAP1 POP SWAP3 SWAP2 POP POP JUMP JUMPDEST PUSH0 PUSH1 0x1 DUP3 ADD SWAP1 POP SWAP2 SWAP1 POP JUMP JUMPDEST PUSH0 PUSH2 0x1FF2 DUP3 PUSH2 0x1F2C JUMP JUMPDEST PUSH2 0x1FFC DUP2 DUP6 PUSH2 0x1456 JUMP JUMPDEST SWAP4 POP DUP4 PUSH1 0x20 DUP3 MUL DUP6 ADD PUSH2 0x200E DUP6 PUSH2 0x1F36 JUMP JUMPDEST DUP1 PUSH0 JUMPDEST DUP6 DUP2 LT ISZERO PUSH2 0x2048 JUMPI DUP5 DUP5 SUB DUP10 MSTORE DUP2 PUSH2 0x2029 DUP6 DUP3 PUSH2 0x1FC9 JUMP JUMPDEST SWAP5 POP PUSH2 0x2034 DUP4 PUSH2 0x1FDC JUMP JUMPDEST SWAP3 POP PUSH1 0x20 DUP11 ADD SWAP10 POP POP PUSH1 0x1 DUP2 ADD SWAP1 POP PUSH2 0x2011 JUMP JUMPDEST POP DUP3 SWAP8 POP DUP8 SWAP6 POP POP POP POP POP POP SWAP3 SWAP2 POP POP JUMP JUMPDEST PUSH0 PUSH1 0x40 DUP3 ADD SWAP1 POP DUP2 DUP2 SUB PUSH0 DUP4 ADD MSTORE PUSH2 0x2073 DUP2 DUP6 DUP8 PUSH2 0x1F00 JUMP JUMPDEST SWAP1 POP DUP2 DUP2 SUB PUSH1 0x20 DUP4 ADD MSTORE PUSH2 0x2087 DUP2 DUP5 PUSH2 0x1FE8 JUMP JUMPDEST SWAP1 POP SWAP5 SWAP4 POP POP POP POP JUMP JUMPDEST PUSH32 0x416C726561647920636C6F736564000000000000000000000000000000000000 PUSH0 DUP3 ADD MSTORE POP JUMP JUMPDEST PUSH0 PUSH2 0x20C5 PUSH1 0xE DUP4 PUSH2 0x13E6 JUMP JUMPDEST SWAP2 POP PUSH2 0x20D0 DUP3 PUSH2 0x2091 JUMP JUMPDEST PUSH1 0x20 DUP3 ADD SWAP1 POP SWAP2 SWAP1 POP JUMP JUMPDEST PUSH0 PUSH1 0x20 DUP3 ADD SWAP1 POP DUP2 DUP2 SUB PUSH0 DUP4 ADD MSTORE PUSH2 0x20F2 DUP2 PUSH2 0x20B9 JUMP JUMPDEST SWAP1 POP SWAP2 SWAP1 POP JUMP JUMPDEST PUSH32 0x4E6F74206F776E65720000000000000000000000000000000000000000000000 PUSH0 DUP3 ADD MSTORE POP JUMP JUMPDEST PUSH0 PUSH2 0x212D PUSH1 0x9 DUP4 PUSH2 0x13E6 JUMP JUMPDEST SWAP2 POP PUSH2 0x2138 DUP3 PUSH2 0x20F9 JUMP JUMPDEST PUSH1 0x20 DUP3 ADD SWAP1 POP SWAP2 SWAP1 POP JUMP JUMPDEST PUSH0 PUSH1 0x20 DUP3 ADD SWAP1 POP DUP2 DUP2 SUB PUSH0 DUP4 ADD MSTORE PUSH2 0x215A DUP2 PUSH2 0x2121 JUMP JUMPDEST SWAP1 POP SWAP2 SWAP1 POP JUMP JUMPDEST PUSH32 0x506F6C6C20636C6F736564000000000000000000000000000000000000000000 PUSH0 DUP3 ADD MSTORE POP JUMP JUMPDEST PUSH0 PUSH2 0x2195 PUSH1 0xB DUP4 PUSH2 0x13E6 JUMP JUMPDEST SWAP2 POP PUSH2 0x21A0 DUP3 PUSH2 0x2161 JUMP JUMPDEST PUSH1 0x20 DUP3 ADD SWAP1 POP SWAP2 SWAP1 POP JUMP JUMPDEST PUSH0 PUSH1 0x20 DUP3 ADD SWAP1 POP DUP2 DUP2 SUB PUSH0 DUP4 ADD MSTORE PUSH2 0x21C2 DUP2 PUSH2 0x2189 JUMP JUMPDEST SWAP1 POP SWAP2 SWAP1 POP JUMP JUMPDEST PUSH32 0x426164206F7074696F6E00000000000000000000000000000000000000000000 PUSH0 DUP3 ADD MSTORE POP JUMP JUMPDEST PUSH0 PUSH2 0x21FD PUSH1 0xA DUP4 PUSH2 0x13E6 JUMP JUMPDEST SWAP2 POP PUSH2 0x2208 DUP3 PUSH2 0x21C9 JUMP JUMPDEST PUSH1 0x20 DUP3 ADD SWAP1 POP SWAP2 SWAP1 POP JUMP JUMPDEST PUSH0 PUSH1 0x20 DUP3 ADD SWAP1 POP DUP2 DUP2 SUB PUSH0 DUP4 ADD MSTORE PUSH2 0x222A DUP2 PUSH2 0x21F1 JUMP JUMPDEST SWAP1 POP SWAP2 SWAP1 POP JUMP JUMPDEST PUSH32 0x416C726561647920766F74656400000000000000000000000000000000000000 PUSH0 DUP3 ADD MSTORE POP JUMP JUMPDEST PUSH0 PUSH2 0x2265 PUSH1 0xD DUP4 PUSH2 0x13E6 JUMP JUMPDEST SWAP2 POP PUSH2 0x2270 DUP3 PUSH2 0x2231 JUMP JUMPDEST PUSH1 0x20 DUP3 ADD SWAP1 POP SWAP2 SWAP1 POP JUMP JUMPDEST PUSH0 PUSH1 0x20 DUP3 ADD SWAP1 POP DUP2 DUP2 SUB PUSH0 DUP4 ADD MSTORE PUSH2 0x2292 DUP2 PUSH2 0x2259 JUMP JUMPDEST SWAP1 POP SWAP2 SWAP1 POP JUMP JUMPDEST PUSH0 PUSH2 0x22A3 DUP3 PUSH2 0x134E JUMP JUMPDEST SWAP2 POP PUSH2 0x22AE DUP4 PUSH2 0x134E JUMP JUMPDEST SWAP3 POP DUP3 DUP3 ADD SWAP1 POP DUP1 DUP3 GT ISZERO PUSH2 0x22C6 JUMPI PUSH2 0x22C5 PUSH2 0x1B45 JUMP JUMPDEST JUMPDEST SWAP3 SWAP2 POP POP JUMP JUMPDEST PUSH32 0x5A65726F20616464726573730000000000000000000000000000000000000000 PUSH0 DUP3 ADD MSTORE POP JUMP JUMPDEST PUSH0 PUSH2 0x2300 PUSH1 0xC DUP4 PUSH2 0x13E6 JUMP JUMPDEST SWAP2 POP PUSH2 0x230B DUP3 PUSH2 0x22CC JUMP JUMPDEST PUSH1 0x20 DUP3 ADD SWAP1 POP SWAP2 SWAP1 POP JUMP JUMPDEST PUSH0 PUSH1 0x20 DUP3 ADD SWAP1 POP DUP2 DUP2 SUB PUSH0 DUP4 ADD MSTORE PUSH2 0x232D DUP2 PUSH2 0x22F4 JUMP JUMPDEST SWAP1 POP SWAP2 SWAP1 POP JUMP JUMPDEST PUSH32 0x416C726561647920696E7374727563746F720000000000000000000000000000 PUSH0 DUP3 ADD MSTORE POP JUMP JUMPDEST PUSH0 PUSH2 0x2368 PUSH1 0x12 DUP4 PUSH2 0x13E6 JUMP JUMPDEST SWAP2 POP PUSH2 0x2373 DUP3 PUSH2 0x2334 JUMP JUMPDEST PUSH1 0x20 DUP3 ADD SWAP1 POP SWAP2 SWAP1 POP JUMP JUMPDEST PUSH0 PUSH1 0x20 DUP3 ADD SWAP1 POP DUP2 DUP2 SUB PUSH0 DUP4 ADD MSTORE PUSH2 0x2395 DUP2 PUSH2 0x235C JUMP JUMPDEST SWAP1 POP SWAP2 SWAP1 POP JUMP INVALID LOG2 PUSH5 0x6970667358 0x22 SLT KECCAK256 0xA9 SWAP6 SWAP4 TIMESTAMP 0xC2 LOG2 0xCC DIV PUSH0 0xB2 PUSH31 0x9028351274C2F37594A173ABFE4A97EE68AAE8570A64736F6C634300081E00 CALLER "
				},
				"gasEstimates": {
					"creation": {
						"codeDepositCost": "1834000",
						"executionCost": "53251",
						"totalCost": "1887251"
					},
					"external": {
						"addInstructor(address)": "30475",
						"closePoll(uint256)": "34667",
						"createPoll(string,string[])": "infinite",
						"getOptionCount(uint256)": "infinite",
						"getPoll(uint256)": "infinite",
						"getPollCount()": "2441",
						"hasVoted(uint256,address)": "7411",
						"isInstructor(address)": "2855",
						"owner()": "2596",
						"removeInstructor(address)": "30371",
						"transferOwnership(address)": "30705",
						"vote(uint256,uint256)": "infinite"
					}
				},
				"methodIdentifiers": {
					"addInstructor(address)": "b9399e13",
					"closePoll(uint256)": "9534e637",
					"createPoll(string,string[])": "7e3d71c3",
					"getOptionCount(uint256)": "e1adaf58",
					"getPoll(uint256)": "1a8cbcaa",
					"getPollCount()": "11a52746",
					"hasVoted(uint256,address)": "43859632",
					"isInstructor(address)": "a3afcea2",
					"owner()": "8da5cb5b",
					"removeInstructor(address)": "9c566f2a",
					"transferOwnership(address)": "f2fde38b",
					"vote(uint256,uint256)": "b384abef"
				}
			},
			"storageLayout": {
				"storage": [
					{
						"astId": 4,
						"contract": "contracts/voting.sol:Voting",
						"label": "owner",
						"offset": 0,
						"slot": "0",
						"type": "t_address"
					},
					{
						"astId": 83,
						"contract": "contracts/voting.sol:Voting",
						"label": "isInstructor",
						"offset": 0,
						"slot": "1",
						"type": "t_mapping(t_address,t_bool)"
					},
					{
						"astId": 183,
						"contract": "contracts/voting.sol:Voting",
						"label": "_polls",
						"offset": 0,
						"slot": "2",
						"type": "t_array(t_struct(Poll)179_storage)dyn_storage"
					}
				],
				"types": {
					"t_address": {
						"encoding": "inplace",
						"label": "address",
						"numberOfBytes": "20"
					},
					"t_array(t_string_storage)dyn_storage": {
						"base": "t_string_storage",
						"encoding": "dynamic_array",
						"label": "string[]",
						"numberOfBytes": "32"
					},
					"t_array(t_struct(Poll)179_storage)dyn_storage": {
						"base": "t_struct(Poll)179_storage",
						"encoding": "dynamic_array",
						"label": "struct Voting.Poll[]",
						"numberOfBytes": "32"
					},
					"t_array(t_uint256)dyn_storage": {
						"base": "t_uint256",
						"encoding": "dynamic_array",
						"label": "uint256[]",
						"numberOfBytes": "32"
					},
					"t_bool": {
						"encoding": "inplace",
						"label": "bool",
						"numberOfBytes": "1"
					},
					"t_mapping(t_address,t_bool)": {
						"encoding": "mapping",
						"key": "t_address",
						"label": "mapping(address => bool)",
						"numberOfBytes": "32",
						"value": "t_bool"
					},
					"t_string_storage": {
						"encoding": "bytes",
						"label": "string",
						"numberOfBytes": "32"
					},
					"t_struct(Poll)179_storage": {
						"encoding": "inplace",
						"label": "struct Voting.Poll",
						"members": [
							{
								"astId": 166,
								"contract": "contracts/voting.sol:Voting",
								"label": "question",
								"offset": 0,
								"slot": "0",
								"type": "t_string_storage"
							},
							{
								"astId": 169,
								"contract": "contracts/voting.sol:Voting",
								"label": "options",
								"offset": 0,
								"slot": "1",
								"type": "t_array(t_string_storage)dyn_storage"
							},
							{
								"astId": 172,
								"contract": "contracts/voting.sol:Voting",
								"label": "votes",
								"offset": 0,
								"slot": "2",
								"type": "t_array(t_uint256)dyn_storage"
							},
							{
								"astId": 174,
								"contract": "contracts/voting.sol:Voting",
								"label": "isOpen",
								"offset": 0,
								"slot": "3",
								"type": "t_bool"
							},
							{
								"astId": 178,
								"contract": "contracts/voting.sol:Voting",
								"label": "voted",
								"offset": 0,
								"slot": "4",
								"type": "t_mapping(t_address,t_bool)"
							}
						],
						"numberOfBytes": "160"
					},
					"t_uint256": {
						"encoding": "inplace",
						"label": "uint256",
						"numberOfBytes": "32"
					}
				}
			},
			"userdoc": {
				"kind": "user",
				"methods": {},
				"version": 1
			}
		}
	}
}